:100000000C9405010C941C0A0C944D0A0C947E0A65
:100010000C94AF0A0C94E00A0C94110B0C94420B54
:100020000C94730B0C9432010C9432010C94320139
:100030000C9432010C9432010C9432010C94320174
:100040000C9432010C9432010C9432010C94320164
:100050000C9432010C9432010C9432010C94B30BC9
:100060000C9432010C94C2030C940A050C943201D6
:100070000C9432010C9432010C9432010C94320134
:100080000C9432010C9432010C9432010C94320124
:100090000C9402040C9449050C9432010C94320126
:1000A0000C9432010C9432010C9432010C94320104
:1000B0000C9432010C9432010C9432010C943201F4
:1000C0000C9432010C9432010C9432010C944204D1
:1000D0000C9488050C9432010C9482040C94C7058E
:1000E0000C94320100002100240027002A002D007A
:1000F0003000330001010000040107010A01000083
:100100002200250028002B002E00310034000201BF
:100110000000050108010B0100002000230026005B
:1001200029002C002F00320000010000030106010D
:10013000090105050505070508080808020202026D
:100140000A0A080804040404010101010101010173
:100150000303030303030303040707070C0C0C0C3E
:100160000C0C0C0C02020202060606060606060627
:100170000B0B0B0B0B0B0B0B0102102020080810B4
:100180002040102040800201020108040201010207
:1001900004081020408080402010080402018004E0
:1001A000020180402010080402010804020101023B
:1001B0000408102040800102040810204080000044
:1001C000090A02080B0C0D070603040100000000D9
:1001D000000000000000000000000000000000001F
:1001E0000000000000000000000011100F000000DF
:1001F00000000000000000000000000000000000FF
:1002000000000000A9016003370711241FBECFEFD3
:10021000D1E2DEBFCDBF00E00CBF12E0A0E0B2E053
:10022000E0EFF5E200E00BBF02C007900D92A23CA8
:10023000B107D9F71BBE16E0A2ECB2E001C01D92D7
:10024000A736B107E1F712E0CAE0D2E004C0229776
:10025000FE010E94E712C430D107C9F70E94A40B27
:100260000C94F6120C940000FC0188279927E8945E
:1002700021912032E9F3293010F02E30C8F32B32CF
:1002800041F02D3239F4689404C00E94A101820F1C
:10029000911D219120532A30C0F31EF49095819531
:1002A0009F4F0895FB01DC014150504030F08D918B
:1002B0000190801919F40020B9F7881B990B089553
:1002C000FB01DC014150504048F001900D920020AC
:1002D000C9F701C01D9241505040E0F708950097C2
:1002E00031F4DA018D919C91009709F40EC0DC0184
:1002F000FB013D912191222319F03217C9F3FACF66
:10030000332331F4DA011D921C928827992708952E
:100310001197AF93BF93FB013D912191321771F477
:10032000332321F488279927119702C01E92119632
:10033000FA01A193B0839F918F910895222369F7C9
:10034000EACF7AE0979F902D879F802D910D112401
:10035000089582EC92E00E94181086E993E00E94D2
:10036000290387E993E00E945B0308950F931F938D
:1003700006EC15E0C80160E072E00E948D09C8013A
:1003800068E172E00E948D09C80161E372E00E9499
:100390008D09C80160E472E00E948D09C8016DE416
:1003A00072E00E948D09C80162E572E00E948D0929
:1003B000C8016BE572E00E948D091F910F910895AD
:1003C00085E061E00E947D0E86E061E00E947D0E86
:1003D00087E993E06AEA7AEA0E948F0364EF71E0AA
:1003E00080E090E00E94FB0B85E060E00E947D0EC3
:1003F00086E060E00E947D0E87E993E065E575E5A3
:100400000E948F0364EF71E080E090E00E94FB0B9C
:10041000D7CF86E993E00E94570308950E9409020E
:10042000089586EC95E064E672E00E948A0982E015
:100430000E94B00E019729F486EC95E06EE672E01A
:1004400004C086EC95E063E772E00E948A0986ECBE
:1004500095E067E772E00E948A0983E00E94B00E8F
:10046000019729F486EC95E06EE672E004C086EC14
:1004700095E063E772E00E948A0986EC95E061E806
:1004800072E00E948A0984E00E94B00E019729F46C
:1004900086EC95E06EE672E004C086EC95E063E7DA
:1004A00072E00E948A0908950F931F9306EC15E0ED
:1004B000C8016BE872E00E948A0981E00E94B60CD4
:1004C000BC01C8014AE050E00E947709C80165E913
:1004D00072E00E948A0980E00E94B60CBC01C8014B
:1004E0004AE050E00E9477091F910F9108950E9401
:1004F00054020E94110268EE73E080E090E00E94D6
:10050000FB0B86EC95E00E949708F1CF1F9382ECDD
:1005100092E00E941C0F009799F00E943401182F5E
:1005200082EC92E00E941C0F009751F00E9434016F
:10053000712F60E0680F711D87E993E00E948F03BF
:100540001F9108951F9382EC92E00E941C0F009768
:10055000A9F00E943401182F82EC92E00E941C0F37
:10056000009761F00E943401823040F440E0811134
:1005700041E087E993E0612F0E9495031F91089560
:1005800082EC92E00E94270F08950F931F9386EC50
:1005900095E040E052EC61E070E00E94060682E0E7
:1005A00060E00E94CA0D83E060E00E94CA0D84E012
:1005B00060E00E94CA0D85E061E00E94CA0D86E0FD
:1005C00061E00E94CA0D87E993E00E945F0302EC9C
:1005D00012E0C8016FE972E042EA52E00E94E60EC2
:1005E000C80169EA72E046E852E00E94E60EC801DE
:1005F00061E372E044E552E00E94E60EC80160E467
:1006000072E041E152E00E94E60EC8016DE472E042
:1006100049E052E00E94E60EC80162E572E047E759
:1006200052E00E94E60EC8016BE572E040EE51E038
:100630000E94E60EC80166EB71E00E94E00E80E0C9
:100640006EE072E043E050E00E94A0091F910F911C
:10065000089508950F931F93CF93DF93C0E0D0E0E8
:10066000062F10E017C089E060E070E00E94EA0CFD
:1006700062E370E080E090E00E94FB0B89E064E1BF
:1006800070E00E94EA0C62E370E080E090E00E947B
:10069000FB0B2196C017D10734F389E06FEF70E0B0
:1006A0000E94EA0CDF91CF911F910F91089565E0B0
:1006B0000E942A030895FC01118210820895089572
:1006C00089E993E06AE34BE321E00E94C0110895B9
:1006D000EF92FF920F931F93162F072F89E9E82EB1
:1006E00083E0F82EC70160E270E00E94A112C7010A
:1006F000612F0E948E12C7010E947212C70161E22F
:1007000070E00E94A112C701602F0E948E12C701E3
:100710000E9472121F910F91FF90EF900895FC01BB
:10072000718360830E9468030895FC01603140F585
:1007300020813181442371F081E090E0A0E0B0E0BD
:1007400004C0880F991FAA1FBB1F6A95D2F7282BD8
:10075000392B0FC081E090E0A0E0B0E004C0880F2A
:10076000991FAA1FBB1F6A95D2F7809590952823E1
:1007700039233183208360817181CF010E94680316
:10078000089508951F920F920FB60F920BB60F9215
:1007900011242F933F934F938F939F93EF93FF9346
:1007A0008091C00082FD1DC04091C6002091E603EB
:1007B0003091E7032F5F3F4F2F7330708091E80334
:1007C0009091E9032817390771F0E091E603F09161
:1007D000E703EA55FC4F40833093E7032093E60399
:1007E00002C08091C600FF91EF919F918F914F9130
:1007F0003F912F910F900BBE0F900FBE0F901F9047
:10080000189508951F920F920FB60F920BB60F9284
:1008100011242F933F934F938F939F93EF93FF93C5
:100820008091C80082FD1DC04091CE0020916E04D1
:1008300030916F042F5F3F4F2F73307080917004A1
:10084000909171042817390771F0E0916E04F091CE
:100850006F04E25DFB4F408330936F0420936E047E
:1008600002C08091CE00FF91EF919F918F914F91A7
:100870003F912F910F900BBE0F900FBE0F901F90C6
:10088000189508951F920F920FB60F920BB60F9204
:1008900011242F933F934F938F939F93EF93FF9345
:1008A0008091D00082FD1DC04091D6002091F604B9
:1008B0003091F7042F5F3F4F2F7330708091F80411
:1008C0009091F9042817390771F0E091F604F0913E
:1008D000F704EA54FB4F40833093F7042093F60467
:1008E00002C08091D600FF91EF919F918F914F911F
:1008F0003F912F910F900BBE0F900FBE0F901F9046
:10090000189508951F920F920FB60F920BB60F9283
:1009100011242F933F934F938F939F93EF93FF93C4
:100920008091300182FD1DC04091360120917E05ED
:1009300030917F052F5F3F4F2F733070809180057E
:10094000909181052817390771F0E0917E05F091AB
:100950007F05E25CFA4F408330937F0520937E054C
:1009600002C080913601FF91EF919F918F914F913D
:100970003F912F910F900BBE0F900FBE0F901F90C5
:100980001895E091D205F091D305E05CFF4F81917D
:10099000919120813181821B930B8F739070892BF1
:1009A00011F00E94C103E091F405F091F505E05CBF
:1009B000FF4F8191919120813181821B930B8F7325
:1009C0009070892B11F00E940104E0911606F091BD
:1009D0001706E05CFF4F8191919120813181821B4C
:1009E000930B8F739070892B11F00E944104E0915A
:1009F0003806F0913906E05CFF4F8191919120819A
:100A00003181821B930B8F739070892B11F00E94A0
:100A1000810408951F920F920FB60F920BB60F929A
:100A200011242F933F938F939F93EF93FF932091E4
:100A30002A0430912B0480912C0490912D042817C6
:100A4000390731F48091C1008F7D8093C10014C0BB
:100A5000E0912C04F0912D04E651FC4F208180910F
:100A60002C0490912D0401968F73907090932D0417
:100A700080932C042093C600FF91EF919F918F915A
:100A80003F912F910F900BBE0F900FBE0F901F90B4
:100A900018951F920F920FB60F920BB60F9211245A
:100AA0002F933F938F939F93EF93FF932091B204E3
:100AB0003091B3048091B4049091B504281739079C
:100AC00031F48091C9008F7D8093C90014C0E091FA
:100AD000B404F091B504EE58FB4F20818091B4042A
:100AE0009091B50401968F7390709093B5048093A4
:100AF000B4042093CE00FF91EF919F918F913F918D
:100B00002F910F900BBE0F900FBE0F901F90189556
:100B10001F920F920FB60F920BB60F9211242F93C4
:100B20003F938F939F93EF93FF9320913A053091DA
:100B30003B0580913C0590913D052817390731F41C
:100B40008091D1008F7D8093D10014C0E0913C054D
:100B5000F0913D05E650FB4F208180913C0590913E
:100B60003D0501968F73907090933D0580933C05F1
:100B70002093D600FF91EF919F918F913F912F91FC
:100B80000F900BBE0F900FBE0F901F9018951F92E5
:100B90000F920FB60F920BB60F9211242F933F9323
:100BA0008F939F93EF93FF932091C2053091C305DC
:100BB0008091C4059091C5052817390731F48091BB
:100BC00031018F7D8093310114C0E091C405F09113
:100BD000C505EE57FA4F20818091C4059091C50557
:100BE00001968F7390709093C5058093C4052093F0
:100BF0003601FF91EF919F918F913F912F910F902F
:100C00000BBE0F900FBE0F901F901895AF92BF9222
:100C1000DF92EF92FF920F931F93CF93DF93EC013C
:100C20007A018B01DD24403081EE580780E06807AF
:100C300080E0780711F0DD24D39491E0A92EB12C47
:100C4000EC89FD89DD2069F0C50108A002C0880F8C
:100C5000991F0A94E2F7808360E079E08DE390E0E9
:100C600005C0108260E874E88EE190E0A801970169
:100C70000E94C31221503040404050405695479545
:100C80003795279580E12030380720F0DD2011F0DE
:100C9000DD24D6CFE889F9893083EA89FB8920836E
:100CA00019A2EE89FF89408121E030E0C9010C8C56
:100CB00002C0880F991F0A94E2F7482B4083EE89FF
:100CC000FF894081C9010D8C02C0880F991F0A94C9
:100CD000E2F7482B4083EE89FF894081C9010E8CE1
:100CE00002C0880F991F0A94E2F7482B4083EE89CF
:100CF000FF8980810F8C02C0220F331F0A94E2F714
:100D0000209528232083DF91CF911F910F91FF9091
:100D1000EF90DF90BF90AF900895DC011C96ED91AD
:100D2000FC911D97E05CFF4F219131918081918171
:100D3000281B390B2F733070C9010895DC011C96F4
:100D4000ED91FC911D97E05CFF4F20813181E054D3
:100D5000F040DF01AE5BBF4F8D919C91119728173A
:100D6000390719F42FEF3FEF07C08D919C91E80FE1
:100D7000F91F8081282F30E0C9010895DC011C96FD
:100D8000ED91FC911D97E05CFF4F20813181E05493
:100D9000F040DF01AE5BBF4F8D919C9111972817FA
:100DA000390719F42FEF3FEF10C08D919C911197E7
:100DB000E80FF91F20818D919C91119701968F73F7
:100DC000907011969C938E9330E0C9010895DC01D8
:100DD00091968C919197882339F05496ED91FC91DE
:100DE0005597808186FFF9CF91961C920895CF93F5
:100DF000DF93EC01EE85FF85E05CFF4F20813181C0
:100E0000E054F0402F5F3F4F2F733070DF01AE5B37
:100E1000BF4F8D919C91119728173907D1F3E05C52
:100E2000FF4F80819181E054F040E80FF91F60830B
:100E3000EE85FF85E05CFF4F31832083EE89FF89DB
:100E4000208181E090E00F8C02C0880F991F0A94E6
:100E5000E2F7282B208381E089A3EC89FD8980813A
:100E60008064808381E090E0DF91CF9108951F93AB
:100E70001092C9051092C80528EE33E040E050E01A
:100E80002093CA053093CB054093CC055093CD05F4
:100E900065EB72E07093C7056093C60586EA93E040
:100EA0009093D3058093D2058AEE93E09093D50575
:100EB0008093D40585EC90E09093D7058093D60578
:100EC00084EC90E09093D9058093D80580EC90E075
:100ED0009093DB058093DA0581EC90E09093DD053B
:100EE0008093DC0582EC90E09093DF058093DE0533
:100EF00086EC90E09093E1058093E00514E0109378
:100F0000E205B3E0B093E305A7E0A093E405F5E0C4
:100F1000F093E505E1E0E093E6051092EB05109211
:100F2000EA052093EC053093ED054093EE055093D0
:100F3000EF057093E9056093E8058EE294E09093E5
:100F4000F5058093F40582E794E09093F70580938C
:100F5000F6058DEC90E09093F9058093F8058CEC04
:100F600090E09093FB058093FA0588EC90E09093D5
:100F7000FD058093FC0589EC90E09093FF0580933C
:100F8000FE058AEC90E090930106809300068EECBB
:100F900090E0909303068093020610930406B093AA
:100FA0000506A0930606F0930706E0930806109244
:100FB0000D0610920C0620930E0630930F064093F8
:100FC00010065093110670930B0660930A0686EB89
:100FD00094E090931706809316068AEF94E090931E
:100FE00019068093180685ED90E090931B06809378
:100FF0001A0684ED90E090931D0680931C0680ED08
:1010000090E090931F0680931E0681ED90E09093F0
:1010100021068093200682ED90E090932306809332
:10102000220686ED90E09093250680932406109387
:101030002606B0932706A0932806F0932906E0938E
:101040002A0610922F0610922E0620933006309317
:101050003106409332065093330670932D06609309
:101060002C068EE395E0909339068093380682E84B
:1010700095E090933B0680933A0685E391E0909348
:101080003D0680933C0684E391E090933F06809375
:101090003E0680E391E0909341068093400681E311
:1010A00091E0909343068093420682E391E090930F
:1010B00045068093440686E391E09093470680932B
:1010C000460610934806B0934906A0934A06F0934B
:1010D0004B06E0934C061F910895CF92DF92EF925A
:1010E000FF920F931F93CF93DF937C016B018A01D3
:1010F000C0E0D0E00FC0D6016D916D01D701ED9138
:10110000FC910190F081E02DC7011995C80FD91FFE
:10111000015010400115110571F7CE01DF91CF91FB
:101120001F910F91FF90EF90DF90CF900895EF9275
:10113000FF920F931F938C01DC01ED91FC910190C4
:10114000F081E02D6DE019957C01D801ED91FC91C5
:101150000190F081E02DC8016AE019959C012E0DE7
:101160003F1DC9011F910F91FF90EF900895CF93FC
:10117000DF93EC016115710519F420E030E00FC038
:10118000DB010D900020E9F71197A61BB70BE88152
:10119000F9810280F381E02DAD0119959C01C9010F
:1011A000DF91CF9108954F925F927F928F929F929D
:1011B000AF92BF92CF92DF92EF92FF920F931F9365
:1011C000DF93CF93CDB7DEB7A1970FB6F894DEBF0C
:1011D0000FBECDBF2C01742ECB01223008F42AE0C3
:1011E00019A231E2C32ED12CCC0EDD1E822E992401
:1011F000AA24BB24672D752FA50194010E94C31258
:1012000079018A01C801B701A50194010E94A412C5
:10121000472D461B0894C108D1084A3014F4405D9C
:1012200001C0495CF6014083E114F1040105110598
:1012300021F07E2C5F2DC801DDCFC201B6010E94D6
:10124000B708A1960FB6F894DEBF0FBECDBFCF9101
:10125000DF911F910F91FF90EF90DF90CF90BF90A3
:10126000AF909F908F907F905F904F900895CF9216
:10127000DF92EF92FF920F931F93CF93DF93EC01D6
:101280006A017B012115310541F4E881F981019062
:10129000F081E02D642F19951FC02A303105D1F45B
:1012A00077FF17C0E881F9810190F081E02D6DE2B0
:1012B00019958C0144275527BA014C195D096E090F
:1012C0007F09CE012AE00E94D3089801280F391F18
:1012D00004C02AE00E94D3089C01C901DF91CF918C
:1012E0001F910F91FF90EF90DF90CF900895EF92B4
:1012F000FF920F931F937B019A010027F7FC009543
:10130000102FB801A7010E9437091F910F91FF907C
:10131000EF9008950E94B7080895EF92FF920F93FF
:101320001F937C010E94B7088C01C7010E94970897
:10133000080F191FC8011F910F91FF90EF9008959A
:10134000883008F078C0E82FF0E0EE0FFF1FE25B76
:10135000F94F718360838330D9F0843030F4813069
:1013600009F444C0823060F439C0853051F18530D1
:10137000D8F0863009F446C0873009F05CC04FC011
:10138000809169008C7F842B80936900E89A08958E
:1013900080916900440F551F440F551F837F842B94
:1013A00080936900E99A08958091690074E0440F80
:1013B000551F7A95E1F78F7C842B80936900EA9A18
:1013C00008958091690066E0440F551F6A95E1F722
:1013D0008F73842B80936900EB9A089580916A0043
:1013E0008C7F842B80936A00EC9A089580916A0028
:1013F000440F551F440F551F837F842B80936A0031
:10140000ED9A089580916A0024E0440F551F2A95B3
:10141000E1F78F7C842B80936A00EE9A0895809187
:101420006A0096E0440F551F9A95E1F78F73842B5D
:1014300080936A00EF9A08951F920F920FB60F9251
:101440000BB60F9211242F933F934F935F936F939B
:101450007F938F939F93AF93BF93EF93FF9380916D
:10146000520690915306892B29F0E0915206F09193
:1014700053061995FF91EF91BF91AF919F918F9175
:101480007F916F915F914F913F912F910F900BBE84
:101490000F900FBE0F901F9018951F920F920FB6CE
:1014A0000F920BB60F9211242F933F934F935F939C
:1014B0006F937F938F939F93AF93BF93EF93FF931C
:1014C0008091540690915506892B29F0E09154069D
:1014D000F09155061995FF91EF91BF91AF919F91B2
:1014E0008F917F916F915F914F913F912F910F90CD
:1014F0000BBE0F900FBE0F901F9018951F920F926A
:101500000FB60F920BB60F9211242F933F934F9368
:101510005F936F937F938F939F93AF93BF93EF935B
:10152000FF938091560690915706892B29F0E09100
:101530005606F09157061995FF91EF91BF91AF9123
:101540009F918F917F916F915F914F913F912F91DB
:101550000F900BBE0F900FBE0F901F9018951F920B
:101560000F920FB60F920BB60F9211242F933F9349
:101570004F935F936F937F938F939F93AF93BF939B
:10158000EF93FF938091580690915906892B29F08B
:10159000E0915806F09159061995FF91EF91BF918E
:1015A000AF919F918F917F916F915F914F913F91FB
:1015B0002F910F900BBE0F900FBE0F901F9018959C
:1015C0001F920F920FB60F920BB60F9211242F930A
:1015D0003F934F935F936F937F938F939F93AF93BB
:1015E000BF93EF93FF9380914E0690914F06892B06
:1015F00029F0E0914E06F0914F061995FF91EF9179
:10160000BF91AF919F918F917F916F915F914F911A
:101610003F912F910F900BBE0F900FBE0F901F9018
:1016200018951F920F920FB60F920BB60F921124BE
:101630002F933F934F935F936F937F938F939F93DA
:10164000AF93BF93EF93FF93809150069091510613
:10165000892B29F0E0915006F09151061995FF91E0
:10166000EF91BF91AF919F918F917F916F915F911A
:101670004F913F912F910F900BBE0F900FBE0F9087
:101680001F9018951F920F920FB60F920BB60F92E4
:1016900011242F933F934F935F936F937F938F9377
:1016A0009F93AF93BF93EF93FF9380915A069091CE
:1016B0005B06892B29F0E0915A06F0915B0619959B
:1016C000FF91EF91BF91AF919F918F917F916F911A
:1016D0005F914F913F912F910F900BBE0F900FBED6
:1016E0000F901F9018951F920F920FB60F920BB686
:1016F0000F9211242F933F934F935F936F937F9398
:101700008F939F93AF93BF93EF93FF9380915C066A
:1017100090915D06892B29F0E0915C06F0915D06C1
:101720001995FF91EF91BF91AF919F918F917F910B
:101730006F915F914F913F912F910F900BBE0F9042
:101740000FBE0F901F901895CF93DF930E94540CFB
:101750000E94C502C1ECD4E00E94C0022097E1F3D0
:101760000E94C104F9CF1F920F920FB60F9211245D
:101770002F933F938F939F93AF93BF938091620674
:1017800090916306A0916406B0916506309166065B
:101790000196A11DB11D232F2D5F2D3720F02D5750
:1017A0000196A11DB11D2093660680936206909359
:1017B0006306A0936406B093650680915E069091DF
:1017C0005F06A0916006B09161060196A11DB11D52
:1017D00080935E0690935F06A0936006B0936106C7
:1017E000BF91AF919F918F913F912F910F900FBE1D
:1017F0000F901F9018959B01AC017FB7F8948091D2
:101800005E0690915F06A0916006B091610666B594
:10181000A89B05C06F3F19F00196A11DB11D7FBFA8
:10182000BA2FA92F982F8827860F911DA11DB11DB2
:1018300062E0880F991FAA1FBB1F6A95D1F7BC01F0
:101840002DC0FFB7F89480915E0690915F06A0913D
:101850006006B0916106E6B5A89B05C0EF3F19F0A0
:101860000196A11DB11DFFBFBA2FA92F982F882760
:101870008E0F911DA11DB11DE2E0880F991FAA1FB7
:10188000BB1FEA95D1F7861B970B885E9340C8F281
:10189000215030404040504068517C4F2115310567
:1018A0004105510571F60895789484B5826084BD30
:1018B00084B5816084BD85B5826085BD85B5816054
:1018C00085BDEEE6F0E0808181608083E1E8F0E0B4
:1018D0001082808182608083808181608083E0E8E3
:1018E000F0E0808181608083E1EBF0E080818460C2
:1018F0008083E0EBF0E0808181608083E1E9F0E0CB
:10190000808182608083808181608083E0E9F0E073
:10191000808181608083E1EAF0E080818260808361
:10192000808181608083E0EAF0E080818160808353
:10193000E1E2F1E080818260808380818160808348
:10194000E0E2F1E0808181608083EAE7F0E080817D
:1019500084608083808182608083808181608083D5
:101960008081806880831092C1000895382F86336B
:1019700008F0365320917B00832F869586958695B7
:1019800090E08170907043E0880F991F4A95E1F7CD
:10199000277F282B20937B0037708091B00282959F
:1019A000880F880F807C832B80937C0080917A0045
:1019B000806480937A0080917A0086FDFCCF20912C
:1019C000780040917900942F80E030E0282B392B6B
:1019D000C90108951F93CF93DF93182FEB0161E0A6
:1019E0000E94CA0D209709F4CAC0CF3FD10509F45F
:1019F000C9C0E12FF0E0E254FE4F8491893009F430
:101A000066C08A30B0F48430F1F1853040F4823021
:101A100059F1833070F5813009F0AEC020C08730B5
:101A200009F443C0883008F048C0863009F0A4C0EB
:101A300034C08D3009F478C08E3038F48B3009F41E
:101A40005AC08C3008F066C04CC0803109F480C0A8
:101A5000813109F487C08F3009F08EC06FC084B522
:101A6000806884BDC7BD92C084B5806284BDC8BD96
:101A70008DC080918000806880938000D093890021
:101A8000C093880083C08091800080628093800032
:101A9000D0938B00C0938A0079C08091B000806899
:101AA0008093B000C093B30071C08091B000806299
:101AB0008093B000C093B40069C0809190008068AA
:101AC00080939000D0939900C09398005FC080915C
:101AD0009000806280939000D0939B00C0939A0006
:101AE00055C080919000886080939000D0939D00B5
:101AF000C0939C004BC08091A00080688093A000A0
:101B00008091A0008F7B8093A000D093A900C09308
:101B1000A8003CC08091A00080628093A000D09378
:101B2000AB00C093AA0032C08091A000886080936F
:101B3000A000D093AD00C093AC0028C080912001DC
:101B4000806880932001D0932901C09328011EC092
:101B500080912001806280932001D0932B01C0935B
:101B60002A0114C080912001886080932001D093C5
:101B70002D01C0932C010AC0C038D1051CF4812F5F
:101B800060E002C0812F61E00E947D0EDF91CF9165
:101B90001F910895CF93DF93482F50E0CA018858D2
:101BA0009E4FFC0134914E5C5E4FFA018491882374
:101BB00069F190E0880F991FFC01EC51FF4FA5914E
:101BC000B491FC01E250FF4FC591D491662351F4CA
:101BD0002FB7F8948C91932F909589238C938881BB
:101BE00089230BC0623061F42FB7F8948C91932F46
:101BF000909589238C938881832B88832FBF06C07F
:101C00009FB7F8948C91832B8C939FBFDF91CF91DA
:101C10000895893009F449C08A30A0F4843051F124
:101C2000853040F4823079F1833000F5813009F05D
:101C300063C026C0873079F1883098F5863009F086
:101C40005BC025C08D3009F442C08E3028F48B3043
:101C5000B1F18C30C0F52DC0803109F442C0813122
:101C600009F445C08F3009F047C037C0809180002B
:101C70008F7703C0809180008F7D809380000895CE
:101C800084B58F7702C084B58F7D84BD089580911F
:101C9000B0008F7703C08091B0008F7D8093B0003B
:101CA0000895809190008F7707C0809190008F7D7C
:101CB00003C080919000877F809390000895809169
:101CC000A0008F7707C08091A0008F7D03C0809116
:101CD000A000877F8093A0000895809120018F77D6
:101CE00003C0809120018F7D809320010895809111
:101CF0002001877F809320010895FF920F931F9307
:101D0000F62E482F50E0CA0182549E4FFC012491C8
:101D1000CA0188589E4FFC0114914E5C5E4FFA0137
:101D200004910023C9F0222319F0822F0E94090E8A
:101D3000E02FF0E0EE0FFF1FE250FF4FA591B491AE
:101D40009FB7F894FF2021F48C911095812302C055
:101D50008C91812B8C939FBF1F910F91FF900895C1
:101D60000F931F93482F50E0CA0182549E4FFC01ED
:101D70002491CA0188589E4FFC0104914E5C5E4F2D
:101D8000FA011491112319F420E030E015C0222348
:101D900019F0822F0E94090E812F90E0880F991F61
:101DA000885E9E4FFC01A591B4918C9120E030E0BB
:101DB000802311F021E030E0C9011F910F910895B7
:101DC000FC01E053FF4F7183608308950F931F93CD
:101DD000CF93DF93EC018A018A8D9B8D8A30910528
:101DE00034F5880F991F9C0143E0220F331F4A9559
:101DF000E1F7820F931F4C968C0F9D1F40E150E03E
:101E00000E946001EA8DFB8DEE0FFF1FCF0123E0E2
:101E1000880F991F2A95E1F7E80FF91FEC0FFD1FB6
:101E200015A704A78A8D9B8D01969B8F8A8FDF91C2
:101E3000CF911F910F910895BC01AC01485E5F4F97
:101E400080E090E06D5E7F4F0E946F0108952F92B9
:101E50003F924F925F926F927F928F929F92AF923A
:101E6000BF92CF92DF92EF92FF920F931F93DF9377
:101E7000CF9300D00F92CDB7DEB79C838B830196B2
:101E80009A838983B3E12B2E312C8B819C81280E80
:101E9000391EA8E14A2E512C480E591EF2ED6F2E24
:101EA000712C680E791EE0ED8E2E912C880E991EF5
:101EB00098C0D3018D919C91892B39F486EC95E0E3
:101EC0000E94BE06EB81FC818083AB81BC819C912A
:101ED00055968C915597981709F05FC052961C92B1
:101EE0001E92519789819A81B101A2010E946F01CE
:101EF0006C01EB81FC81978B868B009709F481C084
:101F0000A28CB38CEE24FF2435C0C701880F991F23
:101F10008C0163E0000F111F6A95E1F7080F191F8C
:101F2000B801645E7F4F8B819C81680F791FC60169
:101F300040E150E00E9452010097C9F4F801AB81E2
:101F4000BC81EA0FFB1F04A4F5A5E02D199581E0E3
:101F500090E0EB81FC81E80FF91F1082019681313E
:101F60009105B9F7EB81FC81128A118A16C0089499
:101F7000E11CF11CEA14FB0444F23CC0EB81FC813F
:101F8000E80FF91F1082019681319105B9F7AB81F5
:101F9000BC8152961C921E925197EB81FC8110815C
:101FA000812F992787FD90950E94ED12892BC9F00A
:101FB000AB81BC8151968D919C915297FD01E80FA8
:101FC000F91F1183019652969C938E935197FD01B0
:101FD000E80FF91F1182409724F052961C921E922E
:101FE000519786EC95E00E948D06181619060CF4A0
:101FF00060CF07C0D401ED91FC91199581E090E08C
:10200000BDCF0F900F900F900F90CF91DF911F9148
:102010000F91FF90EF90DF90CF90BF90AF909F9087
:102020008F907F906F905F904F903F902F9008958A
:10203000DC01AE52BF4F11961C921E92A25DB040C1
:1020400080E290E054969C938E9353978DE0559642
:102050008C9355975B961C921E925A9781E090E064
:10206000FD01E80FF91F1082019681319105C1F73A
:1020700052961C921E92519708950F931F93CF93DF
:10208000DF93DC011C962C931C976C9311964C9358
:102090001197262F30E088E791E0FC01E20FF31F53
:1020A000E4911296EC93129750E0840F951FFC0177
:1020B000849113968C931397C2E3D1E02C0F3D1FAC
:1020C000F901249130E0220F331F0EEF10E0B80128
:1020D000620F731FFB018591949115969C938E93CB
:1020E000149764EE70E0260F371FF90185919491E3
:1020F00019969C938E931897C40FD51FFE01849157
:1021000090E0880F991FF801E80FF91F259134918D
:1021100017963C932E931697FB01E80FF91F8591B4
:1021200094911B969C938E931A97DF91CF911F9158
:102130000F910895DC0112969C911297662391F0FD
:102140001896ED91FC911997808190959823908332
:102150001C968C911C978823B9F01496ED91FC91F4
:1021600015970CC01496ED91FC9115978081909570
:10217000982390831896ED91FC911997808112967F
:102180009C911297892B80831A96ED91FC911B9755
:10219000908113968C9113978095892380831C9648
:1021A0008C911C97882351F01696ED91FC9117970E
:1021B000808113969C911397892B808328EC30E0C3
:1021C000C9010197F1F71696ED91FC91179790814F
:1021D00013968C9113978095892380831A96ED919D
:1021E000FC911B97808113969C911397892B808378
:1021F000C9010197F1F76623A1F01496ED91FC91C6
:102200001597908112968C911297809589238083DF
:102210001896ED91FC911997808112969C91892BCB
:10222000808388EC90E00197F1F70895CF93DF93D6
:10223000DC011896ED91FC911997908112968C9182
:1022400012978095892380831C968C911C978823F4
:1022500051F01496ED91FC911597808112969C9106
:102260001297892B80831A96ED91FC911B97908190
:1022700013968C9113978095892380831C968C915B
:102280001C97882351F01696ED91FC911797808149
:1022900013969C911397892B808348EC50E0CA01D8
:1022A0000197F1F7EC91F0E0EE5CFE4FE4918E2F98
:1022B00090E0880F991F885E9E4FFC01C591D491D4
:1022C00028811696ED91FC911797908113968C9129
:1022D00013978095892380831A96ED91FC911B9723
:1022E000808113969C911397892B8083CA01019753
:1022F000F1F740E030E012968C9190E028233923EA
:10230000232B09F041E0842FDF91CF910895DC0168
:102310001896ED91FC911997908112968C911297D5
:102320008095892380831C968C911C97882351F07B
:102330001496ED91FC911597808112969C911297BD
:10234000892B80831A96ED91FC911B9790811396AF
:102350008C9113978095892380831C968C911C9770
:10236000882349F01696ED91FC911797808113967A
:102370009C91892B808388EC90E00197F1F7089578
:102380000F931F938C010E943D10C8010E9487117A
:102390001F910F910895DC011896ED91FC9119970A
:1023A000908112968C9112978095892380831C9638
:1023B0008C911C97882351F01496ED91FC91159700
:1023C000808112969C911297892B80831A96ED91A9
:1023D000FC911B97908113968C911397809589237C
:1023E00080831C968C911C97882351F01696ED9152
:1023F000FC911797808113969C911397892B80836A
:1024000028EC30E0C9010197F1F71496ED91FC91A9
:102410001597908112968C911297809589238083CD
:102420001896ED91FC911997808112969C911297C4
:10243000892B8083C9010197F1F71696ED91FC91E4
:102440001797908113968C91139780958923808399
:102450001A96ED91FC911B97808113969C91892B84
:102460008083C9010197F1F70895DC011A96ED9177
:10247000FC911B97908113968C91139780958923DB
:1024800080831C968C911C97882351F01696ED91B1
:10249000FC911797808113969C911397892B8083C9
:1024A00088EC90E00197F1F71896ED91FC9119975F
:1024B000908112968C9112978095892380831C9627
:1024C0008C911C97882349F01496ED91FC911597F7
:1024D000808112969C91892B808388EC90E00197F3
:1024E000F1F708950E94351280E008950F931F932D
:1024F000CF93DF93EC01062F10E0602F6078CE01C0
:102500000E949A10000F1F5F1830B9F7CE010E9489
:102510001611DF91CF911F910F9108950E947612AD
:102520000895EF92FF921F937C01162F0E94CB110A
:10253000110FC701612F0E9476121F91FF90EF903B
:1025400008950E9491120895629FD001739FF00137
:10255000829FE00DF11D649FE00DF11D929FF00D33
:10256000839FF00D749FF00D659FF00D9927729F6A
:10257000B00DE11DF91F639FB00DE11DF91FBD01F5
:10258000CF0111240895A1E21A2EAA1BBB1BFD0145
:102590000DC0AA1FBB1FEE1FFF1FA217B307E40742
:1025A000F50720F0A21BB30BE40BF50B661F771F9A
:1025B000881F991F1A9469F760957095809590957A
:1025C0009B01AC01BD01CF010895EE0FFF1F0590E7
:1025D000F491E02D1994803209F0911104C08052D9
:1025E0008F55E0F70895992788270895F894FFCF2D
:1025F00073657453696E676C65205B302E2E3135C0
:102600005D205B312F305D00736574416C6C205B25
:10261000302E2E3235355D205B302E2E3235355D35
:102620000072656164454F4C73656E736F72730021
:1026300072656164456E636F64657273006265659F
:1026400070006175746F52656164006175746F54D8
:10265000657374002020454E435F413A200048498D
:102660004748004C4F57002020454E435F423A20D8
:10267000002020454E435F433A20002020454F4C28
:102680005F4C3A20002020454F4C5F523A200073A7
:10269000657453696E676C6500736574416C6C009A
:1026A0000100000000F7066D088D06BE069E06E7D5
:0226B000060022
:00000001FF
