:100000000C9404010C9420080C9451080C94820860
:100010000C94B3080C94E4080C9415090C9446094C
:100020000C9477090C942F010C942F010C942F0140
:100030000C942F010C942F010C942F010C942F0180
:100040000C942F010C942F010C942F010C942F0170
:100050000C942F010C942F010C942F010C94A106E9
:100060000C942F010C94610C0C94B90D0C942F017D
:100070000C942F010C942F010C942F010C942F0140
:100080000C942F010C942F010C942F010C942F0130
:100090000C94A10C0C94F80D0C942F010C942F01CE
:1000A0000C942F010C942F010C942F010C942F0110
:1000B0000C942F010C942F010C942F010C942F0100
:1000C0000C942F010C942F010C942F010C94E10C33
:1000D0000C94370E0C942F010C94210D0C94760E79
:1000E0000C942F0100002100240027002A002D007D
:1000F0003000330001010000040107010A01000083
:100100002200250028002B002E00310034000201BF
:100110000000050108010B0100002000230026005B
:1001200029002C002F00320000010000030106010D
:10013000090105050505070508080808020202026D
:100140000A0A080804040404010101010101010173
:100150000303030303030303040707070C0C0C0C3E
:100160000C0C0C0C02020202060606060606060627
:100170000B0B0B0B0B0B0B0B0102102020080810B4
:100180002040102040800201020108040201010207
:1001900004081020408080402010080402018004E0
:1001A000020180402010080402010804020101023B
:1001B0000408102040800102040810204080000044
:1001C000090A02080B0C0D070603040100000000D9
:1001D000000000000000000000000000000000001F
:1001E0000000000000000000000011100F000000DF
:1001F00000000000000000000000000000000000FF
:10020000000000004F03E90F11241FBECFEFD1E221
:10021000DEBFCDBF12E0A0E0B2E0EEEAF7E200E020
:100220000BBF02C007900D92AA31B107D9F71BBED0
:1002300015E0AAE1B2E001C01D92AC30B107E1F7D0
:1002400012E0C8E0D2E004C02297FE010E94D11360
:10025000C430D107C9F70E944F0C0C94D5130C94ED
:100260000000CF93DF93BC018230910510F462E06F
:1002700070E0A0910A05B0910B05ED0140E050E05F
:10028000E0E0F0E021C0888199818617970769F442
:100290008A819B81309719F09383828304C0909365
:1002A0000B0580930A05FE0134C06817790738F4FE
:1002B0004115510519F08417950708F4AC01FE01AA
:1002C0008A819B819C01E9012097E9F6411551053E
:1002D000A9F1CA01861B970B049708F4BA01E0E064
:1002E000F0E02AC08D919C91119784179507F9F43D
:1002F0006417750781F412968D919C91139730972E
:1003000019F09383828304C090930B0580930A05B0
:10031000FD0132964CC0CA01861B970BFD01E80F08
:10032000F91F6193719302978D939C9340C0FD01D7
:10033000828193819C01D9011097A1F680910805D3
:1003400090910905892B41F4809104029091050256
:100350009093090580930805409106025091070289
:100360004115510541F44DB75EB78091020290915D
:100370000302481B590B2091080530910905CA0159
:10038000821B930B8617970780F0AB014E5F5F4F80
:100390008417950750F0420F531F5093090540935F
:1003A0000805F9016193719302C0E0E0F0E0CF012C
:1003B000DF91CF910895CF93DF93009709F450C058
:1003C000EC0122971B821A82A0910A05B0910B05BD
:1003D000109709F140E050E0AC17BD0708F1BB836E
:1003E000AA83FE0121913191E20FF31FAE17BF07DF
:1003F00079F48D919C911197280F391F2E5F3F4FF3
:100400003983288312968D919C9113979B838A83BD
:100410004115510571F4D0930B05C0930A0520C016
:1004200012968D919C911397AD01009711F0DC010C
:10043000D3CFFA01D383C28321913191E20FF31F0D
:10044000CE17DF0769F488819981280F391F2E5F45
:100450003F4FFA01318320838A819B81938382837A
:10046000DF91CF9108950F931F9380E894E040E0CF
:1004700052EC61E070E00E94B50E82E060E00E9404
:10048000A80983E060E00E94A80984E060E00E947F
:10049000A80985E061E00E94A80986E061E00E9469
:1004A000A80985E061E00E945B0A86E061E00E94A5
:1004B0005B0A87E060E00E94A80980E06DEA72E0D4
:1004C00041E050E00E94A40788E190E00E94D20B36
:1004D000182F092F0E944E0610931A0200931B0238
:1004E0001F910F9108950F931F93CF93DF9362E3B2
:1004F00070E080E090E00E94E90680E894E00E94CD
:10050000700F082FCCE1D2E080E894E00E94700FD9
:100510008095899382E0C533D807B1F780E894E0ED
:100520000E94700F182F80E894E00E94700F809155
:100530001A0290911B02602F0E942805882341F027
:1005400010FF06C080911A0290911B020E945D0468
:10055000DF91CF911F910F91089580911A02909190
:100560001B020E9425060895FF920F931F9380910E
:100570001A0290911B020E945304F82E00E814E026
:10058000C80164EC0E94A90FC8016F2D0E94A90F39
:10059000C80160E072E00E943B0C1F910F91FF9038
:1005A00008950F931F9300E814E0C80163EC0E94C4
:1005B000A90FC80164E00E94A90FC80160E00E9471
:1005C000A90FC8016AE50E94A90FC80160E072E0A6
:1005D0000E943B0C1F910F9108951F9362E370E0FE
:1005E00080E090E00E94E90680E894E00E94700FAD
:1005F000182F80E894E00E94700F482FECE1F2E0A1
:100600008FEF819392E0E533F907D9F779978091DD
:100610001A0290911B02612F9F010E940A06182F57
:1006200080E894E061EC0E94A90F80E894E0612FDB
:100630000E94A90F80E894E060E072E00E943B0C09
:100640001F91089580911A0290911B020E94EF055C
:1006500080E894E00E943C0F892BD9F080E894E078
:100660000E94700F833081F0843018F4813089F457
:1006700005C0843061F0823461F403C00E94ED0251
:1006800008950E94730208950E94D10208950E9465
:10069000B4020895FC01118210820895089585E343
:1006A00092E06AE34BE321E00E94A2120895EF92E8
:1006B000FF920F931F93162F072F85E3E82E82E0FA
:1006C000F82EC70160E270E00E948313C701612F1A
:1006D0000E947013C7010E945413C70161E270E0C9
:1006E0000E948313C701602F0E947013C7010E94EC
:1006F00054131F910F91FF90EF900895FC017183A7
:1007000060830E9457030895FC01603140F5208109
:100710003181442371F081E090E0A0E0B0E004C0BA
:10072000880F991FAA1FBB1F6A95D2F7282B392B58
:100730000FC081E090E0A0E0B0E004C0880F991FF6
:10074000AA1FBB1F6A95D2F780959095282339235D
:100750003183208360817181CF010E945703089506
:10076000FC01108211821282138214820895FC010E
:1007700084810895FC0182810895FC01808108959F
:10078000FC0181810895FC0183810895613029F085
:10079000623029F020E030E006C081E001C080E056
:1007A0000E94BE0A9C01C9010895CF93DF93EC011A
:1007B00088818130D1F48C81882311F081508C8321
:1007C00080E00E94BE0A8955924078F082E08983D9
:1007D00081E08B8384E00E948E0A892B11F481E0F2
:1007E00001C082E08A8383EE8C83DF91CF910895EC
:1007F000CF93DF93EC0183E00E948E0A892B11F4E2
:1008000081E001C082E08883823049F58C818F3F8E
:1008100011F08F5F8C8381E00E94BE0A9C01885C8E
:10082000904081599140D8F081E08983283C31057E
:1008300008F482E08B8384E00E948E0A892B11F4F5
:1008400082E001C081E08A83813019F486E061E0B2
:1008500002C086E060E00E945B0A8CE18C83DF913D
:10086000CF9108951F93CF93DF93EC01198282E01B
:100870000E948E0A10E0892B09F011E0809142025B
:10088000882331F4112349F0CE010E94F80305C0FA
:10089000112319F4CE010E94D50310934202DF9177
:1008A000CF911F910895FC018085823010F080E087
:1008B000089583E0808781E0089521E0FC0121878D
:1008C0000895FC0182898130E1F08230A1F58189AF
:1008D000883288F18852878B885D9489913011F431
:1008E0008F7008C0923039F490E0089760E170E0B2
:1008F0000E948613868B85898230F9F48789885F08
:1009000017C08189803FB8F48051878B805F9489BC
:10091000913029F490E008968F70907003C0923067
:1009200011F48F70868B8589823039F487898051E4
:10093000878B81E0089580E0089581E00895AF926B
:10094000BF92DF92EF92FF920F931F935C01F62EFE
:1009500000E814E0C80164E80E94A90FC8016F2DE7
:100960000E94A90F82E0E82EF12CEA0CFB1CC701C3
:1009700061E00E94C603D82E692FC8010E94A90F0A
:10098000C8016D2D0E94A90FC70162E00E94C60335
:10099000D82E692FC8010E94A90FC8016D2D0E9491
:1009A000A90FC7010E94C303682FC8010E94A90FA5
:1009B000C801F50167890E94A90FC80161E072E0D2
:1009C0000E943B0C1F910F91FF90EF90DF90BF9022
:1009D000AF900895CF92DF92FF920F931F936C0117
:1009E000F62E00E814E0C80162E80E94A90FC801D1
:1009F0006F2D0E94A90FC80161E072E00E943B0CBC
:100A000081E0F60185871F910F91FF90DF90CF90D5
:100A10000895CF93DF93EC01998980914302891760
:100A200029F090934302CE010E94610464EF71E0CB
:100A300080E090E00E94E906CE0160E00E949F0401
:100A4000DF91CF91089585E060E00E945B0A0895F0
:100A5000FC01962F8585882371F06685961739F4F9
:100A60001586CF0107960E94990681E00895CF016F
:100A70000E94EA0480E00895EF92FF920F931F9383
:100A8000CF93DF93EC0185E061E00E945B0A8091E7
:100A90000802882391F01092080260ED77E080E070
:100AA00090E00E94E906CE0107960E9499066E85A5
:100AB0006F5F6E87CE010E94EA049989809145029A
:100AC000891709F466C090934502CE010E94610423
:100AD000882309F45EC04F89242F30E08B8590E095
:100AE0008097281739073CF18C8590E00C96821787
:100AF00093070CF181E08093440246954695469514
:100B0000842F90E0EF85F889E80FF91F408150E0CD
:100B100063E0880F991F6A95E1F7281B390B02C023
:100B2000559547952A95E2F741705070CE016E8930
:100B30000E9484032EC0FC2EED2ECE016E8941E072
:100B40000E94840380914402882319F11092440288
:100B50008D85882351F48985882339F46E856F5FEC
:100B60006E87CE010E94EA0414C08985882389F02B
:100B70008E01095F1F4FC8010E94950681E088879A
:100B80008F2D9E2D6FEF7FEF0E947E03C8010E9484
:100B90009906DF91CF911F910F91FF90EF900895EB
:100BA000CF93DF93EC018A89823029F48B898130DD
:100BB00011F48093460280914602882361F081E01F
:100BC0008887CE016FEF7FEF0E947E03CE0161E048
:100BD0000E949F0401C01886DF91CF910895FC0107
:100BE0008085813059F0813028F0823059F083308F
:100BF00081F40CC0CF010E94D0050895CF010E945E
:100C000023050895CF010E943C050895CF010E945D
:100C100009050895FC01483CB0F46417A0F48085F0
:100C2000813089F492E0908763874487308B2787EF
:100C30008FEF8687158611869287CF0107960E94CF
:100C40009D0681E0089580E00895EF92FF920F9352
:100C50001F937C018C010E5F1F4FC8010E9432045C
:100C6000C8010E94B703F701818BC8010E94BD0330
:100C7000F701828BC8010E94C003F701838BC80172
:100C80000E94BA03F701848BC8010E94C303F701D5
:100C9000858B1F910F91FF90EF9008950F931F93F5
:100CA0008C010E944A03C80102960E94B003C80149
:100CB00007960E946706F80110861386148616862A
:100CC0001586C8010E944E031F910F910895089543
:100CD0000F931F93CF93DF93C0E0D0E0062F10E077
:100CE00017C089E060E070E00E94F20A62E370E001
:100CF00080E090E00E94E90689E064E170E00E94F3
:100D0000F20A62E370E080E090E00E94E90621963A
:100D1000C017D10734F389E06FEF70E00E94F20A48
:100D2000DF91CF911F910F9108956AE00E946806AC
:100D3000089563E00E946806089565E00E946806D1
:100D400008951F920F920FB60F9211242F933F9385
:100D50008F939F93AF93BF9380914B0290914C02DE
:100D6000A0914D02B0914E0230914F020196A11D0B
:100D7000B11D232F2D5F2D3720F02D570196A11D7A
:100D8000B11D20934F0280934B0290934C02A0938D
:100D90004D02B0934E028091470290914802A0917B
:100DA0004902B0914A020196A11DB11D80934702EC
:100DB00090934802A0934902B0934A02BF91AF9129
:100DC0009F918F913F912F910F900FBE0F901F9089
:100DD00018959B01AC017FB7F894809147029091E0
:100DE0004802A0914902B0914A0266B5A89B05C08D
:100DF0006F3F19F00196A11DB11D7FBFBA2FA92F1A
:100E0000982F8827860F911DA11DB11D62E0880FC4
:100E1000991FAA1FBB1F6A95D1F7BC012DC0FFB750
:100E2000F8948091470290914802A0914902B091B4
:100E30004A02E6B5A89B05C0EF3F19F00196A11D37
:100E4000B11DFFBFBA2FA92F982F88278E0F911D94
:100E5000A11DB11DE2E0880F991FAA1FBB1FEA95D3
:100E6000D1F7861B970B885E9340C8F22150304023
:100E70004040504068517C4F2115310541055105D6
:100E800071F60895789484B5826084BD84B58160DC
:100E900084BD85B5826085BD85B5816085BDEEE682
:100EA000F0E0808181608083E1E8F0E01082808161
:100EB00082608083808181608083E0E8F0E08081CF
:100EC00081608083E1EBF0E0808184608083E0EBEF
:100ED000F0E0808181608083E1E9F0E080818260E0
:100EE0008083808181608083E0E9F0E0808181609F
:100EF0008083E1EAF0E0808182608083808181608C
:100F00008083E0EAF0E0808181608083E1E2F1E0CB
:100F1000808182608083808181608083E0E2F1E073
:100F2000808181608083EAE7F0E080818460808353
:100F300080818260808380818160808380818068FD
:100F400080831092C1000895883008F078C0E82F9F
:100F5000F0E0EE0FFF1FE05BFD4F71836083833095
:100F6000D9F0843030F4813009F444C0823060F428
:100F700039C0853051F18530D8F0863009F446C04B
:100F8000873009F05CC04FC0809169008C7F842B52
:100F900080936900E89A089580916900440F551F75
:100FA000440F551F837F842B80936900E99A08952D
:100FB0008091690074E0440F551F7A95E1F78F7CAA
:100FC000842B80936900EA9A08958091690066E015
:100FD000440F551F6A95E1F78F73842B8093690046
:100FE000EB9A089580916A008C7F842B80936A002D
:100FF000EC9A089580916A00440F551F440F551FC5
:10100000837F842B80936A00ED9A089580916A0013
:1010100024E0440F551F2A95E1F78F7C842B8093A1
:101020006A00EE9A089580916A0096E0440F551F79
:101030009A95E1F78F73842B80936A00EF9A089555
:101040001F920F920FB60F920BB60F9211242F938F
:101050003F934F935F936F937F938F939F93AF9340
:10106000BF93EF93FF938091540290915502892B87
:1010700029F0E0915402F09155020995FF91EF910A
:10108000BF91AF919F918F917F916F915F914F91A0
:101090003F912F910F900BBE0F900FBE0F901F909E
:1010A00018951F920F920FB60F920BB60F92112444
:1010B0002F933F934F935F936F937F938F939F9360
:1010C000AF93BF93EF93FF93809156029091570295
:1010D000892B29F0E0915602F09157020995FF9172
:1010E000EF91BF91AF919F918F917F916F915F91A0
:1010F0004F913F912F910F900BBE0F900FBE0F900D
:101100001F9018951F920F920FB60F920BB60F9269
:1011100011242F933F934F935F936F937F938F93FC
:101120009F93AF93BF93EF93FF9380915802909159
:101130005902892B29F0E0915802F0915902099542
:10114000FF91EF91BF91AF919F918F917F916F919F
:101150005F914F913F912F910F900BBE0F900FBE5B
:101160000F901F9018951F920F920FB60F920BB60B
:101170000F9211242F933F934F935F936F937F931D
:101180008F939F93AF93BF93EF93FF9380915A02F6
:1011900090915B02892B29F0E0915A02F0915B0259
:1011A0000995FF91EF91BF91AF919F918F917F91A1
:1011B0006F915F914F913F912F910F900BBE0F90C8
:1011C0000FBE0F901F9018951F920F920FB60F929F
:1011D0000BB60F9211242F933F934F935F936F930E
:1011E0007F938F939F93AF93BF93EF93FF938091E0
:1011F000500290915102892B29F0E0915002F09118
:1012000051020995FF91EF91BF91AF919F918F91FD
:101210007F916F915F914F913F912F910F900BBEF6
:101220000F900FBE0F901F9018951F920F920FB640
:101230000F920BB60F9211242F933F934F935F930E
:101240006F937F938F939F93AF93BF93EF93FF938E
:101250008091520290915302892B29F0E091520221
:10126000F09153020995FF91EF91BF91AF919F913A
:101270008F917F916F915F914F913F912F910F903F
:101280000BBE0F900FBE0F901F9018951F920F92DC
:101290000FB60F920BB60F9211242F933F934F93DB
:1012A0005F936F937F938F939F93AF93BF93EF93CE
:1012B000FF9380915C0290915D02892B29F0E0916F
:1012C0005C02F0915D020995FF91EF91BF91AF91A2
:1012D0009F918F917F916F915F914F913F912F914E
:1012E0000F900BBE0F900FBE0F901F9018951F927E
:1012F0000F920FB60F920BB60F9211242F933F93BC
:101300004F935F936F937F938F939F93AF93BF930D
:10131000EF93FF9380915E0290915F02892B29F0F9
:10132000E0915E02F0915F020995FF91EF91BF910C
:10133000AF919F918F917F916F915F914F913F916D
:101340002F910F900BBE0F900FBE0F901F9018950E
:10135000CF93DF93482F50E0CA0188589E4FFC017D
:1013600034914E5C5E4FFA018491882369F190E0DC
:10137000880F991FFC01EC51FF4FA591B491FC011E
:10138000E250FF4FC591D491662351F42FB7F894E2
:101390008C91932F909589238C93888189230BC0FE
:1013A000623061F42FB7F8948C91932F9095892334
:1013B0008C938881832B88832FBF06C09FB7F894B6
:1013C0008C91832B8C939FBFDF91CF9108958930AF
:1013D00009F449C08A30A0F4843051F1853040F4DA
:1013E000823079F1833000F5813009F063C026C086
:1013F000873079F1883098F5863009F05BC025C0D8
:101400008D3009F442C08E3028F48B30B1F18C302D
:10141000C0F52DC0803109F442C0813109F445C0C6
:101420008F3009F047C037C0809180008F7703C0AC
:10143000809180008F7D80938000089584B58F77A0
:1014400002C084B58F7D84BD08958091B0008F77F0
:1014500003C08091B0008F7D8093B000089580918B
:1014600090008F7707C0809190008F7D03C080919E
:101470009000877F8093900008958091A0008F77DF
:1014800007C08091A0008F7D03C08091A000877F5E
:101490008093A0000895809120018F7703C08091F0
:1014A00020018F7D80932001089580912001877F06
:1014B000809320010895FF920F931F93F62E482FDB
:1014C00050E0CA0182549E4FFC012491CA01885801
:1014D0009E4FFC0114914E5C5E4FFA010491002373
:1014E000C9F0222319F0822F0E94E709E02FF0E0D3
:1014F000EE0FFF1FE250FF4FA591B4919FB7F894F4
:10150000FF2021F48C911095812302C08C91812BB6
:101510008C939FBF1F910F91FF9008950F931F937E
:10152000482F50E0CA0182549E4FFC012491CA0109
:1015300088589E4FFC0104914E5C5E4FFA01149155
:10154000112319F420E030E015C0222319F0822F76
:101550000E94E709812F90E0880F991F885E9E4FB7
:10156000FC01A591B4918C9120E030E0802311F032
:1015700021E030E0C9011F910F910895382F863383
:1015800008F0365320917B00832F869586958695AB
:1015900090E08170907043E0880F991F4A95E1F7C1
:1015A000277F282B20937B0037708091090282953A
:1015B000880F880F807C832B80937C0080917A0039
:1015C000806480937A0080917A0086FDFCCF209120
:1015D000780040917900942F80E030E0282B392B5F
:1015E000C90108951F93CF93DF93182FEB0161E09A
:1015F0000E94A809209709F4CAC0CF3FD10509F479
:10160000C9C0E12FF0E0E254FE4F8491893009F423
:1016100066C08A30B0F48430F1F1853040F4823015
:1016200059F1833070F5813009F0AEC020C08730A9
:1016300009F443C0883008F048C0863009F0A4C0DF
:1016400034C08D3009F478C08E3038F48B3009F412
:101650005AC08C3008F066C04CC0803109F480C09C
:10166000813109F487C08F3009F08EC06FC084B516
:10167000806884BDC7BD92C084B5806284BDC8BD8A
:101680008DC080918000806880938000D093890015
:10169000C093880083C08091800080628093800026
:1016A000D0938B00C0938A0079C08091B00080688D
:1016B0008093B000C093B30071C08091B00080628D
:1016C0008093B000C093B40069C08091900080689E
:1016D00080939000D0939900C09398005FC0809150
:1016E0009000806280939000D0939B00C0939A00FA
:1016F00055C080919000886080939000D0939D00A9
:10170000C0939C004BC08091A00080688093A00093
:101710008091A0008F7B8093A000D093A900C093FC
:10172000A8003CC08091A00080628093A000D0936C
:10173000AB00C093AA0032C08091A0008860809363
:10174000A000D093AD00C093AC0028C080912001D0
:10175000806880932001D0932901C09328011EC086
:1017600080912001806280932001D0932B01C0934F
:101770002A0114C080912001886080932001D093B9
:101780002D01C0932C010AC0C038D1051CF4812F53
:1017900060E002C0812F61E00E945B0ADF91CF917F
:1017A0001F9108950E9431010895CF92DF92EF9228
:1017B000FF920F931F93CF93DF937C016B018A01FC
:1017C000C0E0D0E00FC0D6016D916D01D701ED9161
:1017D000FC910190F081E02DC7010995C80FD91F38
:1017E000015010400115110571F7CE01DF91CF9125
:1017F0001F910F91FF90EF90DF90CF900895EF929F
:10180000FF920F931F938C01DC01ED91FC910190ED
:10181000F081E02D6DE009957C01D801ED91FC91FE
:101820000190F081E02DC8016AE009959C012E0D20
:101830003F1DC9011F910F91FF90EF900895CF9325
:10184000DF93EC016115710519F420E030E00FC061
:10185000DB010D900020E9F71197A61BB70BE8817B
:10186000F9810280F381E02DAD0109959C01C90148
:10187000DF91CF910895EF92FF920F931F937C0118
:101880000E941F0C8C01C7010E94FF0B080F191F3B
:10189000C8011F910F91FF90EF9008950895CF9385
:1018A000DF930E9442070E944E0C0E943302C0E662
:1018B000DDE00E9422032097E1F30E94600DF9CF42
:1018C00008951F920F920FB60F920BB60F9211242C
:1018D0002F933F934F938F939F93EF93FF93809119
:1018E000C00082FD1DC04091C6002091A002309131
:1018F000A1022F5F3F4F2F7330708091A202909111
:10190000A3022817390771F0E091A002F091A1021B
:10191000E05AFD4F40833093A1022093A00202C001
:101920008091C600FF91EF919F918F914F913F91D0
:101930002F910F900BBE0F900FBE0F901F90189518
:1019400008951F920F920FB60F920BB60F921124AB
:101950002F933F934F938F939F93EF93FF93809198
:10196000C80082FD1DC04091CE0020912803309117
:1019700029032F5F3F4F2F73307080912A0390917E
:101980002B032817390771F0E0912803F091290300
:10199000E851FD4F4083309329032093280302C070
:1019A0008091CE00FF91EF919F918F914F913F9148
:1019B0002F910F900BBE0F900FBE0F901F90189598
:1019C00008951F920F920FB60F920BB60F9211242B
:1019D0002F933F934F938F939F93EF93FF93809118
:1019E000D00082FD1DC04091D6002091B0033091FF
:1019F000B1032F5F3F4F2F7330708091B2039091EE
:101A0000B3032817390771F0E091B003F091B103E7
:101A1000E059FC4F40833093B1032093B00302C0E0
:101A20008091D600FF91EF919F918F914F913F91BF
:101A30002F910F900BBE0F900FBE0F901F90189517
:101A400008951F920F920FB60F920BB60F921124AA
:101A50002F933F934F938F939F93EF93FF93809197
:101A6000300182FD1DC04091360120913804309133
:101A700039042F5F3F4F2F73307080913A0490915B
:101A80003B042817390771F0E0913804F0913904CC
:101A9000E850FC4F4083309339042093380402C04F
:101AA00080913601FF91EF919F918F914F913F91DE
:101AB0002F910F900BBE0F900FBE0F901F90189597
:101AC000E0918C04F0918D04E05CFF4F8191919145
:101AD00020813181805C9F4F821B930B60E470E01A
:101AE0000E948613892B11F00E94600CE091AE04D5
:101AF000F091AF04E05CFF4F8191919120813181A1
:101B0000805C9F4F821B930B60E470E00E94861301
:101B1000892B11F00E94A00CE091D004F091D10427
:101B2000E05CFF4F8191919120813181805C9F4FDA
:101B3000821B930B60E470E00E948613892B11F0E6
:101B40000E94E00CE091F204F091F304E05CFF4F9E
:101B50008191919120813181805C9F4F821B930BF9
:101B600060E470E00E948613892B11F00E94200D22
:101B700008951F920F920FB60F920BB60F92112479
:101B80002F933F938F939F93EF93FF932091E402C2
:101B90003091E5028091E6029091E702281739071B
:101BA00031F48091C1008F7D8093C10014C0E09119
:101BB000E602F091E702EC55FD4F20818091E602AC
:101BC0009091E70201968F7390709093E702809353
:101BD000E6022093C600FF91EF919F918F913F9174
:101BE0002F910F900BBE0F900FBE0F901F90189566
:101BF0001F920F920FB60F920BB60F9211242F93D4
:101C00003F938F939F93EF93FF9320916C033091B9
:101C10006D0380916E0390916F032817390731F49B
:101C20008091C9008F7D8093C90014C0E0916E033C
:101C3000F0916F03E45DFC4F208180916E039091E1
:101C40006F0301968F73907090936F0380936E0370
:101C50002093CE00FF91EF919F918F913F912F9113
:101C60000F900BBE0F900FBE0F901F9018951F92F4
:101C70000F920FB60F920BB60F9211242F933F9332
:101C80008F939F93EF93FF932091F4033091F5038B
:101C90008091F6039091F7032817390731F480916A
:101CA000D1008F7D8093D10014C0E091F603F091B4
:101CB000F703EC54FC4F20818091F6039091F703D9
:101CC00001968F7390709093F7038093F60320939F
:101CD000D600FF91EF919F918F913F912F910F909F
:101CE0000BBE0F900FBE0F901F9018951F920F9272
:101CF0000FB60F920BB60F9211242F933F938F9331
:101D00009F93EF93FF9320917C0430917D04809109
:101D10007E0490917F042817390731F480913101B6
:101D20008F7D8093310114C0E0917E04F0917F0497
:101D3000E45CFB4F208180917E0490917F040196AA
:101D40008F73907090937F0480937E04209336016C
:101D5000FF91EF919F918F913F912F910F900BBE2B
:101D60000F900FBE0F901F901895AF92BF92DF9209
:101D7000EF92FF920F931F93CF93DF93EC017A01C1
:101D80008B01DD24403081EE580780E0680780E059
:101D9000780711F0DD24D39491E0A92EB12CEC89C1
:101DA000FD89DD2069F0C50108A002C0880F991FD8
:101DB0000A94E2F7808360E079E08DE390E005C06B
:101DC000108260E874E88EE190E0A80197010E941B
:101DD00099132150304040405040569547953795D3
:101DE000279580E12030380720F0DD2011F0DD2438
:101DF000D6CFE889F9893083EA89FB89208319A243
:101E0000EE89FF89408121E030E0C9010C8C02C0DD
:101E1000880F991F0A94E2F7482B4083EE89FF89C7
:101E20004081C9010D8C02C0880F991F0A94E2F706
:101E3000482B4083EE89FF894081C9010E8C02C086
:101E4000880F991F0A94E2F7482B4083EE89FF8997
:101E500080810F8C02C0220F331F0A94E2F7209575
:101E600028232083DF91CF911F910F91FF90EF9056
:101E7000DF90BF90AF900895DC011C96ED91FC912E
:101E80001D97E05CFF4F8191919120813181805CB1
:101E90009F4F821B930B60E470E00E9486130895AD
:101EA000DC011C96ED91FC911D97E05CFF4F2081B9
:101EB0003181E054F040DF01AE5BBF4F8D919C91CA
:101EC00011972817390719F42FEF3FEF07C08D91AD
:101ED0009C91E80FF91F8081282F30E0C9010895F7
:101EE000DC011C96ED91FC911D97E05CFF4F208179
:101EF0003181E054F040DF01AE5BBF4F8D919C918A
:101F000011972817390719F42FEF3FEF10C08D9163
:101F10009C911197E80FF91F20818D919C91119749
:101F200001968F73907011969C938E9330E0C90147
:101F30000895DC0191968C919197882339F05496FD
:101F4000ED91FC915597808186FFF9CF91961C9277
:101F50000895CF93DF93EC01EE85FF85E05CFF4FA2
:101F600020813181E054F0402F5F3F4F2F7330705C
:101F7000DF01AE5BBF4F8D919C91119728173907F8
:101F8000D1F3E05CFF4F80819181E054F040E80F95
:101F9000F91F6083EE85FF85E05CFF4F318320836E
:101FA000EE89FF89208181E090E00F8C02C0880FCC
:101FB000991F0A94E2F7282B208381E089A3EC89FA
:101FC000FD8980818064808381E090E0DF91CF9102
:101FD00008951F93109283041092820428EE33E038
:101FE00040E050E0209384043093850440938604BD
:101FF000509387046EE072E07093810460938004D4
:1020000080E692E090938D0480938C0484EA92E0C1
:1020100090938F0480938E0485EC90E090939104CC
:102020008093900484EC90E09093930480939204C6
:1020300080EC90E0909395048093940481EC90E080
:10204000909397048093960482EC90E09093990487
:102050008093980486EC90E090939B0480939A047C
:1020600014E010939C04B3E0B0939D04A7E0A09308
:102070009E04F5E0F0939F04E1E0E093A004109249
:10208000A5041092A4042093A6043093A7044093BF
:10209000A8045093A9047093A3046093A20488EE4B
:1020A00092E09093AF048093AE048CE293E090931F
:1020B000B1048093B0048DEC90E09093B3048093CE
:1020C000B2048CEC90E09093B5048093B40488EC57
:1020D00090E09093B7048093B60489EC90E09093DD
:1020E000B9048093B8048AEC90E09093BB04809389
:1020F000BA048EEC90E09093BD048093BC041093DE
:10210000BE04B093BF04A093C004F093C104E09355
:10211000C2041092C7041092C6042093C8043093DE
:10212000C9044093CA045093CB047093C5046093D0
:10213000C40480E793E09093D1048093D00484EBAF
:1021400093E09093D3048093D20485ED90E0909334
:10215000D5048093D40484ED90E09093D7048093C9
:10216000D60480ED90E09093D9048093D80481ED5B
:1021700090E09093DB048093DA0482ED90E09093FA
:10218000DD048093DC0486ED90E09093DF0480937F
:10219000DE041093E004B093E104A093E204F09312
:1021A000E304E093E4041092E9041092E80420931D
:1021B000EA043093EB044093EC045093ED047093E5
:1021C000E7046093E60488EF93E09093F304809330
:1021D000F2048CE394E09093F5048093F40485E397
:1021E00091E09093F7048093F60484E391E0909358
:1021F000F9048093F80480E391E09093FB048093CA
:10220000FA0481E391E09093FD048093FC0482E35F
:1022100091E09093FF048093FE0486E391E0909315
:1022200001058093000510930205B0930305A09368
:102230000405F0930505E09306051F9108950F939B
:102240001F93CF93DF93DC011C962C931C976C9308
:1022500011964C931197262F30E088E791E0FC010E
:10226000E20FF31FE4911296EC93129750E0840F63
:10227000951FFC01849113968C931397C2E3D1E0D0
:102280002C0F3D1FF901249130E0220F331F0EEF78
:1022900010E0B801620F731FFB01859194911596B0
:1022A0009C938E93149764EE70E0260F371FF9010C
:1022B0008591949119969C938E931897C40FD51F6E
:1022C000FE01849190E0880F991FF801E80FF91F33
:1022D0002591349117963C932E931697FB01E80FA6
:1022E000F91F859194911B969C938E931A97DF9179
:1022F000CF911F910F910895DC0112969C91129736
:10230000662391F01896ED91FC9119978081909534
:10231000982390831C968C911C978823B9F014966F
:10232000ED91FC9115970CC01496ED91FC911597C9
:1023300080819095982390831896ED91FC91199740
:10234000808112969C911297892B80831A96ED9129
:10235000FC911B97908113968C91139780958923FC
:1023600080831C968C911C97882351F01696ED91D2
:10237000FC911797808113969C911397892B8083EA
:1023800028EC30E0C9010197F1F71696ED91FC9128
:102390001797908113968C9113978095892380834A
:1023A0001A96ED91FC911B97808113969C9113973F
:1023B000892B8083C9010197F1F76623A1F0149658
:1023C000ED91FC911597908112968C9112978095C2
:1023D000892380831896ED91FC911997808112963C
:1023E0009C91892B808388EC90E00197F1F7089508
:1023F000CF93DF93DC011896ED91FC9119979081B2
:1024000012968C9112978095892380831C968C91CB
:102410001C97882351F01496ED91FC9115978081BB
:1024200012969C911297892B80831A96ED91FC91BC
:102430001B97908113968C911397809589238083A5
:102440001C968C911C97882351F01696ED91FC9167
:102450001797808113969C911397892B808348EC62
:1024600050E0CA010197F1F7EC91F0E0EE5CFE4F0D
:10247000E4918E2F90E0880F991F885E9E4FFC019B
:10248000C591D49128811696ED91FC911797908172
:1024900013968C9113978095892380831A96ED91DA
:1024A000FC911B97808113969C911397892B8083B5
:1024B000CA010197F1F740E030E012968C9190E06C
:1024C00028233923232B09F041E0842FDF91CF917A
:1024D0000895DC011896ED91FC9119979081129660
:1024E0008C9112978095892380831C968C911C97E0
:1024F000882351F01496ED91FC91159780811296E6
:102500009C911297892B80831A96ED91FC911B97D1
:10251000908113968C9113978095892380831C96C4
:102520008C911C97882349F01696ED91FC91179792
:10253000808113969C91892B808388EC90E0019791
:10254000F1F708950F931F938C010E941F11C8018A
:102550000E9469121F910F910895DC011896ED9168
:10256000FC911997908112968C91129780958923EE
:1025700080831C968C911C97882351F01496ED91C2
:10258000FC911597808112969C911297892B8083DC
:102590001A96ED91FC911B97908113968C9113974D
:1025A0008095892380831C968C911C97882351F0F9
:1025B0001696ED91FC911797808113969C91139735
:1025C000892B808328EC30E0C9010197F1F714963C
:1025D000ED91FC911597908112968C9112978095B0
:1025E000892380831896ED91FC911997808112962A
:1025F0009C911297892B8083C9010197F1F7169658
:10260000ED91FC911797908113968C91139780957B
:10261000892380831A96ED91FC911B9780811396F4
:102620009C91892B8083C9010197F1F70895DC0102
:102630001A96ED91FC911B97908113968C911397AC
:102640008095892380831C968C911C97882351F058
:102650001696ED91FC911797808113969C91139794
:10266000892B808388EC90E00197F1F71896ED9123
:10267000FC911997908112968C91129780958923DD
:1026800080831C968C911C97882349F01496ED91B9
:10269000FC911597808112969C91892B808388EC00
:1026A00090E00197F1F708950E94171380E00895D4
:1026B0000F931F93CF93DF93EC01062F10E0602F51
:1026C0006078CE010E947C11000F1F5F1830B9F7AF
:1026D000CE010E94F811DF91CF911F910F910895C3
:1026E0000E9458130895EF92FF921F937C01162FBA
:1026F0000E94AD12110FC701612F0E9458131F9144
:10270000FF90EF9008950E947313089597FB092E90
:1027100007260AD077FD04D02ED006D000201AF468
:10272000709561957F4F0895F6F7909581959F4F2D
:102730000895A1E21A2EAA1BBB1BFD010DC0AA1F02
:10274000BB1FEE1FFF1FA217B307E407F50720F01A
:10275000A21BB30BE40BF50B661F771F881F991F95
:102760001A9469F760957095809590959B01AC01DE
:10277000BD01CF010895AA1BBB1B51E107C0AA1FD1
:10278000BB1FA617B70710F0A61BB70B881F991F12
:102790005A95A9F780959095BC01CD010895EE0F4B
:0E27A000FF1F0590F491E02D0994F894FFCFEF
:1027AE00000020000C050000010100000000A90F30
:0A27BE00D50B3C0F700F500F990F60
:00000001FF
