:100000000C9463000C940C070C9439070C948B002F
:100010000C948B000C948B000C948B000C948B0034
:100020000C948B000C948B000C948B000C948B0024
:100030000C948B000C948B000C948B000C948B0014
:100040000C9478070C948B000C9460040C94AE0410
:100050000C948B000C948B000C948B000C948B00F4
:100060000C94350C0C948B00000000002400270039
:100070002A0000000000250028002B0000000000DE
:1000800023002600290004040404040404040202DA
:100090000202020203030303030301020408102007
:1000A0004080010204081020010204081020000012
:1000B0000007000201000003040600000000000029
:1000C00000001A06F60911241FBECFEFD8E0DEBFEC
:1000D000CDBF11E0A0E0B1E0EAE6FCE102C005908E
:1000E0000D92AA32B107D9F712E0AAE2B1E001C03D
:1000F0001D92A33CB107E1F710E0C6ECD0E004C0CC
:100100002297FE010E942F0EC23CD107C9F70E9420
:1001100066070C94330E0C9400000F931F9380ED30
:1001200091E040E052EC61E070E00E94E90482E07E
:1001300060E00E94D60883E060E00E94D60884E078
:1001400060E00E94D60885E061E00E94D60886E063
:1001500061E00E94D60885E061E00E94150986E012
:1001600061E00E94150987E060E00E94D60880E007
:1001700067E071E041E050E00E94E90681E290E032
:100180000E947507182F092F0E94E70310932A0178
:1001900000932B011F910F9108950F931F93CF93FD
:1001A000DF9362E370E080E090E00E94C00780EDA2
:1001B00091E00E94A105082FCCE2D1E080ED91E012
:1001C0000E94A1058095899381E0C534D807B1F7D5
:1001D00080ED91E00E94A105182F80ED91E00E9432
:1001E000A10580912A0190912B01602F0E94CF02DE
:1001F000882341F010FF06C080912A0190912B01C5
:100200000E945F02DF91CF911F910F91089580911D
:100210002A0190912B010E94BA0308950F931F9316
:1002200000ED11E0C80163EC0E94DA05C80163E04B
:100230000E94DA05C80160E071E00E94D6061F91B5
:100240000F9108951F9362E370E080E090E00E94B8
:10025000C00780ED91E00E94A105182F80ED91E08C
:100260000E94A105482FECE2F1E08FEF819391E02D
:10027000E534F907D9F7799780912A0190912B01FC
:10028000612F9F010E949B03182F80ED91E061EC8C
:100290000E94DA0580ED91E0612F0E94DA0580ED81
:1002A00091E060E071E00E94D6061F910895809170
:1002B0002A0190912B010E94840380ED91E00E941D
:1002C0007005892B91F080ED91E00E94A1058330AB
:1002D00051F0823429F0813041F40E9422010895C6
:1002E0000E94CD0008950E940E01089508950F9375
:1002F0001F93CF93DF93C0E0D0E0062F10E017C02C
:1003000089E060E070E00E94760862E370E080E0DF
:1003100090E00E94C00789E064E170E00E947608E6
:1003200062E370E080E090E00E94C0072196C01771
:10033000D10734F389E06FEF70E00E947608DF9117
:10034000CF911F910F91089565E00E947701089564
:1003500063E00E947701089565E00E9477010895A7
:10036000FC0111821082138212821582148217827C
:10037000168210860895FC0180850895FC01848111
:1003800095810895FC01808191810895FC0182810D
:1003900093810895FC01868197810895CF93DF931F
:1003A000EC0188819981019709F58885882311F0EE
:1003B0008150888780E00E94540889559240B0F0AF
:1003C00082E090E09B838A8381E090E09F838E832C
:1003D00084E00E946909892B19F481E090E002C051
:1003E00082E090E09D838C8383EE8887DF91CF91BC
:1003F0000895CF93DF93EC0183E00E946909892B74
:1004000019F481E090E002C082E090E09983888353
:10041000029781F588858F3F11F08F5F888781E093
:100420000E9454089C01885C90408159914010F1D1
:1004300081E090E09B838A83283C310510F482E0C0
:1004400090E09F838E8384E00E946909892B19F4D0
:1004500082E090E002C081E090E09D838C83019770
:1004600019F486E061E002C086E060E00E941509B0
:100470008CE18887DF91CF9108951F93CF93DF930D
:10048000EC011B821A8282E00E94690910E0892B2C
:1004900009F011E080914501882331F4112349F0DE
:1004A000CE010E94F90105C0112319F4CE010E946A
:1004B000CE0110934501DF91CF911F91089521E066
:1004C000FC0126870895FC018789908D8130910574
:1004D00001F10297E1F586898832C8F1885280A33C
:1004E000885D238D348D2130310511F48F7009C062
:1004F0002230310539F490E0089760E170E00E9405
:10050000E40D878F858D968D029719F580A1885F00
:100510001BC08689803FD8F4805180A3805F238DE3
:10052000348D2130310529F490E008968F70907059
:1005300004C02230310511F48F70878F858D968D20
:10054000029739F480A1805180A381E0089580E072
:10055000089581E00895CF92DF92FF920F931F9349
:100560006C01F62E00ED11E0C80162E80E94DA0588
:10057000C8016F2D0E94DA05C80161E071E00E9498
:10058000D60681E0F601828B1F910F91FF90DF90DC
:10059000CF90089585E060E00E9415090895FC0160
:1005A000962F8289882371F06389961739F4128A0D
:1005B000CF010B960E94A80181E00895CF010E940F
:1005C000AB0280E00895CF93DF93EC0185E061E01A
:1005D0000E94150980910201882391F01092020176
:1005E00060ED77E080E090E00E94C007CE010B96BE
:1005F0000E94A8016B896F5F6B8BCE010E94AB02DA
:100600009E8980914701891709F466C0909347013C
:10061000CE010E946302882309F45EC048A1242F02
:1006200030E0888990E08097281739073CF1898964
:1006300090E00C96821793070CF181E080934601BD
:10064000469546954695842F90E0EC89FD89E80F04
:10065000F91F408150E063E0880F991F6A95E1F728
:10066000281B390B02C0559547952A95E2F7417032
:100670005070CE016F8D0E942B042EC080914601D8
:10068000882351F1109246018A89882351F48E857E
:10069000882339F46B896F5F6B8BCE010E94AB02AC
:1006A0001BC08E858823C1F08F8581508F879E0166
:1006B000255F3F4F882369F4C9010E94A40181E0AE
:1006C00090E09D878C87CE016FEF7FEF0E9425041D
:1006D00003C0C9010E94A801DF91CF910895FC01D8
:1006E0008789908D029769F4818D928D8130910573
:1006F00041F495878487CF016FEF7FEF0E94250437
:100700000895158614860895FC01848595858130A9
:10071000910549F08230910551F0892B59F4CF01B0
:100720000E946F030895CF010E94CA020895CF016D
:100730000E94E3020895FC01483CD0F46417C0F421
:10074000848595850197A1F482E090E09587848760
:10075000608B418B358B248B8FEF838B128A1686AF
:1007600082E08787CF010B960E94AC0181E008955B
:1007700080E00895EF92FF920F931F937C018C010C
:100780000E5F1F4FC8010E943D02C8010E94BB01BD
:10079000F701868BC8010E94C201F701908F878BF9
:1007A000C8010E94C601F701928F818FC8010E9483
:1007B000BE01F701948F838FC8010E94CA01F7011F
:1007C000968F858F1F910F91FF90EF9008950F9353
:1007D0001F938C010E945704C80102960E94B00129
:1007E000C8010B960E947601F80115861486108ABE
:1007F000118A138A128A1F910F910895EF92FF9226
:100800000F931F93162F072F85E4E82E82E0F82E12
:10081000C70160E270E00E94BC09C701612F0E941D
:100820003E0AC7010E94810AC70161E270E00E948E
:10083000BC09C701602F0E943E0AC7010E94810ABD
:100840001F910F91FF90EF900895FC0171836083D9
:100850000E94FE030895FC01603140F52081318142
:10086000442371F081E090E0A0E0B0E004C0880F84
:10087000991FAA1FBB1F6A95D2F7282B392B0FC0CF
:1008800081E090E0A0E0B0E004C0880F991FAA1FAB
:10089000BB1F6A95D2F78095909528233923318321
:1008A000208360817181CF010E94FE030895FC01C5
:1008B0001182108285E492E00E94850A08950895CD
:1008C0001F920F920FB60F9211242F933F934F93C5
:1008D0008F939F93EF93FF938091C00082FD1DC083
:1008E0004091C60020918801309189012F5F3F4FD0
:1008F0002F73307080918A0190918B0128173907EE
:1009000071F0E0918801F0918901E85BFE4F40832E
:10091000309389012093880102C08091C600FF9125
:10092000EF919F918F914F913F912F910F900FBE1B
:100930000F901F901895E091DC01F091DD01E05CD3
:10094000FF4F8191919120813181821B930B8F7395
:100950009070892B11F00E945F0408951F920F92EE
:100960000FB60F9211242F933F938F939F93EF9382
:10097000FF932091CC013091CD018091CE019091D7
:10098000CF012817390731F48091C1008F7D809302
:10099000C10014C0E091CE01F091CF01E457FE4FA9
:1009A00020818091CE019091CF0101968F7390703C
:1009B0009093CF018093CE012093C600FF91EF91D9
:1009C0009F918F913F912F910F900FBE0F901F908D
:1009D0001895AF92BF92DF92EF92FF920F931F9301
:1009E000CF93DF93EC017A018B01DD24403081EE5F
:1009F000580780E0680780E0780711F0DD24D39481
:100A000091E0A92EB12CEC89FD89DD2069F0C501AA
:100A100008A002C0880F991F0A94E2F7808360E063
:100A200079E08DE390E005C0108260E874E88EE123
:100A300090E0A80197010E94F70D215030404040FE
:100A40005040569547953795279580E120303807D7
:100A500020F0DD2011F0DD24D6CFE889F98930833C
:100A6000EA89FB89208319A2EE89FF89408121E070
:100A700030E0C9010C8C02C0880F991F0A94E2F77C
:100A8000482B4083EE89FF894081C9010D8C02C04B
:100A9000880F991F0A94E2F7482B4083EE89FF895B
:100AA0004081C9010E8C02C0880F991F0A94E2F799
:100AB000482B4083EE89FF8980810F8C02C0220F72
:100AC000331F0A94E2F7209528232083DF91CF91EA
:100AD0001F910F91FF90EF90DF90BF90AF9008951E
:100AE000DC011C96ED91FC911D97E05CFF4F21917C
:100AF000319180819181281B390B2F733070C9018E
:100B00000895DC011C96ED91FC911D97E05CFF4F70
:100B100020813181E054F040DF01AE5BBF4F8D9109
:100B20009C9111972817390719F42FEF3FEF07C051
:100B30008D919C91E80FF91F8081282F30E0C90129
:100B40000895DC011C96ED91FC911D97E05CFF4F30
:100B500020813181E054F040DF01AE5BBF4F8D91C9
:100B60009C9111972817390719F42FEF3FEF10C008
:100B70008D919C911197E80FF91F20818D919C9187
:100B8000119701968F73907011969C938E9330E01D
:100B9000C9010895DC0191968C919197882339F0D1
:100BA0005496ED91FC915597808186FFF9CF9196EF
:100BB0001C920895CF93DF93EC01EE85FF85E05CF6
:100BC000FF4F20813181E054F0402F5F3F4F2F7362
:100BD0003070DF01AE5BBF4F8D919C91119728174C
:100BE0003907D1F3E05CFF4F80819181E054F04000
:100BF000E80FF91F6083EE85FF85E05CFF4F3183CE
:100C00002083EE89FF89208181E090E00F8C02C073
:100C1000880F991F0A94E2F7282B208381E089A38B
:100C2000EC89FD8980818064808381E090E0DF91A0
:100C3000CF9108951092D3011092D20188EE93E0E3
:100C4000A0E0B0E08093D4019093D501A093D601A9
:100C5000B093D7018EE091E09093D1018093D001C1
:100C600088E491E09093DD018093DC018CE891E0D1
:100C70009093DF018093DE0185EC90E09093E10199
:100C80008093E00184EC90E09093E3018093E20193
:100C900080EC90E09093E5018093E40181EC90E09A
:100CA0009093E7018093E60182EC90E09093E90154
:100CB0008093E80186EC90E09093EB018093EA0149
:100CC00084E08093EC0183E08093ED0187E08093E2
:100CD000EE0185E08093EF0181E08093F0010895BB
:100CE000CF92DF92EF92FF920F931F93CF93DF93F8
:100CF0007C016B018A01C0E0D0E00FC0D6016D918C
:100D00006D01D701ED91FC910190F081E02DC701BB
:100D10000995C80FD91F015010400115110571F731
:100D2000CE01DF91CF911F910F91FF90EF90DF9057
:100D3000CF900895EF92FF920F931F938C01DC01E7
:100D4000ED91FC910190F081E02D6DE009957C0121
:100D5000D801ED91FC910190F081E02DC8016AE08D
:100D600009959C012E0D3F1DC9011F910F91FF9008
:100D7000EF900895CF93DF93EC016115710519F49D
:100D800020E030E00FC0DB010D900020E9F7119763
:100D9000A61BB70BE881F9810280F381E02DAD013C
:100DA00009959C01C901DF91CF910895EF92FF92BF
:100DB0000F931F937C010E94BA068C01C7010E9409
:100DC0009A06080F191FC8011F910F91FF90EF900D
:100DD0000895823000F5E82FF0E0EE0FFF1FEE508F
:100DE000FE4F71836083882319F08130A1F408C01D
:100DF000809169008C7F842B80936900E89A089524
:100E000080916900440F551F440F551F837F842B29
:100E100080936900E99A08951F920F920FB60F927E
:100E200011242F933F934F935F936F937F938F93EF
:100E30009F93AF93BF93EF93FF938091F2019091B3
:100E4000F301892B29F0E091F201F091F30109956A
:100E5000FF91EF91BF91AF919F918F917F916F9192
:100E60005F914F913F912F910F900FBE0F901F9068
:100E700018951F920F920FB60F9211242F933F9344
:100E80004F935F936F937F938F939F93AF93BF9392
:100E9000EF93FF938091F4019091F501892B29F054
:100EA000E091F401F091F5010995FF91EF91BF9167
:100EB000AF919F918F917F916F915F914F913F91F2
:100EC0002F910F900FBE0F901F901895CF93DF9327
:100ED0000E9419080E948D00CBE9D4E00E945701BE
:100EE0002097E1F30E949B04F9CF0E94900A089595
:100EF0001F920F920FB60F9211242F933F938F934F
:100F00009F93AF93BF938091FA019091FB01A091C1
:100F1000FC01B091FD013091FE010196A11DB11DB2
:100F2000232F2D5F2D3720F02D570196A11DB11DC8
:100F30002093FE018093FA019093FB01A093FC01A2
:100F4000B093FD018091F6019091F701A091F80115
:100F5000B091F9010196A11DB11D8093F601909306
:100F6000F701A093F801B093F901BF91AF919F9160
:100F70008F913F912F910F900FBE0F901F9018955A
:100F80009B01AC017FB7F8948091F6019091F70135
:100F9000A091F801B091F90166B5A89B05C06F3F1B
:100FA00019F00196A11DB11D7FBFBA2FA92F982F4F
:100FB0008827860F911DA11DB11D62E0880F991F22
:100FC000AA1FBB1F6A95D1F7BC012DC0FFB7F894CB
:100FD0008091F6019091F701A091F801B091F9018B
:100FE000E6B5A89B05C0EF3F19F00196A11DB11D04
:100FF000FFBFBA2FA92F982F88278E0F911DA11DF3
:10100000B11DE2E0880F991FAA1FBB1FEA95D1F717
:10101000861B970B885E9340C8F2215030404040B9
:10102000504068517C4F211531054105510571F63D
:101030000895789484B5826084BD84B5816084BD50
:1010400085B5826085BD85B5816085BDEEE6F0E041
:10105000808181608083E1E8F0E01082808182609D
:101060008083808181608083E0E8F0E0808181601E
:101070008083E1EBF0E0808184608083E0EBF0E04E
:10108000808181608083EAE7F0E0808184608083F2
:10109000808182608083808181608083808180689C
:1010A00080831092C1000895982F8E3008F09E50D2
:1010B0009770809103018295880F880F807C892B1F
:1010C00080937C0080917A00806480937A00809184
:1010D0007A0086FDFCCF2091780040917900942F12
:1010E00080E030E0282B392BC90108951F93CF935E
:1010F000DF93182FEB0161E00E94D608209709F4D6
:101100004AC0CF3FD10509F449C0E12FF0E0E255D4
:10111000FF4F84918330C1F0843028F4813051F046
:101120008230B1F50CC0863019F1873049F1843036
:1011300079F514C084B5806884BDC7BD33C084B55B
:10114000806284BDC8BD2EC080918000806880937D
:101150008000D0938900C093880024C080918000D3
:10116000806280938000D0938B00C0938A001AC065
:101170008091B00080688093B000C093B30012C02B
:101180008091B00080628093B000C093B4000AC028
:10119000C038D1051CF4812F60E002C0812F61E0CE
:1011A0000E941509DF91CF911F910895CF93DF938E
:1011B000482F50E0CA0186569F4FFC0134914A5790
:1011C0005F4FFA018491882369F190E0880F991F9D
:1011D000FC01E859FF4FA591B491FC01EE58FF4F77
:1011E000C591D491662351F42FB7F8948C91932F25
:1011F000909589238C93888189230BC0623061F498
:101200002FB7F8948C91932F909589238C93888194
:10121000832B88832FBF06C09FB7F8948C91832BB4
:101220008C939FBFDF91CF910895482F50E0CA0162
:1012300082559F4FFC012491CA0186569F4FFC01A5
:1012400094914A575F4FFA013491332309F440C017
:10125000222351F1233071F0243028F42130A1F001
:10126000223011F514C02630B1F02730C1F02430FF
:10127000D9F404C0809180008F7703C080918000F2
:101280008F7D8093800010C084B58F7702C084B5B5
:101290008F7D84BD09C08091B0008F7703C080919D
:1012A000B0008F7D8093B000E32FF0E0EE0FFF1FC2
:1012B000EE58FF4FA591B4912FB7F894662321F40F
:1012C0008C919095892302C08C91892B8C932FBF90
:1012D0000895682F70E0CB0182559F4FFC01249147
:1012E000CB0186569F4FFC0144916A577F4FFB010B
:1012F0009491992319F420E030E03CC0222351F16D
:10130000233071F0243028F42130A1F0223011F57F
:1013100014C02630B1F02730C1F02430D9F404C015
:10132000809180008F7703C0809180008F7D8093B3
:10133000800010C084B58F7702C084B58F7D84BDD6
:1013400009C08091B0008F7703C08091B0008F7D7D
:101350008093B000892F90E0880F991F84589F4F89
:10136000FC01A591B4918C9120E030E0842311F030
:1013700021E030E0C901089581E080934402609348
:1013800021021092420210924302089520912002FD
:1013900030E080911F02281B3109C9010895409156
:1013A0001F0280912002481718F02FEF3FEF0AC06C
:1013B000E42FF0E0E150FE4F8081282F30E04F5FB6
:1013C00040931F02C9010895E0911F0280912002FD
:1013D000E81718F0EFEFFFEF06C0F0E0E150FE4F26
:1013E0008081E82FF0E0CF0108950895109248021F
:1013F0001092470288EE93E0A0E0B0E080934902AB
:1014000090934A02A0934B02B0934C028EE191E07C
:1014100090934602809345020895CF92DF92EF9217
:10142000FF920F931F93CF93DF937C016B018A018F
:10143000809144028823A1F0C0E0D0E00DC0D70124
:10144000ED91FC91D601AC0FBD1F0190F081E02D14
:10145000C7016C9109952196C017D10780F304C08C
:10146000CB01642F0E941A0CC801DF91CF911F910C
:101470000F91FF90EF90DF90CF900895DF93CF937F
:101480000F92CDB7DEB7FC016983809144028823B7
:10149000C9F080914302803238F081E090E093837C
:1014A000828320E030E015C080914202E82FF0E016
:1014B000EE5DFD4F998190838F5F80934202809310
:1014C000430205C0CE01019661E00E941A0C21E0A2
:1014D00030E0C9010F90CF91DF9108950F93062F4F
:1014E0008091210262E272E04091430221E00E9479
:1014F000C50B1092420210924302109244020F91C7
:10150000089561E00E946E0A089510921F021092E1
:10151000200210924202109243020E94C60D0895CA
:101520000F931F93CF93DF93BC018230910510F48A
:1015300062E070E0E091C102F091C202A0E0B0E090
:1015400040E050E024C08081918186179707D0F059
:101550008617970771F482819381109729F013966B
:101560009C938E9312972CC09093C2028093C102D9
:1015700027C04115510519F08417950718F4EF019C
:101580008D01AC01DF01828193819C01F9013097CB
:10159000D1F641155105F9F0CA01861B970B84302D
:1015A000910580F48A819B810115110521F0F801D4
:1015B0009383828304C09093C2028093C102FE0190
:1015C000329645C0FE01E80FF91F619371930297AF
:1015D000998388833CC08091BF029091C002892B7F
:1015E00041F480910601909107019093C00280938D
:1015F000BF0240910801509109014115510541F484
:101600004DB75EB78091040190910501481B590BBD
:101610002091BF023091C00224173507B0F4CA01EF
:10162000821B930B8617970780F0AB014E5F5F4FCD
:101630008417950750F0420F531F5093C0024093F8
:10164000BF02F9016193719302C0E0E0F0E0CF01C5
:10165000DF91CF911F910F910895CF93DF939C015C
:10166000009709F48FC0EC0122971B821A826091C7
:10167000C1027091C2026115710581F4888199815E
:10168000820F931F2091BF023091C00228173907A3
:1016900039F5D093C002C093BF0274C0DB0140E0B3
:1016A00050E0AC17BD0708F1BB83AA83FE0121916E
:1016B0003191E20FF31FAE17BF0779F48D919C9122
:1016C0001197280F391F2E5F3F4F398328831296B9
:1016D0008D919C9113979B838A834115510571F4D9
:1016E000D093C202C093C1024DC012968D919C91BD
:1016F0001397AD01009711F0DC01D3CFDA011396F7
:10170000DC93CE931297FA0121913191E20FF31FEE
:10171000CE17DF0769F488819981280F391F2E5F62
:101720003F4FFA01318320838A819B819383828397
:10173000E0E0F0E0DB0112968D919C911397009709
:1017400019F0BC01FD01F6CFAB014E5F5F4FDB012D
:101750008D919C91840F951F2091BF023091C00202
:101760002817390779F4309729F41092C2021092A1
:10177000C10202C013821282425050405093C002F4
:101780004093BF02DF91CF9108950F931F93582F7D
:10179000122F413210F081E04AC08091510288231B
:1017A000E1F782E080935102009353028FEF809320
:1017B000BE021092790240937A02A9E5B2E0FB01E1
:1017C00002C081918D938E2F861B8417D0F31092C7
:1017D000520280915202550F852B809352028091C4
:1017E0005402813041F4109254028091520280934D
:1017F000BB0085EC01C085EE8093BC00112321F075
:10180000809151028230E1F38091BE028F3F11F44A
:1018100080E00DC08091BE02803211F482E007C0EA
:101820008091BE02803311F084E001C083E01F91FB
:101830000F910895482F613210F081E00895809152
:101840005102843011F082E0089560939C02ABE76E
:10185000B2E0842F9C01F90102C081918D938E2FFB
:10186000841B8617D0F380E008951F920F920FB665
:101870000F9211242F933F934F935F936F937F9316
:101880008F939F93AF93BF93EF93FF938091B90092
:1018900090E0887F90708036910509F4F2C081361F
:1018A0009105CCF58832910509F47BC08932910508
:1018B000B4F48031910509F46FC0813191053CF495
:1018C000009709F447C1089709F04FC165C08831F6
:1018D000910509F466C0809709F047C182C0803441
:1018E000910509F4A4C08134910544F48033910535
:1018F00009F482C0C89709F038C189C080359105C4
:1019000009F489C08835910509F496C08834910599
:1019100009F02BC1AEC08839910509F413C189398A
:101920009105ECF48837910509F4ABC0893791052E
:101930004CF48836910509F4A4C08037910509F06C
:1019400014C19FC08838910509F4FCC08039910505
:1019500009F49DC08038910509F007C198C0803B0B
:10196000910509F4C6C0813B91054CF4803A91057C
:1019700009F49FC0883A910509F0F7C0BAC0803CCD
:10198000910509F4E3C0883C910509F4DFC0883B68
:10199000910509F0EAC0C2C0809152028093BB0059
:1019A000CFC09091790280917A02981768F4909153
:1019B0007902E92FF0E0E75AFD4F80818093BB0068
:1019C0009F5F90937902BCC080915302882309F4F1
:1019D0004BC085ED8093BC008091BC0084FDFCCFA2
:1019E000C2C080E28093BE0285ED8093BC008091EE
:1019F000BC0084FDFCCFB7C080E38093BE0285EDC0
:101A00008093BC008091BC0084FDFCCFACC088E317
:101A10008093BE029BC0809179029091BB00E82F19
:101A2000F0E0E75AFD4F90838F5F809379029091A9
:101A3000790280917A0282C0809179029091BB00F4
:101A4000E82FF0E0E75AFD4F90838F5F8093790293
:101A500080915302882341F085ED8093BC008091F2
:101A6000BC0084FDFCCF7FC081E08093540284EAF7
:101A70006EC085ED8093BC008091BC0084FDFCCFDE
:101A800072C083E0809351021092BD0259C08091D0
:101A9000BD02803208F056C08091BD029091BB001B
:101AA000E82FF0E0E356FD4F90838F5F8093BD02F7
:101AB00047C08091BD02803230F4E091BD02F0E079
:101AC000E356FD4F108285ED8093BC008091BC00F1
:101AD00084FDFCCF109251026091BD02E09157024B
:101AE000F09158028DE992E070E009951092BD02E4
:101AF0002DC084E08093510210929B0210929C02B0
:101B0000E0915502F0915602099580919C0288233C
:101B100029F481E080939C0210927B0290919B02B9
:101B2000E92FF0E0E558FD4F80818093BB009F5F77
:101B300090939B0290919B0280919C02981710F4C5
:101B400085EC01C085E88093BC000FC085EC8093D4
:101B5000BC0009C01092BE0285ED8093BC0080914C
:101B6000BC0084FDFCCF10925102FF91EF91BF9118
:101B7000AF919F918F917F916F915F914F913F9125
:101B80002F910F900FBE0F901F9018951092510239
:101B900081E0809353021092540282E161E00E943E
:101BA000150983E161E00E941509E9EBF0E080810D
:101BB0008E7F808380818D7F808388E48093B800CE
:101BC00085E48093BC00089597FB092E07260AD070
:101BD00077FD04D02ED006D000201AF470956195C0
:101BE0007F4F0895F6F7909581959F4F0895A1E254
:101BF0001A2EAA1BBB1BFD010DC0AA1FBB1FEE1F87
:101C0000FF1FA217B307E407F50720F0A21BB30BD1
:101C1000E40BF50B661F771F881F991F1A9469F74D
:101C200060957095809590959B01AC01BD01CF01A9
:101C30000895AA1BBB1B51E107C0AA1FBB1FA61713
:101C4000B70710F0A61BB70B881F991F5A95A9F765
:101C500080959095BC01CD010895EE0FFF1F059072
:0A1C6000F491E02D0994F894FFCFF1
:101C6A00000001018000C302000000000000DA0544
:101C7A0070067005A1058105CA05000000003E0A2C
:0A1C8A000D0AC609CF09E409F509A7
:00000001FF
