:100000000C9404010C94820A0C94B30A0C94E40A34
:100010000C94150B0C94460B0C94770B0C94A80BBA
:100020000C94D90B0C9431010C9431010C943101D6
:100030000C9431010C9431010C9431010C94310178
:100040000C9431010C9431010C9431010C94310168
:100050000C9431010C9431010C9431010C941C0C62
:100060000C9431010C94E2040C942A060C94310196
:100070000C9431010C9431010C9431010C94310138
:100080000C9431010C9431010C9431010C94310128
:100090000C9422050C9469060C9431010C943101E6
:1000A0000C9431010C9431010C9431010C94310108
:1000B0000C9431010C9431010C9431010C943101F8
:1000C0000C9431010C9431010C9431010C946205B3
:1000D0000C94A8060C9431010C94A2050C94E7062C
:1000E0000C94310100002100240027002A002D007B
:1000F0003000330001010000040107010A01000083
:100100002200250028002B002E00310034000201BF
:100110000000050108010B0100002000230026005B
:1001200029002C002F00320000010000030106010D
:10013000090105050505070508080808020202026D
:100140000A0A080804040404010101010101010173
:100150000303030303030303040707070C0C0C0C3E
:100160000C0C0C0C02020202060606060606060627
:100170000B0B0B0B0B0B0B0B0102102020080810B4
:100180002040102040800201020108040201010207
:1001900004081020408080402010080402018004E0
:1001A000020180402010080402010804020101023B
:1001B0000408102040800102040810204080000044
:1001C000090A02080B0C0D070603040100000000D9
:1001D000000000000000000000000000000000001F
:1001E0000000000000000000000011100F000000DF
:1001F00000000000000000000000000000000000FF
:10020000000000008004570811241FBECFEFD1E288
:10021000DEBFCDBF00E00CBF12E0A0E0B2E0ECE634
:10022000F6E200E00BBF02C007900D92AA31B107C1
:10023000D9F71BBE15E0AAE1B2E001C01D92AA30B9
:10024000B107E1F712E0C8E0D2E004C02297FE0156
:100250000E943013C430D107C9F70E940A0C0C94D5
:1002600034130C9400000F931F93CF93DF9362E33A
:1002700070E080E090E00E94640C85E694E00E94CB
:10028000DE07082FCCE1D2E085E694E00E94DE078D
:100290008095899382E0C533D807B1F785E694E06D
:1002A0000E94DE07182F85E694E00E94DE07809109
:1002B0001A0290911B02602F0E944803882341F08C
:1002C00010FF06C080911A0290911B020E94E80262
:1002D000DF91CF911F910F91089580911A02909113
:1002E0001B020E943E0408950F931F9385E694E03D
:1002F00040E052EC61E070E00E94260782E060E09E
:100300000E94330E83E060E00E94330E84E060E0E0
:100310000E94330E85E061E00E94330E86E061E0CA
:100320000E94330E85E061E00E94E60E86E061E007
:100330000E94E60E87E060E00E94330E80E06DE6EA
:1003400071E041E050E00E94060A8DE190E00E94D9
:10035000190C182F092F0E94650410931A0200939C
:100360001B021F910F9108950F931F9305E614E050
:10037000C80163EC0E941708C80163E00E941708D7
:10038000C80160E072E00E94F3091F910F91089587
:100390001F9362E370E080E090E00E94640C85E6C9
:1003A00094E00E94DE07182F85E694E00E94DE07A5
:1003B000482FECE1F2E08FEF819392E0E533F9070B
:1003C000D9F7799780911A0290911B02612F9F01B2
:1003D0000E941E04182F85E694E061EC0E94170825
:1003E00085E694E0612F0E94170885E694E060E0BE
:1003F00072E00E94F3091F91089580911A02909172
:100400001B020E94070485E694E00E94AD07892B39
:1004100091F085E694E00E94DE07833051F082344B
:1004200029F0813041F40E94C80108950E943301EF
:1004300008950E94B401089508950F931F93CF93D8
:10044000DF93C0E0D0E0062F10E017C089E060E045
:1004500070E00E94530D62E370E080E090E00E9443
:10046000640C89E064E170E00E94530D62E370E087
:1004700080E090E00E94640C2196C017D10734F30D
:1004800089E06FEF70E00E94530DDF91CF911F91D3
:100490000F91089565E00E941D02089563E00E9497
:1004A0001D02089565E00E941D020895FC0111825D
:1004B0001082138212821582148216820895FC0122
:1004C00086810895FC01848195810895FC018081D5
:1004D00091810895FC01828193810895CF93DF93E8
:1004E000EC01888199810197E9F48E81882311F0CC
:1004F00081508E8380E00E941F0D8955924090F0BC
:1005000082E090E09B838A8384E00E94190F892B0C
:1005100019F481E090E002C082E090E09D838C833A
:1005200083EE8E83DF91CF910895CF93DF93EC011B
:1005300083E00E94190F892B19F481E090E002C03A
:1005400082E090E0998388830297E9F48E818F3F5F
:1005500011F08F5F8E8381E00E941F0D89559240BC
:1005600090F081E090E09B838A8384E00E94190FE1
:10057000892B19F482E090E002C081E090E09D8335
:100580008C838CE18E83DF91CF9108951F93CF935D
:10059000DF93EC011B821A8282E00E94190F10E0A7
:1005A000892B09F011E080913502882331F4112361
:1005B00049F0CE010E94950205C0112319F4CE0125
:1005C0000E946E0210933502DF91CF911F91089522
:1005D00021E0FC0124870895FC01858996898130FA
:1005E0009105B9F0029761F58489883248F1885203
:1005F000848F885D218D328D21303105E9F02230E4
:10060000310501F590E0089760E170E00E94E51285
:1006100014C08489803FA0F48051848F805F218D35
:10062000328D2130310529F490E008968F7090705A
:1006300004C02230310531F48F70838F81E008953A
:1006400080E0089581E00895CF92DF92FF920F93AA
:100650001F936C01F62E05E614E0C80162E80E94C3
:100660001708C8016F2D0E941708C80161E072E0E9
:100670000E94F30981E0F601808B1F910F91FF909A
:10068000DF90CF90089585E060E00E94E60E089527
:10069000FC01962F8089882371F06189961739F4BF
:1006A000108ACF0109960E944E0281E00895CF0181
:1006B0000E94240380E00895CF93DF93EC0185E04E
:1006C00061E00E94E60E80910202882391F0109270
:1006D000020260ED77E080E090E00E94640CCE01C1
:1006E00009960E944E0269896F5F698BCE010E9454
:1006F00024039C8980913702891709F470C0909374
:100700003702CE010E94EC02882309F468C08C8D68
:10071000282F30E08E8590E08097281739076CF1FC
:100720008F8590E00C96821793073CF186E061E09C
:100730000E94E60E81E0809336022C8D822F8695F2
:100740008695869590E0EA89FB89E80FF91F40813C
:1007500050E033E0880F991F3A95E1F730E0281B0D
:10076000390B02C0559547952A95E2F741705070B4
:10077000CE016B8D0E94B50432C086E060E00E941D
:10078000E60E80913602882351F110923602888954
:10079000882351F48C85882339F469896F5F698BCC
:1007A000CE010E9424031BC08C858823C1F08D8557
:1007B00081508D879E01275F3F4F882369F4C901CF
:1007C0000E944A0281E090E09B878A87CE016FEF0A
:1007D0007FEF0E94AF0403C0C9010E944E02DF9167
:1007E000CF910895FC0185899689029769F48789DC
:1007F000908D8130910541F493878287CF016FEF0F
:100800007FEF0E94AF040895138612860895FC01BD
:10081000828593858130910549F08230910551F0B0
:10082000892B59F4CF010E94F2030895CF010E9451
:1008300043030895CF010E945C030895FC01483CE6
:10084000D8F46417C8F4828593850197A1F482E0F7
:1008500090E09387828766874787338B228B8FEF61
:10086000818B108A148682E08587CF0109960E94C9
:10087000520281E00895089580E00895EF92FF927A
:100880000F931F937C018C010E5F1F4FC8010E94C4
:10089000C602C8010E945F02F701848BC8010E9452
:1008A0006602F701968B858BC8010E946A02F701E8
:1008B000908F878BC8010E946202F701928F818F0F
:1008C0001F910F91FF90EF9008950F931F938C014C
:1008D0000E947C04C80102960E945602C801099633
:1008E0000E941C02F8011386128616861786118A4A
:1008F000108A1F910F910895FC01118210820895B2
:1009000088E392E06AE34BE321E00E94CC10089573
:10091000EF92FF920F931F93162F072F88E3E82E75
:1009200082E0F82EC70160E270E00E94AD11C701BD
:10093000612F0E949A11C7010E947E11C70161E2D6
:1009400070E00E94AD11C701602F0E949A11C7018B
:100950000E947E111F910F91FF90EF900895FC016E
:10096000718360830E9488040895FC01603140F522
:1009700020813181442371F081E090E0A0E0B0E07B
:1009800004C0880F991FAA1FBB1F6A95D2F7282B96
:10099000392B0FC081E090E0A0E0B0E004C0880FE8
:1009A000991FAA1FBB1F6A95D2F78095909528239F
:1009B00039233183208360817181CF010E948804B3
:1009C000089508951F920F920FB60F920BB60F92D3
:1009D00011242F933F934F938F939F93EF93FF9304
:1009E0008091C00082FD1DC04091C600209185020B
:1009F000309186022F5F3F4F2F73307080918702B6
:100A0000909188022817390771F0E0918502F091E2
:100A10008602EB5BFD4F4083309386022093850274
:100A200002C08091C600FF91EF919F918F914F91ED
:100A30003F912F910F900BBE0F900FBE0F901F9004
:100A4000189508951F920F920FB60F920BB60F9242
:100A500011242F933F934F938F939F93EF93FF9383
:100A60008091C80082FD1DC04091CE0020910D03F1
:100A700030910E032F5F3F4F2F73307080910F0323
:100A8000909110032817390771F0E0910D03F09150
:100A90000E03E353FD4F408330930E0320930D0369
:100AA00002C08091CE00FF91EF919F918F914F9165
:100AB0003F912F910F900BBE0F900FBE0F901F9084
:100AC000189508951F920F920FB60F920BB60F92C2
:100AD00011242F933F934F938F939F93EF93FF9303
:100AE0008091D00082FD1DC04091D60020919503D9
:100AF000309196032F5F3F4F2F7330708091970393
:100B0000909198032817390771F0E0919503F091BF
:100B10009603EB5AFC4F4083309396032093950342
:100B200002C08091D600FF91EF919F918F914F91DC
:100B30003F912F910F900BBE0F900FBE0F901F9003
:100B4000189508951F920F920FB60F920BB60F9241
:100B500011242F933F934F938F939F93EF93FF9382
:100B60008091300182FD1DC04091360120911D040D
:100B700030911E042F5F3F4F2F73307080911F0400
:100B8000909120042817390771F0E0911D04F0912D
:100B90001E04E352FC4F408330931E0420931D0437
:100BA00002C080913601FF91EF919F918F914F91FB
:100BB0003F912F910F900BBE0F900FBE0F901F9083
:100BC0001895E0917104F0917204E05CFF4F8191FF
:100BD000919120813181821B930B8F739070892BAF
:100BE00011F00E94E104E0919304F0919404E05C20
:100BF000FF4F8191919120813181821B930B8F73E3
:100C00009070892B11F00E942105E091B504F091BC
:100C1000B604E05CFF4F8191919120813181821B6C
:100C2000930B8F739070892B11F00E946105E091F6
:100C3000D704F091D804E05CFF4F8191919120811D
:100C40003181821B930B8F739070892B11F00E945E
:100C5000A10508951F920F920FB60F920BB60F9237
:100C600011242F933F938F939F93EF93FF932091A2
:100C7000C9023091CA028091CB029091CC02281710
:100C8000390731F48091C1008F7D8093C10014C079
:100C9000E091CB02F091CC02E757FD4F208180918B
:100CA000CB029091CC0201968F7390709093CC02FE
:100CB0008093CB022093C600FF91EF919F918F917B
:100CC0003F912F910F900BBE0F900FBE0F901F9072
:100CD00018951F920F920FB60F920BB60F92112418
:100CE0002F933F938F939F93EF93FF932091510303
:100CF0003091520380915303909154032817390780
:100D000031F48091C9008F7D8093C90014C0E091B7
:100D10005303F0915403EF5EFC4F20818091530305
:100D20009091540301968F73907090935403809325
:100D300053032093CE00FF91EF919F918F913F91AC
:100D40002F910F900BBE0F900FBE0F901F90189514
:100D50001F920F920FB60F920BB60F9211242F9382
:100D60003F938F939F93EF93FF932091D9033091FB
:100D7000DA038091DB039091DC032817390731F403
:100D80008091D1008F7D8093D10014C0E091DB036E
:100D9000F091DC03E756FC4F20818091DB039091BA
:100DA000DC0301968F7390709093DC038093DB03D8
:100DB0002093D600FF91EF919F918F913F912F91BA
:100DC0000F900BBE0F900FBE0F901F9018951F92A3
:100DD0000F920FB60F920BB60F9211242F933F93E1
:100DE0008F939F93EF93FF9320916104309162045E
:100DF00080916304909164042817390731F480913D
:100E000031018F7D8093310114C0E0916304F09132
:100E10006404EF5DFB4F2081809163049091640432
:100E200001968F7390709093640480936304209371
:100E30003601FF91EF919F918F913F912F910F90EC
:100E40000BBE0F900FBE0F901F901895AF92BF92E0
:100E5000DF92EF92FF920F931F93CF93DF93EC01FA
:100E60007A018B01DD24403081EE580780E068076D
:100E700080E0780711F0DD24D39491E0A92EB12C05
:100E8000EC89FD89DD2069F0C50108A002C0880F4A
:100E9000991F0A94E2F7808360E079E08DE390E0A7
:100EA00005C0108260E874E88EE190E0A801970127
:100EB0000E94F812215030404040504056954795CE
:100EC0003795279580E12030380720F0DD2011F09C
:100ED000DD24D6CFE889F9893083EA89FB8920832C
:100EE00019A2EE89FF89408121E030E0C9010C8C14
:100EF00002C0880F991F0A94E2F7482B4083EE89BD
:100F0000FF894081C9010D8C02C0880F991F0A9486
:100F1000E2F7482B4083EE89FF894081C9010E8C9E
:100F200002C0880F991F0A94E2F7482B4083EE898C
:100F3000FF8980810F8C02C0220F331F0A94E2F7D1
:100F4000209528232083DF91CF911F910F91FF904F
:100F5000EF90DF90BF90AF900895DC011C96ED916B
:100F6000FC911D97E05CFF4F21913191808191812F
:100F7000281B390B2F733070C9010895DC011C96B2
:100F8000ED91FC911D97E05CFF4F20813181E05491
:100F9000F040DF01AE5BBF4F8D919C9111972817F8
:100FA000390719F42FEF3FEF07C08D919C91E80F9F
:100FB000F91F8081282F30E0C9010895DC011C96BB
:100FC000ED91FC911D97E05CFF4F20813181E05451
:100FD000F040DF01AE5BBF4F8D919C9111972817B8
:100FE000390719F42FEF3FEF10C08D919C911197A5
:100FF000E80FF91F20818D919C91119701968F73B5
:10100000907011969C938E9330E0C9010895DC0195
:1010100091968C919197882339F05496ED91FC919B
:101020005597808186FFF9CF91961C920895CF93B2
:10103000DF93EC01EE85FF85E05CFF4F208131817D
:10104000E054F0402F5F3F4F2F733070DF01AE5BF5
:10105000BF4F8D919C91119728173907D1F3E05C10
:10106000FF4F80819181E054F040E80FF91F6083C9
:10107000EE85FF85E05CFF4F31832083EE89FF8999
:10108000208181E090E00F8C02C0880F991F0A94A4
:10109000E2F7282B208381E089A3EC89FD898081F8
:1010A0008064808381E090E0DF91CF9108951F9369
:1010B000109268041092670428EE33E040E050E09C
:1010C0002093690430936A0440936B0450936C043A
:1010D0006EE072E0709366046093650485E492E0CC
:1010E000909372048093710489E892E09093740461
:1010F0008093730485EC90E090937604809375045C
:1011000084EC90E0909378048093770480EC90E0F6
:1011100090937A048093790481EC90E090937C041E
:1011200080937B0482EC90E090937E0480937D0416
:1011300086EC90E09093800480937F0414E01093F9
:101140008104B3E0B0938204A7E0A0938304F5E0A8
:10115000F0938404E1E0E093850410928A041092F5
:10116000890420938B0430938C0440938D04509316
:101170008E0470938804609387048DEC92E09093C2
:1011800094048093930481E193E090939604809378
:1011900095048DEC90E090939804809397048CECE8
:1011A00090E090939A048093990488EC90E0909357
:1011B0009C0480939B0489EC90E090939E04809320
:1011C0009D048AEC90E09093A00480939F048EECA1
:1011D00090E09093A2048093A1041093A304B09391
:1011E000A404A093A504F093A604E093A70410928E
:1011F000AC041092AB042093AD043093AE04409342
:10120000AF045093B0047093AA046093A90485E5D9
:1012100093E09093B6048093B50489E993E09093AA
:10122000B8048093B70485ED90E09093BA0480935E
:10123000B90484ED90E09093BC048093BB0480EDEE
:1012400090E09093BE048093BD0481ED90E0909374
:10125000C0048093BF0482ED90E09093C204809319
:10126000C10486ED90E09093C4048093C30410936E
:10127000C504B093C604A093C704F093C804E093D8
:10128000C9041092CE041092CD042093CF04309361
:10129000D0044093D1045093D2047093CC04609353
:1012A000CB048DED93E09093D8048093D70481E232
:1012B00094E09093DA048093D90485E391E09093CD
:1012C000DC048093DB0484E391E09093DE0480935C
:1012D000DD0480E391E09093E0048093DF0481E3F8
:1012E00091E09093E2048093E10482E391E0909393
:1012F000E4048093E30486E391E09093E604809312
:10130000E5041093E704B093E804A093E904F09394
:10131000EA04E093EB041F910895CF92DF92EF92DD
:10132000FF920F931F93CF93DF937C016B018A0190
:10133000C0E0D0E00FC0D6016D916D01D701ED91F5
:10134000FC910190F081E02DC7011995C80FD91FBC
:10135000015010400115110571F7CE01DF91CF91B9
:101360001F910F91FF90EF90DF90CF900895EF9233
:10137000FF920F931F938C01DC01ED91FC91019082
:10138000F081E02D6DE019957C01D801ED91FC9183
:101390000190F081E02DC8016AE019959C012E0DA5
:1013A0003F1DC9011F910F91FF90EF900895CF93BA
:1013B000DF93EC016115710519F420E030E00FC0F6
:1013C000DB010D900020E9F71197A61BB70BE88110
:1013D000F9810280F381E02DAD0119959C01C901CD
:1013E000DF91CF910895EF92FF920F931F937C01AD
:1013F0000E94D7098C01C7010E94B709080F191F65
:10140000C8011F910F91FF90EF900895883008F068
:1014100078C0E82FF0E0EE0FFF1FE351FB4F718320
:1014200060838330D9F0843030F4813009F444C0D3
:10143000823060F439C0853051F18530D8F0863083
:1014400009F446C0873009F05CC04FC08091690044
:101450008C7F842B80936900E89A089580916900BD
:10146000440F551F440F551F837F842B80936900C1
:10147000E99A08958091690074E0440F551F7A95A8
:10148000E1F78F7C842B80936900EA9A089580911C
:10149000690066E0440F551F6A95E1F78F73842B4E
:1014A00080936900EB9A089580916A008C7F842B69
:1014B00080936A00EC9A089580916A00440F551F4A
:1014C000440F551F837F842B80936A00ED9A089503
:1014D00080916A0024E0440F551F2A95E1F78F7C24
:1014E000842B80936A00EE9A089580916A0096E0BA
:1014F000440F551F9A95E1F78F73842B80936A00F0
:10150000EF9A08951F920F920FB60F920BB60F929B
:1015100011242F933F934F935F936F937F938F93F8
:101520009F93AF93BF93EF93FF938091F1049091BA
:10153000F204892B29F0E091F104F091F20419955D
:10154000FF91EF91BF91AF919F918F917F916F919B
:101550005F914F913F912F910F900BBE0F900FBE57
:101560000F901F9018951F920F920FB60F920BB607
:101570000F9211242F933F934F935F936F937F9319
:101580008F939F93AF93BF93EF93FF938091F30457
:101590009091F404892B29F0E091F304F091F40484
:1015A0001995FF91EF91BF91AF919F918F917F918D
:1015B0006F915F914F913F912F910F900BBE0F90C4
:1015C0000FBE0F901F9018951F920F920FB60F929B
:1015D0000BB60F9211242F933F934F935F936F930A
:1015E0007F938F939F93AF93BF93EF93FF938091DC
:1015F000F5049091F604892B29F0E091F504F0911F
:10160000F6041995FF91EF91BF91AF919F918F9142
:101610007F916F915F914F913F912F910F900BBEF2
:101620000F900FBE0F901F9018951F920F920FB63C
:101630000F920BB60F9211242F933F934F935F930A
:101640006F937F938F939F93AF93BF93EF93FF938A
:101650008091F7049091F804892B29F0E091F70428
:10166000F091F8041995FF91EF91BF91AF919F917F
:101670008F917F916F915F914F913F912F910F903B
:101680000BBE0F900FBE0F901F9018951F920F92D8
:101690000FB60F920BB60F9211242F933F934F93D7
:1016A0005F936F937F938F939F93AF93BF93EF93CA
:1016B000FF938091ED049091EE04892B29F0E09145
:1016C000ED04F091EE041995FF91EF91BF91AF9168
:1016D0009F918F917F916F915F914F913F912F914A
:1016E0000F900BBE0F900FBE0F901F9018951F927A
:1016F0000F920FB60F920BB60F9211242F933F93B8
:101700004F935F936F937F938F939F93AF93BF9309
:10171000EF93FF938091EF049091F004892B29F0CF
:10172000E091EF04F091F0041995FF91EF91BF91D2
:10173000AF919F918F917F916F915F914F913F9169
:101740002F910F900BBE0F900FBE0F901F9018950A
:101750001F920F920FB60F920BB60F9211242F9378
:101760003F934F935F936F937F938F939F93AF9329
:10177000BF93EF93FF938091F9049091FA04892B22
:1017800029F0E091F904F091FA041995FF91EF9195
:10179000BF91AF919F918F917F916F915F914F9189
:1017A0003F912F910F900BBE0F900FBE0F901F9087
:1017B00018951F920F920FB60F920BB60F9211242D
:1017C0002F933F934F935F936F937F938F939F9349
:1017D000AF93BF93EF93FF938091FB049091FC0430
:1017E000892B29F0E091FB04F091FC041995FF91FD
:1017F000EF91BF91AF919F918F917F916F915F9189
:101800004F913F912F910F900BBE0F900FBE0F90F5
:101810001F901895CF93DF930E94BD0C0E94740116
:10182000C1EED5E00E94FD012097E1F30E94E105A1
:10183000F9CF0E94B01108951F920F920FB60F9228
:1018400011242F933F938F939F93AF93BF938091D6
:10185000010590910205A0910305B0910405309116
:1018600005050196A11DB11D232F2D5F2D3720F0F9
:101870002D570196A11DB11D2093050580930105EB
:1018800090930205A0930305B09304058091FD0495
:101890009091FE04A091FF04B09100050196A11D56
:1018A000B11D8093FD049093FE04A093FF04B093B8
:1018B0000005BF91AF919F918F913F912F910F9014
:1018C0000FBE0F901F9018959B01AC017FB7F89445
:1018D0008091FD049091FE04A091FF04B091000559
:1018E00066B5A89B05C06F3F19F00196A11DB11DFB
:1018F0007FBFBA2FA92F982F8827860F911DA11D72
:10190000B11D62E0880F991FAA1FBB1F6A95D1F70E
:10191000BC012DC0FFB7F8948091FD049091FE04A6
:10192000A091FF04B0910005E6B5A89B05C0EF3F6C
:1019300019F00196A11DB11DFFBFBA2FA92F982F35
:1019400088278E0F911DA11DB11DE2E0880F991F00
:10195000AA1FBB1FEA95D1F7861B970B885E9340A1
:10196000C8F2215030404040504068517C4F211512
:1019700031054105510571F60895789484B582606A
:1019800084BD84B5816084BD85B5826085BD85B523
:10199000816085BDEEE6F0E0808181608083E1E8D2
:1019A000F0E010828081826080838081816080830A
:1019B000E0E8F0E0808181608083E1EBF0E080810D
:1019C00084608083E0EBF0E0808181608083E1E9E6
:1019D000F0E0808182608083808181608083E0E9A3
:1019E000F0E0808181608083E1EAF0E080818260C4
:1019F0008083808181608083E0EAF0E08081816083
:101A00008083E1E2F1E08081826080838081816077
:101A10008083E0E2F1E0808181608083EAE7F0E0AA
:101A20008081846080838081826080838081816006
:101A300080838081806880831092C1000895382F50
:101A4000863308F0365320917B00832F8695869548
:101A5000869590E08170907043E0880F991F4A95B9
:101A6000E1F7277F282B20937B00377080910302BA
:101A70008295880F880F807C832B80937C008091D7
:101A80007A00806480937A0080917A0086FDFCCF92
:101A90002091780040917900942F80E030E0282B4D
:101AA000392BC90108951F93CF93DF93182FEB01B2
:101AB00061E00E94330E209709F4CAC0CF3FD105E0
:101AC00009F4C9C0E12FF0E0E254FE4F849189305F
:101AD00009F466C08A30B0F48430F1F1853040F406
:101AE000823059F1833070F5813009F0AEC020C0EA
:101AF000873009F443C0883008F048C0863009F0C8
:101B0000A4C034C08D3009F478C08E3038F48B30E6
:101B100009F45AC08C3008F066C04CC0803109F41A
:101B200080C0813109F487C08F3009F08EC06FC04A
:101B300084B5806884BDC7BD92C084B5806284BD11
:101B4000C8BD8DC080918000806880938000D09354
:101B50008900C093880083C0809180008062809358
:101B60008000D0938B00C0938A0079C08091B00030
:101B700080688093B000C093B30071C08091B000C2
:101B800080628093B000C093B40069C080919000DF
:101B9000806880939000D0939900C09398005FC0B4
:101BA00080919000806280939000D0939B00C093BE
:101BB0009A0055C080919000886080939000D093E7
:101BC0009D00C0939C004BC08091A00080688093D2
:101BD000A0008091A0008F7B8093A000D093A900EB
:101BE000C093A8003CC08091A00080628093A000B8
:101BF000D093AB00C093AA0032C08091A00088604F
:101C00008093A000D093AD00C093AC0028C0809119
:101C10002001806880932001D0932901C09328017E
:101C20001EC080912001806280932001D0932B01FF
:101C3000C0932A0114C08091200188608093200104
:101C4000D0932D01C0932C010AC0C038D1051CF4DB
:101C5000812F60E002C0812F61E00E94E60EDF91DB
:101C6000CF911F910895CF93DF93482F50E0CA0181
:101C700088589E4FFC0134914E5C5E4FFA0184916E
:101C8000882369F190E0880F991FFC01EC51FF4F08
:101C9000A591B491FC01E250FF4FC591D491662308
:101CA00051F42FB7F8948C91932F909589238C93AE
:101CB000888189230BC0623061F42FB7F8948C912E
:101CC000932F909589238C938881832B88832FBFB2
:101CD00006C09FB7F8948C91832B8C939FBFDF91A4
:101CE000CF910895893009F449C08A30A0F4843036
:101CF00051F1853040F4823079F1833000F5813044
:101D000009F063C026C0873079F1883098F58630B5
:101D100009F05BC025C08D3009F442C08E3028F434
:101D20008B30B1F18C30C0F52DC0803109F442C048
:101D3000813109F445C08F3009F047C037C0809128
:101D400080008F7703C0809180008F7D809380001A
:101D5000089584B58F7702C084B58F7D84BD0895C2
:101D60008091B0008F7703C08091B0008F7D809309
:101D7000B0000895809190008F7707C08091900007
:101D80008F7D03C080919000877F8093900008959D
:101D90008091A0008F7707C08091A0008F7D03C045
:101DA0008091A000877F8093A000089580912001FA
:101DB0008F7703C0809120018F7D8093200108954B
:101DC00080912001877F809320010895FF920F93D7
:101DD0001F93F62E482F50E0CA0182549E4FFC01FB
:101DE0002491CA0188589E4FFC0114914E5C5E4FAD
:101DF000FA0104910023C9F0222319F0822F0E94D6
:101E0000720EE02FF0E0EE0FFF1FE250FF4FA591A2
:101E1000B4919FB7F894FF2021F48C911095812301
:101E200002C08C91812B8C939FBF1F910F91FF90CB
:101E300008950F931F93482F50E0CA0182549E4F7C
:101E4000FC012491CA0188589E4FFC0104914E5C0C
:101E50005E4FFA011491112319F420E030E015C00F
:101E6000222319F0822F0E94720E812F90E0880F9A
:101E7000991F885E9E4FFC01A591B4918C9120E042
:101E800030E0802311F021E030E0C9011F910F9173
:101E900008950F931F93CF93DF93DC011C962C932F
:101EA0001C976C9311964C931197262F30E088E77E
:101EB00091E0FC01E20FF31FE4911296EC9312976C
:101EC00050E0840F951FFC01849113968C93139717
:101ED000C2E3D1E02C0F3D1FF901249130E0220F25
:101EE000331F0EEF10E0B801620F731FFB018591E5
:101EF000949115969C938E93149764EE70E0260F40
:101F0000371FF9018591949119969C938E93189798
:101F1000C40FD51FFE01849190E0880F991FF8012E
:101F2000E80FF91F2591349117963C932E9316973D
:101F3000FB01E80FF91F859194911B969C938E935A
:101F40001A97DF91CF911F910F910895DC0112969E
:101F50009C911297662391F01896ED91FC91199738
:101F600080819095982390831C968C911C97882350
:101F7000B9F01496ED91FC9115970CC01496ED9163
:101F8000FC91159780819095982390831896ED91F8
:101F9000FC911997808112969C911297892B8083CE
:101FA0001A96ED91FC911B97908113968C91139743
:101FB0008095892380831C968C911C97882351F0EF
:101FC0001696ED91FC911797808113969C9113972B
:101FD000892B808328EC30E0C9010197F1F7169630
:101FE000ED91FC911797908113968C9113978095A2
:101FF000892380831A96ED91FC911B97808113961B
:102000009C911397892B8083C9010197F1F766236F
:10201000A1F01496ED91FC911597908112968C91F8
:1020200012978095892380831896ED91FC911997DA
:10203000808112969C91892B808388EC90E0019797
:10204000F1F70895CF93DF93DC011896ED91FC91A1
:102050001997908112968C9112978095892380838D
:102060001C968C911C97882351F01496ED91FC914D
:102070001597808112969C911297892B80831A96CE
:10208000ED91FC911B97908113968C9113978095FD
:10209000892380831C968C911C97882351F0169677
:1020A000ED91FC911797808113969C911397892B42
:1020B000808348EC50E0CA010197F1F7EC91F0E021
:1020C000EE5CFE4FE4918E2F90E0880F991F885EA2
:1020D0009E4FFC01C591D49128811696ED91FC91FB
:1020E0001797908113968C911397809589238083FD
:1020F0001A96ED91FC911B97808113969C911397F2
:10210000892B8083CA010197F1F740E030E01296F5
:102110008C9190E028233923232B09F041E0842F70
:10212000DF91CF910895DC011896ED91FC911997FC
:10213000908112968C9112978095892380831C96AA
:102140008C911C97882351F01496ED91FC91159772
:10215000808112969C911297892B80831A96ED911B
:10216000FC911B97908113968C91139780958923EE
:1021700080831C968C911C97882349F01696ED91CC
:10218000FC911797808113969C91892B808388EC12
:1021900090E00197F1F708950F931F938C010E942F
:1021A000490FC8010E9493101F910F910895DC01FF
:1021B0001896ED91FC911997908112968C91129737
:1021C0008095892380831C968C911C97882351F0DD
:1021D0001496ED91FC911597808112969C9112971F
:1021E000892B80831A96ED91FC911B979081139611
:1021F0008C9113978095892380831C968C911C97D2
:10220000882351F01696ED91FC91179780811396D3
:102210009C911397892B808328EC30E0C9010197AA
:10222000F1F71496ED91FC911597908112968C918F
:1022300012978095892380831896ED91FC911997C8
:10224000808112969C911297892B8083C9010197F6
:10225000F1F71696ED91FC911797908113968C915A
:1022600013978095892380831A96ED91FC911B9793
:10227000808113969C91892B8083C9010197F1F786
:102280000895DC011A96ED91FC911B9790811396AD
:102290008C9113978095892380831C968C911C9731
:1022A000882351F01696ED91FC9117978081139633
:1022B0009C911397892B808388EC90E00197F1F72C
:1022C0001896ED91FC911997908112968C91129726
:1022D0008095892380831C968C911C97882349F0D4
:1022E0001496ED91FC911597808112969C91892B03
:1022F000808388EC90E00197F1F708950E944111E6
:1023000080E008950F931F93CF93DF93EC01062F86
:1023100010E0602F6078CE010E94A60F000F1F5FB3
:102320001830B9F7CE010E942210DF91CF911F9192
:102330000F9108950E9482110895EF92FF921F93CA
:102340007C01162F0E94D710110FC701612F0E9428
:1023500082111F91FF90EF9008950E949D110895A2
:102360000F931F93CF93DF93BC018230910510F43C
:1023700062E070E0E0910805F0910905A0E0B0E0AE
:1023800040E050E024C08081918186179707D0F00B
:102390008617970771F482819381109729F013961D
:1023A0009C938E9312972CC09093090580930805F7
:1023B00027C04115510519F08417950718F4EF014E
:1023C0008D01AC01DF01828193819C01F90130977D
:1023D000D1F641155105F9F0CA01861B970B8430DF
:1023E000910580F48A819B810115110521F0F80186
:1023F0009383828304C09093090580930805FE01AE
:10240000329645C0FE01E80FF91F61937193029760
:10241000998388833CC08091060590910705892B9C
:1024200041F48091060290910702909307058093F2
:10243000060540910802509109024115510541F4E9
:102440004DB75EB78091040290910502481B590B6D
:10245000209106053091070524173507B0F4CA010D
:10246000821B930B8617970780F0AB014E5F5F4F7F
:102470008417950750F0420F531F50930705409360
:102480000605F9016193719302C0E0E0F0E0CF012D
:10249000DF91CF911F910F910895CF93DF939C010E
:1024A000009709F48FC0EC0122971B821A82609179
:1024B0000805709109056115710581F4888199817C
:1024C000820F931F209106053091070528173907C1
:1024D00039F5D0930705C093060574C0DB0140E0D1
:1024E00050E0AC17BD0708F1BB83AA83FE01219120
:1024F0003191E20FF31FAE17BF0779F48D919C91D4
:102500001197280F391F2E5F3F4F3983288312966A
:102510008D919C9113979B838A834115510571F48A
:10252000D0930905C09308054DC012968D919C91DA
:102530001397AD01009711F0DC01D3CFDA011396A8
:10254000DC93CE931297FA0121913191E20FF31FA0
:10255000CE17DF0769F488819981280F391F2E5F14
:102560003F4FFA01318320838A819B819383828349
:10257000E0E0F0E0DB0112968D919C9113970097BB
:1025800019F0BC01FD01F6CFAB014E5F5F4FDB01DF
:102590008D919C91840F951F209106053091070520
:1025A0002817390779F4309729F410920905109209
:1025B000080502C013821282425050405093070512
:1025C00040930605DF91CF91089597FB092E0726CA
:1025D0000AD077FD04D02ED006D000201AF47095D2
:1025E00061957F4F0895F6F7909581959F4F0895D7
:1025F000A1E21A2EAA1BBB1BFD010DC0AA1FBB1F07
:10260000EE1FFF1FA217B307E407F50720F0A21B78
:10261000B30BE40BF50B661F771F881F991F1A94E5
:1026200069F760957095809590959B01AC01BD010F
:10263000CF010895AA1BBB1B51E107C0AA1FBB1FF6
:10264000A617B70710F0A61BB70B881F991F5A953E
:10265000A9F780959095BC01CD010895EE0FFF1F5D
:0C2660000590F491E02D1994F894FFCF40
:10266C000000010180000A050000000000001708AE
:0A267C008D09AD07DE07BE07070851
:00000001FF
