:100000000C948F010C94C9050C94FA050C942B06E2
:100010000C945C060C948D060C94BE060C94EF06B2
:100020000C9420070C94C0010C94C0010C94C001E6
:100030000C94C0010C94C0010C94C0010C94C0013C
:100040000C94C0010C94C0010C94C0010C94C0012C
:100050000C94C0010C94C0010C94C0010C94630476
:100060000C94C0010C944A0A0C943A0B0C94C001F5
:100070000C94C0010C94C0010C94C0010C94C001FC
:100080000C94C0010C94C0010C94C0010C94C001EC
:100090000C947E0A0C94790B0C94C0010C94C00152
:1000A0000C94C0010C94C0010C94C0010C94C001CC
:1000B0000C94C0010C94C0010C94C0010C94C001BC
:1000C0000C94C0010C94C0010C94C0010C94B20AB1
:1000D0000C94B80B0C94C0010C94E60A0C94F70B2A
:1000E0000C94C001A3056D05750581058E05AF054E
:1000F000BC05660769075C076007A0076D07710705
:1001000077077B077F07850789078D07A007930778
:1001100097079B07840889088E0898081109A20888
:10012000AA08B208BC08C608D008DF08E908110907
:10013000F308FD0807090000090A02080B0C0D0767
:1001400006030401000000000000000000000000A1
:10015000000000000000000000000000000000009F
:10016000000011100F00000000000000000000005F
:10017000000000000000000000000000010210204C
:1001800020080810204010204080020102010804CD
:100190000201010204081020408080402010080461
:1001A00002018004020180402010080402010804BA
:1001B00002010102040810204080010204081020FE
:1001C0004080050505050705080808080202020227
:1001D0000A0A0808040404040101010101010101E3
:1001E0000303030303030303040707070C0C0C0CAE
:1001F0000C0C0C0C02020202060606060606060697
:100200000B0B0B0B0B0B0B0B00002000230026002D
:1002100029002C002F00320000010000030106011C
:10022000090100002200250028002B002E003100CB
:10023000340002010000050108010B01000021004B
:10024000240027002A002D003000330001010000A7
:10025000040107010A010C94B70C0C949B070C9441
:1002600093070C94E9080C947B070C94BC050C9440
:10027000190B0C9460070C9489080C94B2080C9428
:100280008E050C9471070C947F070C94BE020C949D
:1002900075050C94A0070C94A2080C9497070C9475
:1002A000C2010C94C6080C946D050C94AB090C9417
:1002B00099090C946D070C94D0080C94DF080C94E9
:1002C00069070C9484080C9411090C9489070C9408
:1002D000A3050C941C090C9466070C948D070C94D0
:1002E000C6090C94AF050C94E8090C94AA080C9468
:1002F000BC080C94F3080C9498080C945C070C94BC
:10030000FD080C9481050C948E080C9407090C943C
:10031000F3090C9477070C948507BE02B70C1124DF
:100320001FBECFEFD1E2DEBFCDBF00E00CBF12E0B9
:10033000A0E0B2E0E2E8FFE100E00BBF02C00790FE
:100340000D92AA31B107D9F715E0AAE1B2E001C0D8
:100350001D92AA30B107E1F713E0CEE1D3E000E04F
:1003600006C022970109FE010BBF0E94940ECA31FC
:10037000D10780E00807A9F70E9487090C94BF0FF6
:100380000C94000080913302909134020C94570336
:10039000DC01ED91FC910190F081E02D199463EC6A
:1003A00070E084EC92E00E94C80163E070E084ECAD
:1003B00092E00E94C80169E072E084EC92E00C9443
:1003C0007509CF93DF9340E052EC61E070E084EC7C
:1003D00092E00E94360C60E082E00E94A10760E09B
:1003E00083E00E94A10760E084E00E94A10761E031
:1003F00085E00E94A10761E086E00E94A10761E01C
:1004000085E00E94DA0761E086E00E94DA0760E09A
:1004100087E00E94A10741E050E062EC71E080E0DB
:100420000E94580586E190E00E941A09EC010E94A2
:100430004203D0933402C0933302DF91CF910895E9
:100440001F93CF93DF931F92CDB7DEB762E370E0C7
:1004500080E090E00E94D00484EC92E00E94C60903
:10046000682F84EC92E069830E94C609EAE1F2E019
:100470009FEF6981919322E0E333F207D9F72AE1F4
:1004800032E0482F80913302909134020E9477032A
:10049000182F61EC70E084EC92E00E94C801612F9B
:1004A00070E084EC92E00E94C80169E072E084ECA4
:1004B00092E00F90DF91CF911F910C9475091F93DB
:1004C000CF93DF9362E370E080E090E00E94D0047D
:1004D00084EC92E00E94C609182FCAE1D2E084ECB5
:1004E00092E00E94C6098095899382E0C333D807C1
:1004F000B1F784EC92E00E94C609C82F84EC92E028
:100500000E94C609612F80913302909134020E94AB
:10051000D403882359F0C0FF09C080913302909121
:100520003402DF91CF911F910C949203DF91CF9110
:100530001F91089580913302909134020E94220409
:1005400084EC92E00E949909892B99F084EC92E066
:100550000E94C60999278330910549F0823491059C
:1005600021F0019731F40C9420020C945F020C945A
:10057000CF010895FC0111821082089521E04BE320
:100580006AE385E392E00C94620EFC011082118212
:10059000128213820895CF93DF93EC0183E00E94CF
:1005A0001008892B11F082E001C081E0888382303D
:1005B000C1F48B818F3F11F08F5F8B8381E00E94AC
:1005C00039088935924068F081E0898384E00E948F
:1005D0001008892B11F081E001C082E08A838CE150
:1005E0008B83DF91CF910895CF93DF93EC018881C6
:1005F0008130C1F48B81882311F081508B8380E09E
:100600000E9439088935924068F082E0898384E04D
:100610000E941008892B11F082E001C081E08A83DA
:1006200083EE8B83DF91CF9108951F93CF93DF9358
:10063000EC01198282E00E94100811E0892B09F474
:1006400010E080914202811106C0112349F0CE01D1
:100650000E94CB0205C0111103C0CE010E94F4021A
:1006600010934202DF91CF911F910895FC01838185
:100670000895FC0182810895FC0180810895FC01A8
:1006800081810895CF93DF93EC010E94BA02CE01DD
:1006900002960E94C502CE0106960E9430041F8277
:1006A0001A861B861D861C86DF91CF9108950F93B5
:1006B0001F93CF93DF93EC018C010E5F1F4FC80196
:1006C0000E941503C8010E943603888BC8010E944E
:1006D0003C03898BC8010E943F038A8BC8010E949A
:1006E00039038B8BDF91CF911F910F910895FC01FE
:1006F000483CB0F46417A0F48781813089F482E02B
:10070000878362874387378726879FEF958714867D
:1007100010868187CF0106960E945D0481E00895CE
:1007200080E0089521E0FC0120870895CF93DF93B6
:10073000EC0187E00E94100821E0892B09F420E0F9
:1007400080914402882329F0211103C081E08F8326
:1007500003C0209344021F82DF91CF91089560E08F
:1007600085E00C94DA071F93CF93DF93EC01162FEB
:10077000E091C402F091C5020190F081E02D62E8A1
:1007800084EC92E01995612F84EC92E00E94F309C9
:1007900069E072E084EC92E00E94750981E08C8748
:1007A000DF91CF911F910895CF93FC01C485CC2395
:1007B00061F02585621305C0148606960E946004C8
:1007C00004C0622F0E94B303C0E08C2FCF91089524
:1007D0001F93CF93DF93EC0161E085E00E94DA077D
:1007E00080910602882391F01092060260ED77E076
:1007F00080E090E00E94D004CE0106960E94600442
:100800006D856F5F6D87CE010E94B30387E00E9404
:10081000100811E0892B09F410E08091430288232D
:1008200059F0111109C08C85811106C06D856F5F6B
:100830006D87CE010E94B30310934302DF91CF91E5
:100840001F910895FC012781213031F018F02230EA
:1008500029F008950C9496030C94AF030C94E803CC
:1008600008950F931F93CF93DF93C0E0D0E0062F3E
:1008700010E0C017D107C4F460E070E089E00E9486
:100880005E0862E370E080E090E00E94D00464E1E2
:1008900070E089E00E945E0862E370E080E090E032
:1008A0000E94D0042196E5CF6FEF70E089E0DF91E0
:1008B000CF911F910F910C945E0865E00C94310468
:1008C00063E00C9431041F920F920FB60F92112423
:1008D0002F933F938F939F93AF93BF938091460243
:1008E00090914702A0914802B0914902309145028F
:1008F00023E0230F2D3720F40196A11DB11D05C063
:1009000026E8230F0296A11DB11D20934502809376
:10091000460290934702A0934802B0934902809107
:100920004A0290914B02A0914C02B0914D02019667
:10093000A11DB11D80934A0290934B02A0934C02DB
:10094000B0934D02BF91AF919F918F913F912F91A5
:100950000F900FBE0F901F9018953FB7F89480919D
:100960004A0290914B02A0914C02B0914D0226B5E3
:10097000A89B05C02F3F19F00196A11DB11D3FBFD7
:100980006627782F892F9A2F620F711D811D911D67
:1009900042E0660F771F881F991F4A95D1F7089587
:1009A000CF92DF92EF92FF92CF93DF936B017C01A6
:1009B0000E94AD04EB01C114D104E104F10479F00B
:1009C0000E94AD046C1B7D0B683E7340A0F381E078
:1009D000C81AD108E108F108C851DC4FECCFDF910B
:1009E000CF91FF90EF90DF90CF900895789484B5E9
:1009F000826084BD84B5816084BD85B5826085BD1B
:100A000085B5816085BDEEE6F0E080818160808300
:100A1000E1E8F0E0108280818260808380818160E3
:100A20008083E0E8F0E0808181608083E1EBF0E0AA
:100A3000808184608083E0EBF0E08081816080834E
:100A4000E1E9F0E080818260808380818160808341
:100A5000E0E9F0E0808181608083E1EAF0E080817C
:100A600082608083808181608083E0EAF0E0808121
:100A700081608083E1E2F1E0808182608083808117
:100A800081608083E0E2F1E0808181608083EAE739
:100A9000F0E08081846080838081826080838081B7
:100AA000816080838081806880831092C100089576
:100AB000883008F06DC0E82FF0E0EE0FFF1FE25B1A
:100AC000FD4F7183608390E0FC013197E730F105C1
:100AD00090F5EE58FF4F0C948E0E809169008C7F3C
:100AE000842B80936900E89A089580916900440FEF
:100AF000551F440F551F837F842B80936900E99A0B
:100B000008958091690074E0440F551F7A95E1F7CC
:100B10008F7C842B80936900EA9A08958091690004
:100B200066E0440F551F6A95E1F78F73842B80931D
:100B30006900EB9A089580916A008C7F842B8093E2
:100B40006A00EC9A089580916A00440F551F440F83
:100B5000551F837F842B80936A00ED9A08958091BE
:100B60006A0024E0440F551F2A95E1F78F7C842BFF
:100B700080936A00EE9A089580916A0096E0440F8F
:100B8000551F9A95E1F78F73842B80936A00EF9A33
:100B900008951F920F920FB60F9211240BB60F9269
:100BA0002F933F934F935F936F937F938F939F9375
:100BB000AF93BF93EF93FF938091520290915302B2
:100BC000892B29F0E0915202F09153021995FF917F
:100BD000EF91BF91AF919F918F917F916F915F91B5
:100BE0004F913F912F910F900BBE0F900FBE0F9022
:100BF0001F9018951F920F920FB60F9211240BB6EB
:100C00000F922F933F934F935F936F937F938F93A5
:100C10009F93AF93BF93EF93FF9380915402909172
:100C20005502892B29F0E0915402F0915502199553
:100C3000FF91EF91BF91AF919F918F917F916F91B4
:100C40005F914F913F912F910F900BBE0F900FBE70
:100C50000F901F9018951F920F920FB60F921124AC
:100C60000BB60F922F933F934F935F936F937F93A6
:100C70008F939F93AF93BF93EF93FF93809156020F
:100C800090915702892B29F0E0915602F09157027A
:100C90001995FF91EF91BF91AF919F918F917F91A6
:100CA0006F915F914F913F912F910F900BBE0F90DD
:100CB0000FBE0F901F9018951F920F920FB60F92B4
:100CC00011240BB60F922F933F934F935F936F9323
:100CD0007F938F939F93AF93BF93EF93FF938091F5
:100CE000580290915902892B29F0E0915802F09115
:100CF00059021995FF91EF91BF91AF919F918F91FB
:100D00007F916F915F914F913F912F910F900BBE0B
:100D10000F900FBE0F901F9018951F920F920FB655
:100D20000F9211240BB60F922F933F934F935F9323
:100D30006F937F938F939F93AF93BF93EF93FF93A3
:100D400080914E0290914F02892B29F0E0914E0242
:100D5000F0914F021995FF91EF91BF91AF919F9143
:100D60008F917F916F915F914F913F912F910F9054
:100D70000BBE0F900FBE0F901F9018951F920F92F1
:100D80000FB60F9211240BB60F922F933F934F93F0
:100D90005F936F937F938F939F93AF93BF93EF93E3
:100DA000FF938091500290915102892B29F0E0919C
:100DB0005002F09151021995FF91EF91BF91AF91BF
:100DC0009F918F917F916F915F914F913F912F9163
:100DD0000F900BBE0F900FBE0F901F9018951F9293
:100DE0000F920FB60F9211240BB60F922F933F93D1
:100DF0004F935F936F937F938F939F93AF93BF9323
:100E0000EF93FF9380915A0290915B02892B29F016
:100E1000E0915A02F0915B021995FF91EF91BF9119
:100E2000AF919F918F917F916F915F914F913F9182
:100E30002F910F900BBE0F900FBE0F901F90189523
:100E40001F920F920FB60F9211240BB60F922F9391
:100E50003F934F935F936F937F938F939F93AF9342
:100E6000BF93EF93FF9380915C0290915D02892B79
:100E700029F0E0915C02F0915D021995FF91EF91EC
:100E8000BF91AF919F918F917F916F915F914F91A2
:100E90003F912F910F900BBE0F900FBE0F901F90A0
:100EA000189590E0FC013197E131F10508F048C058
:100EB000E758FF4F0C948E0E809180008F7703C00F
:100EC000809180008F7D80938000089584B58F7716
:100ED00002C084B58F7D84BD08958091B0008F7766
:100EE00003C08091B0008F7D8093B0000895809101
:100EF00090008F7707C0809190008F7D03C0809114
:100F00009000877F8093900008958091A0008F7754
:100F100007C08091A0008F7D03C08091A000877FD3
:100F20008093A0000895809120018F7707C0809161
:100F300020018F7D03C080912001877F8093200155
:100F40000895CF93DF9390E0FC01E458FE4F249185
:100F5000FC01EE53FE4F8491882349F190E0880F05
:100F6000991FFC01E45CFD4FA591B4918E5D9D4FEE
:100F7000FC01C591D4919FB7611108C0F8948C9180
:100F8000209582238C93888182230AC0623051F499
:100F9000F8948C91322F309583238C938881822B07
:100FA000888304C0F8948C91822B8C939FBFDF912F
:100FB000CF9108950F931F93CF93DF931F92CDB7D7
:100FC000DEB7282F30E0F901EA5CFE4F8491F90189
:100FD000E458FE4F1491F901EE53FE4F04910023A3
:100FE000C9F0882321F069830E9451076981E02FAD
:100FF000F0E0EE0FFF1FEE5DFD4FA591B4919FB79E
:10100000F8948C91611103C01095812301C0812B4C
:101010008C939FBF0F90DF91CF911F910F910895F7
:10102000CF93DF93282F30E0F901EA5CFE4F8491E3
:10103000F901E458FE4FD491F901EE53FE4FC491EB
:10104000CC2391F081110E945107EC2FF0E0EE0FBC
:10105000FF1FE85FFD4FA591B4912C912D2381E0F6
:1010600090E021F480E002C080E090E0DF91CF9139
:101070000895863308F0865320917B00982F98704E
:10108000277F922B90937B0087702091070290E43A
:10109000299F90011124822B80937C0080917A00FB
:1010A000806480937A0080917A0086FDFCCF8091E5
:1010B00078002091790090E0922B08951F93CF93B0
:1010C000DF93182FEB0161E00E94A107209711F434
:1010D00060E004C0CF3FD10539F461E0812FDF919A
:1010E000CF911F910C94DA07E12FF0E0EA5CFE4FFC
:1010F000449150E0FA013197E131F10508F091C0D7
:10110000E657FF4F0C948E0E84B5806884BDC7BD32
:101110008DC084B5806284BDC8BD88C080918000C8
:10112000806880938000D0938900C09388007EC03F
:1011300080918000806280938000D0938B00C09368
:101140008A0074C08091B00080688093B000C09322
:10115000B3006CC08091B00080628093B000C093F7
:10116000B40064C080919000806880939000D09318
:101170009900C09398005AC080919000806280933B
:101180009000D0939B00C0939A0050C08091900033
:10119000886080939000D0939D00C0939C0046C0CF
:1011A0008091A00080688093A0008091A0008F7B38
:1011B0008093A000D093A900C093A80037C080916D
:1011C000A00080628093A000D093AB00C093AA00DF
:1011D0002DC08091A00088608093A000D093AD00C6
:1011E000C093AC0023C080912001806880932001CF
:1011F000D0932901C093280119C0809120018062F9
:1012000080932001D0932B01C0932A010FC08091BD
:101210002001886080932001D0932D01C0932C0180
:1012200005C0C038D1050CF058CF52CFDF91CF9117
:101230001F9108950C94980ECF92DF92EF92FF9237
:101240000F931F93CF93DF936C017A01EB01E60EAE
:10125000F71E00E010E0CE15DF0561F06991D601C0
:10126000ED91FC910190F081E02DC6011995080FD8
:10127000191FF1CFC801DF91CF911F910F91FF90FE
:10128000EF90DF90CF9008956115710581F0DB013B
:101290000D900020E9F7AD0141505109461B570B55
:1012A000DC01ED91FC910280F381E02D199480E046
:1012B00090E00895DC01ED91FC910190F081E02D2A
:1012C00019940F931F93CF93DF93EC016DE00E946D
:1012D0005A098C016AE0CE010E945A09800F911FC1
:1012E000DF91CF911F910F9108950F931F93CF938B
:1012F000DF93EC010E9444098C01CE010E94610938
:10130000800F911FDF91CF911F910F9108958091D0
:1013100008028F5F809308020E94F6040E94E10198
:10132000C9E1DBE00E949A022097E1F30E94190BC9
:10133000F9CFFC0124853585F901E05CFF4F808100
:101340009181F901EE5BFF4F20813181821B930B6C
:101350008F7399270895FC0184859585FC01E05CD5
:10136000FF4F40815181FC01EE5BFF4F20813181B5
:101370004217530741F00190F081E02DE80FF91F6B
:10138000808190E008958FEF9FEF0895FC018485A0
:101390009585FC01E05CFF4F40815181FC01EE5BD3
:1013A000FF4F208131814217530779F0A081B1812D
:1013B000A80FB91F8C91208131812F5F3F4F2F7370
:1013C00033273183208390E008958FEF9FEF0895B6
:1013D000FC0181A1882329F0A489B5898C9186FF1D
:1013E000FBCF11A20895CF93DF93FC0126853785AB
:1013F000D901A05CBF4F8D919C91119701968F737D
:101400009927E901CE5BDF4F488159818417950701
:10141000D9F30D90BC91A02DA20FB31F6C93A6859C
:10142000B785A05CBF4F11969C938E93A689B78910
:101430002C9181E090E0078C02C0880F991F0A94DC
:10144000E2F7282B2C9381E081A30488F589E02D15
:1014500080818064808381E090E0DF91CF91089566
:10146000FB01E05CFF4F208131812F5F3F4F2F73E5
:101470003327DB01AE5BBF4F4D915C9124173507DD
:1014800039F0A081B181A60FB71F8C9331832083DF
:10149000089508951F920F920FB60F9211240BB664
:1014A0000F922F933F934F935F936F937F938F93FD
:1014B0009F93AF93BF93EF93FF938091C00082FD02
:1014C00007C08091C60062EC74E00E94300A02C03E
:1014D0008091C600FF91EF91BF91AF919F918F9145
:1014E0007F916F915F914F913F912F910F900BBE24
:1014F0000F900FBE0F901F90189508951F920F9296
:101500000FB60F9211240BB60F922F933F934F9368
:101510005F936F937F938F939F93AF93BF93EF935B
:10152000FF938091C80082FD07C08091CE006AE3DE
:1015300074E00E94300A02C08091CE00FF91EF91CA
:10154000BF91AF919F918F917F916F915F914F91DB
:101550003F912F910F900BBE0F900FBE0F901F90D9
:10156000189508951F920F920FB60F9211240BB683
:101570000F922F933F934F935F936F937F938F932C
:101580009F93AF93BF93EF93FF938091D00082FD21
:1015900007C08091D60062EB73E00E94300A02C05F
:1015A0008091D600FF91EF91BF91AF919F918F9164
:1015B0007F916F915F914F913F912F910F900BBE53
:1015C0000F900FBE0F901F90189508951F920F92C5
:1015D0000FB60F9211240BB60F922F933F934F9398
:1015E0005F936F937F938F939F93AF93BF93EF938B
:1015F000FF938091300182FD07C0809136016AE23D
:1016000073E00E94300A02C080913601FF91EF9191
:10161000BF91AF919F918F917F916F915F914F910A
:101620003F912F910F900BBE0F900FBE0F901F9008
:10163000189584EC92E00E949909892B11F00E9480
:10164000490A82EA92E00E949909892B11F00E94CE
:101650007D0A80E892E00E949909892B11F00E948E
:10166000B10A8EE592E00E949909892B11F00C9441
:10167000E50A08951F920F920FB60F9211240BB630
:101680000F922F933F938F939F93EF93FF9320910C
:10169000BE043091BF048091C0049091C10428170A
:1016A000390731F48091C1008F7D8093C10014C04F
:1016B000E091C004F091C104E258FB4F2081809179
:1016C000C0049091C10401968F7399279093C1042F
:1016D0008093C0042093C600FF91EF919F918F915A
:1016E0003F912F910F900BBE0F900FBE0F901F9048
:1016F00018951F920F920FB60F9211240BB60F92EE
:101700002F933F938F939F93EF93FF9320913604F2
:1017100030913704809138049091390428173907A3
:1017200031F48091C9008F7D8093C90014C0E0918D
:101730003804F0913904EA50FC4F2081809138043C
:101740009091390401968F7399279093390480936F
:1017500038042093CE00FF91EF919F918F913F919C
:101760002F910F900BBE0F900FBE0F901F901895EA
:101770001F920F920FB60F9211240BB60F922F9358
:101780003F938F939F93EF93FF932091AE033091FC
:10179000AF038091B0039091B1032817390731F45A
:1017A0008091D1008F7D8093D10014C0E091B0036F
:1017B000F091B103E259FC4F20818091B0039091E8
:1017C000B10301968F7399279093B1038093B0036F
:1017D0002093D600FF91EF919F918F913F912F9190
:1017E0000F900BBE0F900FBE0F901F9018951F9279
:1017F0000F920FB60F9211240BB60F922F933F93B7
:101800008F939F93EF93FF932091260330912703AB
:1018100080912803909129032817390731F480918A
:1018200031018F7D8093310114C0E0912803F09144
:101830002903EA51FD4F20818091280390912903CB
:1018400001968F73992790932903809328032093FF
:101850003601FF91EF919F918F913F912F910F90C2
:101860000BBE0F900FBE0F901F901895CF92DF9276
:10187000EF92FF92CF93DF93EC016A017B01411558
:1018800081EE580761057105F9F0EC89FD8981E069
:1018900090E008A002C0880F991F0A94E2F78083A5
:1018A00060E079E08DE390E0A70196010E946C0E64
:1018B000215031094109510956954795379527958A
:1018C000211580E1380798F0EC89FD89108260E8E5
:1018D00074E88EE190E0A70196010E946C0E215001
:1018E0003109410951095695479537952795E8895A
:1018F000F9893083EA89FB89208319A2EE89FF895F
:10190000408181E090E09C010C8C02C0220F331FCB
:101910000A94E2F7422B4083EE89FF8940819C01C3
:101920000D8C02C0220F331F0A94E2F7422B408332
:10193000EE89FF8940819C010E8C02C0220F331F6B
:101940000A94E2F7422B4083EE89FF8920810F8CB5
:1019500002C0880F991F0A94E2F780958223808342
:10196000DF91CF91FF90EF90DF90CF900895CF93CC
:101970001092C7021092C60288EE93E0A0E0B0E099
:101980008093C8029093C902A093CA02B093CB027D
:101990002EE032E03093C5022093C40242EC54E0C2
:1019A0005093D1024093D0024EE754E05093D302BB
:1019B0004093D20245EC50E05093D5024093D402BC
:1019C00044EC50E05093D7024093D60240EC50E0F4
:1019D0005093D9024093D80241EC50E05093DB027F
:1019E0004093DA0242EC50E05093DD024093DC0277
:1019F00046EC50E05093DF024093DE02C4E0C09317
:101A0000E002F3E0F093E102E7E0E093E20275E048
:101A10007093E30261E06093E4021092A5021092D9
:101A2000A4028093A6029093A702A093A802B09369
:101A3000A9023093A3022093A2024AE354E05093F8
:101A4000AF024093AE0246EF53E05093B102409391
:101A5000B0024DEC50E05093B3024093B2024CEC14
:101A600050E05093B5024093B40248EC50E05093DC
:101A7000B7024093B60249EC50E05093B90240934C
:101A8000B8024AEC50E05093BB024093BA024EECCD
:101A900050E05093BD024093BC02C093BE02F0934D
:101AA000BF02E093C0027093C1026093C202109221
:101AB0008302109282028093840290938502A09305
:101AC0008602B0938702309381022093800242EB1A
:101AD00053E050938D0240938C024EE653E05093B6
:101AE0008F0240938E0245ED50E050939102409357
:101AF000900244ED50E0509393024093920240EDE7
:101B000050E0509395024093940241ED50E0509381
:101B100097024093960242ED50E050939902409311
:101B2000980246ED50E050939B0240939A02C09376
:101B30009C02F0939D02E0939E0270939F0260933B
:101B4000A002109261021092600280936202909350
:101B50006302A0936402B093650230935F02209306
:101B60005E028AE293E090936B0280936A0286EEB3
:101B700092E090936D0280936C0285E391E09093E4
:101B80006F0280936E0284E391E0909371028093E0
:101B9000700280E391E0909373028093720281E37C
:101BA00091E0909375028093740282E391E09093A8
:101BB00077028093760286E391E090937902809396
:101BC0007802C0937A02F0937B02E0937C027093D8
:101BD0007D0260937E02CF910895DC011C962C93C8
:101BE0001C976C9311964C931197262F30E0F901B6
:101BF000E458FE4FE4911296EC931297842F90E0F4
:101C0000FC01E458FE4FE4911396EC931397F9010D
:101C1000EE53FE4F249130E0220F331FF901EE5DA9
:101C2000FD4F4591549115965C934E931497245C07
:101C30003D4FF9012591349119963C932E931897B5
:101C4000FC01EE53FE4F849190E0880F991FFC0138
:101C5000EE5DFD4F2591349117963C932E93169788
:101C6000845C9D4FFC01859194911B969C938E936F
:101C70001A970895FC01A085B1859C918281809579
:101C800089238C938485882331F0A481B5818C913C
:101C90009281892B8C93A285B3859C9183818095B9
:101CA00089238C938485882331F0A681B7818C9118
:101CB0009381892B8C9387EC90E00197F1F700C01A
:101CC00000000895CF93DF93EC010E94ED0DCE014B
:101CD000DF91CF910C943A0EA1E21A2EAA1BBB1BE6
:101CE000FD010DC0AA1FBB1FEE1FFF1FA217B307E8
:101CF000E407F50720F0A21BB30BE40BF50B661FFE
:101D0000771F881F991F1A9469F7609570958095C1
:101D100090959B01AC01BD01CF010895EE0FFF1F0F
:101D20000590F491E02D19940790F691E02D199407
:101D3000CF93DF938230910510F482E090E0E09140
:101D40000805F091090520E030E0A0E0B0E0309710
:101D500039F14081518148175907B8F048175907A0
:101D600071F482819381109729F013969C938E933E
:101D700012972CC0909309058093080527C0211560
:101D8000310531F04217530718F0A901DB0101C0FA
:101D9000EF019A01BD01DF010280F381E02DD7CF71
:101DA00021153105F9F0281B390B2430310580F459
:101DB0008A819B816115710521F0FB0193838283E8
:101DC00004C09093090580930805FE01329644C033
:101DD000FE01E20FF31F8193919322503109398361
:101DE00028833AC02091060530910705232B41F442
:101DF00020910202309103023093070520930605DB
:101E000020910002309101022115310541F42DB7D6
:101E10003EB74091040250910502241B350BE0911E
:101E20000605F0910705E217F307A0F42E1B3F0B00
:101E30002817390778F0AC014E5F5F4F241735073C
:101E400048F04E0F5F1F509307054093060581939E
:101E5000919302C0E0E0F0E0CF01DF91CF910895CF
:101E6000CF93DF93009709F487C0FC013297138268
:101E70001282C0910805D0910905209781F4208134
:101E80003181280F391F809106059091070582172F
:101E9000930779F5F0930705E09306056DC0DE0121
:101EA00020E030E0AE17BF0750F412964D915C91E0
:101EB00013979D014115510509F1DA01F3CFB38361
:101EC000A28340815181840F951F8A179B0771F46B
:101ED0008D919C911197840F951F02969183808319
:101EE00012968D919C9113979383828321153105CE
:101EF00029F4F0930905E09308053EC0D901139633
:101F0000FC93EE9312974D915D91A40FB51FEA17C4
:101F1000FB0779F480819181840F951F0296D90186
:101F200011969C938E938281938113969C938E93AA
:101F30001297E0E0F0E08A819B81009719F0FE01A2
:101F4000EC01F9CFCE01029628813981820F931FCF
:101F500020910605309107052817390769F4309755
:101F600029F4109209051092080502C0138212820A
:101F7000D0930705C0930605DF91CF910895F8949B
:021F8000FFCF91
:101F820000000A0520000101010000000000F30921
:0A1F92001C099909C609AB09E8090A
:00000001FF
