:100000000C9463000C94F8060C9425070C948B0058
:100010000C948B000C948B000C948B000C948B0034
:100020000C948B000C948B000C948B000C948B0024
:100030000C948B000C948B000C948B000C948B0014
:100040000C94F9050C948B000C9449090C949B09B1
:100050000C948B000C948B000C948B000C948B00F4
:100060000C94EC0D0C948B00000000002400270081
:100070002A0000000000250028002B0000000000DE
:1000800023002600290004040404040404040202DA
:100090000202020203030303030301020408102007
:1000A0004080010204081020010204081020000012
:1000B0000007000201000003040600000000000029
:1000C00000000A0B880C11241FBECFEFD8E0DEBF62
:1000D000CDBF11E0A0E0B1E0E8EDFFE102C0059086
:1000E0000D92AA32B107D9F712E0AAE2B1E001C03D
:1000F0001D92A93CB107E1F710E0C6ECD0E004C0C6
:100100002297FE010E94E60FC23CD107C9F70E9468
:1001100037090C94EA0F0C940000CF93DF93BC01D5
:100120008230910510F462E070E0A091C702B091B6
:10013000C802ED0140E050E0E0E0F0E021C088813D
:1001400099818617970769F48A819B81309719F006
:100150009383828304C09093C8028093C702FE01F8
:1001600034C06817790738F44115510519F0841720
:10017000950708F4AC01FE018A819B819C01E9018D
:100180002097E9F641155105A9F1CA01861B970B85
:10019000049708F4BA01E0E0F0E02AC08D919C9148
:1001A000119784179507F9F46417750781F412966F
:1001B0008D919C911397309719F09383828304C09B
:1001C0009093C8028093C702FD0132964CC0CA01C9
:1001D000861B970BFD01E80FF91F6193719302973E
:1001E0008D939C9340C0FD01828193819C01D90134
:1001F0001097A1F68091C5029091C602892B41F417
:1002000080910401909105019093C6028093C502EC
:1002100040910601509107014115510541F44DB738
:100220005EB78091020190910301481B590B209108
:10023000C5023091C602CA01821B930B861797072D
:1002400080F0AB014E5F5F4F8417950750F0420F6F
:10025000531F5093C6024093C502F90161937193F5
:1002600002C0E0E0F0E0CF01DF91CF910895CF939D
:10027000DF93009709F450C0EC0122971B821A8289
:10028000A091C702B091C802109709F140E050E078
:10029000AC17BD0708F1BB83AA83FE012191319100
:1002A000E20FF31FAE17BF0779F48D919C91119760
:1002B000280F391F2E5F3F4F3983288312968D9167
:1002C0009C9113979B838A834115510571F4D093B8
:1002D000C802C093C70220C012968D919C911397BB
:1002E000AD01009711F0DC01D3CFFA01D383C283B3
:1002F00021913191E20FF31FCE17DF0769F4888156
:100300009981280F391F2E5F3F4FFA0131832083D7
:100310008A819B8193838283DF91CF9108950F938C
:100320001F9383EE91E040E052EC61E070E00E94A8
:10033000D60982E060E00E94520783E060E00E94FC
:10034000520784E060E00E94520785E061E00E946D
:10035000520786E061E00E94520785E061E00E945A
:10036000910786E061E00E94910787E060E00E94CB
:10037000520780E069E072E041E050E00E94D5065B
:1003800088E190E00E94BA08182F092F0E94A60564
:1003900010932A0100932B011F910F9108950F9341
:1003A0001F93CF93DF9362E370E080E090E00E94C0
:1003B000410683EE91E00E94910A082FCCE2D1E041
:1003C00083EE91E00E94910A8095899381E0C53483
:1003D000D807B1F783EE91E00E94910A182F83EEBF
:1003E00091E00E94910A80912A0190912B01602F47
:1003F0000E948004882341F010FF06C080912A01EA
:1004000090912B010E94B503DF91CF911F910F9125
:10041000089580912A0190912B010E947D050895F5
:10042000FF920F931F9380912A0190912B010E94BC
:10043000AB03F82E03EE11E0C80164EC0E94CA0A77
:10044000C8016F2D0E94CA0AC80160E071E00E94D5
:1004500023091F910F91FF9008950F931F9303EEAF
:1004600011E0C80163EC0E94CA0AC80164E00E945E
:10047000CA0AC80160E00E94CA0AC8016BE50E946E
:10048000CA0AC80160E071E00E9423091F910F9120
:1004900008951F9362E370E080E090E00E944106BF
:1004A00083EE91E00E94910A182F83EE91E00E9462
:1004B000910A482FECE2F1E08FEF819391E0E5346F
:1004C000F907D9F7799780912A0190912B01612F33
:1004D0009F010E946205182F83EE91E061EC0E945B
:1004E000CA0A83EE91E0612F0E94CA0A83EE91E06E
:1004F00060E071E00E9423091F91089580912A0114
:1005000090912B010E94470583EE91E00E945D0AC5
:10051000892BD9F083EE91E00E94910A833081F01B
:10052000843018F4813089F405C0843061F082345D
:1005300061F403C00E94490208950E94CF0108950A
:100540000E942D0208950E9410020895FC0111825C
:10055000108208951F93172F85E491E00E948B0B62
:1005600087E491E0612F0E948B0B1F910895FC019D
:10057000718360830E94AA020895FC01603140F5F6
:1005800020813181442371F081E090E0A0E0B0E06F
:1005900004C0880F991FAA1FBB1F6A95D2F7282B8A
:1005A000392B0FC081E090E0A0E0B0E004C0880FDC
:1005B000991FAA1FBB1F6A95D2F780959095282393
:1005C00039233183208360817181CF010E94AA0287
:1005D00008951F9385E491E060E00E94E90B87E4B1
:1005E00091E061E00E94E90B10E085E491E0612F69
:1005F00041E00E94BD0B87E491E0612F41E00E9441
:10060000BD0B1F5F183089F71F910895FC01108200
:1006100011821282138214820895FC01848108954C
:10062000FC0182810895FC0180810895FC01818193
:100630000895FC0183810895613029F0623029F02A
:1006400020E030E006C081E001C080E00E94380870
:100650009C01C9010895CF93DF93EC01888181301B
:10066000E1F48C81882311F081508C8380E00E941A
:100670003808885C90408853934078F082E0898302
:1006800081E08B8384E00E94E507892B11F481E0EF
:1006900001C082E08A8383EE8C83DF91CF9108953D
:1006A000CF93DF93EC0183E00E94E507892B11F4DF
:1006B00081E001C082E08883823049F58C818F3FE0
:1006C00011F08F5F8C8381E00E9438089C01885C68
:1006D000904081599140D8F081E08983283C3105D0
:1006E00008F482E08B8384E00E94E507892B11F4F3
:1006F00082E001C081E08A83813019F486E061E004
:1007000002C086E060E00E9491078CE18C83DF915B
:10071000CF9108951F93CF93DF93EC01198282E06C
:100720000E94E50710E0892B09F011E08091490152
:10073000882331F4112349F0CE010E94500305C0F3
:10074000112319F4CE010E942B0310934901DF916C
:10075000CF911F910895FC018085823010F080E0D8
:10076000089583E0808781E0089521E0FC012187DE
:100770000895FC0182898130E1F08230A1F5818900
:10078000883288F18852878B885D9489913011F482
:100790008F7008C0923039F490E0089760E170E003
:1007A0000E949B0F868B85898230F9F48789885F48
:1007B00017C08189803FB8F48051878B805F94890E
:1007C000913029F490E008968F70907003C09230B9
:1007D00011F48F70868B8589823039F48789805136
:1007E000878B81E0089580E0089581E00895AF92BD
:1007F000BF92DF92EF92FF920F931F935C01F62E50
:1008000003EE11E0C80164E80E94CA0AC8016F2D16
:100810000E94CA0A82E0E82EF12CEA0CFB1CC701F8
:1008200061E00E941C03D82E692FC8010E94CA0AE9
:10083000C8016D2D0E94CA0AC70162E00E941C0314
:10084000D82E692FC8010E94CA0AC8016D2D0E94C6
:10085000CA0AC7010E941903682FC8010E94CA0A68
:10086000C801F50167890E94CA0AC80161E071E008
:100870000E9423091F910F91FF90EF90DF90BF908E
:10088000AF900895CF92DF92FF920F931F936C0168
:10089000F62E03EE11E0C80162E80E94CA0AC80100
:1008A0006F2D0E94CA0AC80161E071E00E9423090D
:1008B00081E0F60185871F910F91FF90DF90CF9027
:1008C0000895CF93DF93EC01998980914A018917AC
:1008D00029F090934A01CE010E94B90364EF71E0C0
:1008E00080E090E00E944106CE0160E00E94F703A4
:1008F000DF91CF91089585E060E00E94910708950F
:10090000FC01962F8585882371F06685961739F44A
:100910001586CF0107960E94F10581E00895CF0169
:100920000E94420480E00895EF92FF920F931F937C
:10093000CF93DF93EC0185E061E00E949107809105
:100940000801882391F01092080160ED77E080E0C3
:1009500090E00E944106CE0107960E94F1056E8547
:100960006F5F6E87CE010E944204998980914C018D
:10097000891709F466C090934C01CE010E94B90317
:10098000882309F45EC04F89242F30E08B8590E0E6
:100990000C97281739073CF18C8590E00C9682174C
:1009A00093070CF181E080934B014695469546955F
:1009B000842F90E0EF85F889E80FF91F408150E01F
:1009C00063E0880F991F6A95E1F7281B390B02C075
:1009D000559547952A95E2F741705070CE016E8982
:1009E0000E94BD022EC0FC2EED2ECE016E8941E08C
:1009F0000E94BD0280914B01882319F110924B0196
:100A00008D85882351F48985882339F46E856F5F3D
:100A10006E87CE010E94420414C08985882389F024
:100A20008E01095F1F4FC8010E94ED0581E0888794
:100A30008F2D9E2D6FEF7FEF0E94B702C8010E949D
:100A4000F105DF91CF911F910F91FF90EF900895E5
:100A5000CF93DF93EC018A89823029F48B8981302E
:100A600011F480934D0180914D01882361F081E064
:100A70008887CE016FEF7FEF0E94B702CE0161E061
:100A80000E94F70301C01886DF91CF910895FC0101
:100A90008085813059F0813028F0823059F08330E0
:100AA00081F40CC0CF010E9428050895CF010E9457
:100AB0007B040895CF010E9494040895CF010E9401
:100AC00061040895FC01483CB0F46417A0F48085EB
:100AD000813089F492E0908763874487308B278741
:100AE0008FEF8687158611869287CF0107960E9421
:100AF000F50581E0089580E00895EF92FF920F934D
:100B00001F937C018C010E5F1F4FC8010E948A0356
:100B1000C8010E940D03F701818BC8010E941303D5
:100B2000F701828BC8010E941603F701838BC8016D
:100B30000E941003F701848BC8010E941903F7017A
:100B4000858B1F910F91FF90EF9008950F931F9346
:100B50008C010E94A602C80102960E940603C801E9
:100B600007960E94BF05F801108613861486168624
:100B70001586C8010E94E9021F910F9108950895FA
:100B80000F931F93CF93DF93C0E0D0E0062F10E0C8
:100B900017C089E060E070E00E945A0862E370E0EC
:100BA00080E090E00E94410689E064E170E00E94EC
:100BB0005A0862E370E080E090E00E9441062196CE
:100BC000C017D10734F389E06FEF70E00E945A0834
:100BD000DF91CF911F910F9108956AE00E94C005A7
:100BE000089563E00E94C005089565E00E94C00575
:100BF00008951F920F920FB60F9211242F933F93D7
:100C00008F939F93AF93BF93809152019091530123
:100C1000A0915401B0915501309156010196A11D4A
:100C2000B11D232F2D5F2D3720F02D570196A11DCB
:100C3000B11D209356018093520190935301A093CC
:100C40005401B093550180914E0190914F01A091B4
:100C50005001B09151010196A11DB11D80934E012B
:100C600090934F01A0935001B0935101BF91AF9168
:100C70009F918F913F912F910F900FBE0F901F90DA
:100C800018959B01AC017FB7F89480914E0190912B
:100C90004F01A0915001B091510166B5A89B05C0CC
:100CA0006F3F19F00196A11DB11D7FBFBA2FA92F6B
:100CB000982F8827860F911DA11DB11D62E0880F16
:100CC000991FAA1FBB1F6A95D1F7BC012DC0FFB7A2
:100CD000F89480914E0190914F01A0915001B091F4
:100CE0005101E6B5A89B05C0EF3F19F00196A11D83
:100CF000B11DFFBFBA2FA92F982F88278E0F911DE6
:100D0000A11DB11DE2E0880F991FAA1FBB1FEA9524
:100D1000D1F7861B970B885E9340C8F22150304074
:100D20004040504068517C4F211531054105510527
:100D300071F60895789484B5826084BD84B581602D
:100D400084BD85B5826085BD85B5816085BDEEE6D3
:100D5000F0E0808181608083E1E8F0E010828081B2
:100D600082608083808181608083E0E8F0E0808120
:100D700081608083E1EBF0E0808184608083E0EB40
:100D8000F0E0808181608083EAE7F0E08081846028
:100D90008083808182608083808181608083808184
:100DA000806880831092C1000895823000F5E82F9A
:100DB000F0E0EE0FFF1FE95AFE4F71836083882336
:100DC00019F08130A1F408C0809169008C7F842BD8
:100DD00080936900E89A089580916900440F551F37
:100DE000440F551F837F842B80936900E99A0895EF
:100DF0001F920F920FB60F9211242F933F934F9390
:100E00005F936F937F938F939F93AF93BF93EF9372
:100E1000FF938091570190915801892B29F0E0911F
:100E20005701F09158010995FF91EF91BF91AF9152
:100E30009F918F917F916F915F914F913F912F91F2
:100E40000F900FBE0F901F9018951F920F920FB624
:100E50000F9211242F933F934F935F936F937F9340
:100E60008F939F93AF93BF93EF93FF93809159011B
:100E700090915A01892B29F0E0915901F0915A0182
:100E80000995FF91EF91BF91AF919F918F917F91C4
:100E90006F915F914F913F912F910F900FBE0F90E7
:100EA0001F901895CF93DF93482F50E0CA018656C4
:100EB0009F4FFC0134914A575F4FFA018491882378
:100EC00069F190E0880F991FFC01E859FF4FA59147
:100ED000B491FC01EE58FF4FC591D491662351F4B3
:100EE0002FB7F8948C91932F909589238C938881B8
:100EF00089230BC0623061F42FB7F8948C91932F43
:100F0000909589238C938881832B88832FBF06C07B
:100F10009FB7F8948C91832B8C939FBFDF91CF91D7
:100F20000895482F50E0CA0182559F4FFC0124913B
:100F3000CA0186569F4FFC0194914A575F4FFA01B0
:100F40003491332309F440C0222351F1233071F04E
:100F5000243028F42130A1F0223011F514C02630BD
:100F6000B1F02730C1F02430D9F404C08091800062
:100F70008F7703C0809180008F7D8093800010C0A8
:100F800084B58F7702C084B58F7D84BD09C0809100
:100F9000B0008F7703C08091B0008F7D8093B00048
:100FA000E32FF0E0EE0FFF1FEE58FF4FA591B49135
:100FB0002FB7F894662321F48C919095892302C071
:100FC0008C91892B8C932FBF0895682F70E0CB01F3
:100FD00082559F4FFC012491CB0186569F4FFC0107
:100FE00044916A577F4FFB019491992319F420E0B3
:100FF00030E03CC0222351F1233071F0243028F43A
:101000002130A1F0223011F514C02630B1F0273084
:10101000C1F02430D9F404C0809180008F7703C0E0
:10102000809180008F7D8093800010C084B58F7781
:1010300002C084B58F7D84BD09C08091B0008F77D8
:1010400003C08091B0008F7D8093B000892F90E025
:10105000880F991F84589F4FFC01A591B4918C91E2
:1010600020E030E0842311F021E030E0C901089550
:10107000982F8E3008F09E509770809109018295CC
:10108000880F880F807C892B80937C0080917A0068
:10109000806480937A0080917A0086FDFCCF209155
:1010A000780040917900942F80E030E0282B392B94
:1010B000C90108951F93CF93DF93182FEB0161E0CF
:1010C0000E945207209709F44AC0CF3FD10509F486
:1010D00049C0E12FF0E0E255FF4F84918330C1F029
:1010E000843028F4813051F08230B1F50CC0863064
:1010F00019F1873049F1843079F514C084B58068DE
:1011000084BDC7BD33C084B5806284BDC8BD2EC058
:1011100080918000806880938000D0938900C09384
:10112000880024C080918000806280938000D093EA
:101130008B00C0938A001AC08091B00080688093B1
:10114000B000C093B30012C08091B0008062809361
:10115000B000C093B4000AC0C038D1051CF4812F80
:1011600060E002C0812F61E00E949107DF91CF9182
:101170001F9108950E948D000895CF92DF92EF9203
:10118000FF920F931F93CF93DF937C016B018A0132
:10119000C0E0D0E00FC0D6016D916D01D701ED9197
:1011A000FC910190F081E02DC7010995C80FD91F6E
:1011B000015010400115110571F7CE01DF91CF915B
:1011C0001F910F91FF90EF90DF90CF900895EF92D5
:1011D000FF920F931F938C01DC01ED91FC91019024
:1011E000F081E02D6DE009957C01D801ED91FC9135
:1011F0000190F081E02DC8016AE009959C012E0D57
:101200003F1DC9011F910F91FF90EF900895CF935B
:10121000DF93EC016115710519F420E030E00FC097
:10122000DB010D900020E9F71197A61BB70BE881B1
:10123000F9810280F381E02DAD0109959C01C9017E
:10124000DF91CF910895EF92FF920F931F937C014E
:101250000E9407098C01C7010E94E708080F191FA7
:10126000C8011F910F91FF90EF9008950895CF93BB
:10127000DF930E949A060E9436090E948F01C4E8FB
:10128000D9E00E947E022097E1F30E948409F9CF01
:1012900008951F920F920FB60F9211242F933F9330
:1012A0004F938F939F93EF93FF938091C00082FDA4
:1012B0001DC04091C60020919B0130919C012F5F81
:1012C0003F4F2F73307080919D0190919E012817A0
:1012D000390771F0E0919B01F0919C01E55AFE4FB6
:1012E000408330939C0120939B0102C08091C600F3
:1012F000FF91EF919F918F914F913F912F910F907F
:101300000FBE0F901F901895E091EF01F091F00142
:10131000E05CFF4F8191919120813181805C9F4FF2
:10132000821B930B60E470E00E949B0F892B11F0ED
:101330000E94480908951F920F920FB60F92112430
:101340002F933F938F939F93EF93FF932091DF0110
:101350003091E0018091E1019091E2012817390775
:1013600031F48091C1008F7D8093C10014C0E09161
:10137000E101F091E201E156FE4F20818091E1010F
:101380009091E20101968F7390709093E2018093A7
:10139000E1012093C600FF91EF919F918F913F91C2
:1013A0002F910F900FBE0F901F901895AF92BF9284
:1013B000DF92EF92FF920F931F93CF93DF93EC0195
:1013C0007A018B01DD24403081EE580780E0680708
:1013D00080E0780711F0DD24D39491E0A92EB12CA0
:1013E000EC89FD89DD2069F0C50108A002C0880FE5
:1013F000991F0A94E2F7808360E079E08DE390E042
:1014000005C0108260E874E88EE190E0A8019701C1
:101410000E94AE0F215030404040504056954795B5
:101420003795279580E12030380720F0DD2011F036
:10143000DD24D6CFE889F9893083EA89FB892083C6
:1014400019A2EE89FF89408121E030E0C9010C8CAE
:1014500002C0880F991F0A94E2F7482B4083EE8957
:10146000FF894081C9010D8C02C0880F991F0A9421
:10147000E2F7482B4083EE89FF894081C9010E8C39
:1014800002C0880F991F0A94E2F7482B4083EE8927
:10149000FF8980810F8C02C0220F331F0A94E2F76C
:1014A000209528232083DF91CF911F910F91FF90EA
:1014B000EF90DF90BF90AF900895DC011C96ED9106
:1014C000FC911D97E05CFF4F8191919120813181CA
:1014D000805C9F4F821B930B60E470E00E949B0F27
:1014E0000895DC011C96ED91FC911D97E05CFF4F87
:1014F00020813181E054F040DF01AE5BBF4F8D9120
:101500009C9111972817390719F42FEF3FEF07C067
:101510008D919C91E80FF91F8081282F30E0C9013F
:101520000895DC011C96ED91FC911D97E05CFF4F46
:1015300020813181E054F040DF01AE5BBF4F8D91DF
:101540009C9111972817390719F42FEF3FEF10C01E
:101550008D919C911197E80FF91F20818D919C919D
:10156000119701968F73907011969C938E9330E033
:10157000C9010895DC0191968C919197882339F0E7
:101580005496ED91FC915597808186FFF9CF919605
:101590001C920895CF93DF93EC01EE85FF85E05C0C
:1015A000FF4F20813181E054F0402F5F3F4F2F7378
:1015B0003070DF01AE5BBF4F8D919C911197281762
:1015C0003907D1F3E05CFF4F80819181E054F04016
:1015D000E80FF91F6083EE85FF85E05CFF4F3183E4
:1015E0002083EE89FF89208181E090E00F8C02C08A
:1015F000880F991F0A94E2F7282B208381E089A3A2
:10160000EC89FD8980818064808381E090E0DF91B6
:10161000CF9108951092E6011092E50188EE93E0D3
:10162000A0E0B0E08093E7019093E801A093E90186
:10163000B093EA018EE091E09093E4018093E3019E
:101640008BE591E09093F0018093EF018FE991E0B9
:101650009093F2018093F10185EC90E09093F40176
:101660008093F30184EC90E09093F6018093F50170
:1016700080EC90E09093F8018093F70181EC90E08A
:101680009093FA018093F90182EC90E09093FC0131
:101690008093FB0186EC90E09093FE018093FD0126
:1016A00084E08093FF0183E08093000287E08093D1
:1016B000010285E08093020281E080930302089595
:1016C000EF92FF920F931F938C01F62EE42EFC01F4
:1016D000608160628BE492E070E00E944E0CF80141
:1016E0008181882329F48BE492E06F2D0E94D00C35
:1016F0008BE492E06E2D0E94D00C8BE492E00E946D
:10170000130D1F910F91FF90EF900895462F65E004
:101710000E94600B0895462F69E00E94600B0895B7
:101720001F93CF93DF93EC01162F688160628BE4E7
:1017300092E070E00E944E0C8981882329F48BE4AA
:1017400092E0612F0E94D00C8BE492E00E94130D76
:10175000688160628BE492E070E041E050E00E94BA
:10176000240D8BE492E00E94610CDF91CF911F91D8
:10177000089565E00E94900B08950F931F93CF93F7
:10178000DF93EC01162F042F6830F0F460E00E9424
:10179000900B282F002351F481E090E002C0880FC5
:1017A000991F1A95E2F7422F482B0AC081E090E07A
:1017B00002C0880F991F1A95E2F7482F40954223DF
:1017C000CE0160E00E94600BDF91CF911F910F91DD
:1017D0000895CF93DF93EC01683008F067E06883E9
:1017E0008BE492E00E94280D1982CE010E94B90B71
:1017F000CE0163E00E94860BCE010E94B90B8230BD
:1018000031F41982CE0160E00E94860B02C081E0B3
:101810008983688160628BE492E070E00E944E0CE4
:101820008BE492E060E00E94D00C8BE492E06FEFDA
:101830000E94D00C8BE492E060E00E94D00C8BE41C
:1018400092E060E00E94D00C8BE492E060E00E94A5
:10185000D00C8BE492E060E00E94D00C8BE492E02C
:1018600060E00E94D00C8BE492E060E00E94D00C1B
:101870008BE492E060E00E94D00C8BE492E060E0A8
:101880000E94D00C8BE492E060E00E94D00C8BE4CC
:1018900092E00E94130DDF91CF91089581E0809333
:1018A0004A0260932702109248021092490208955A
:1018B0002091260230E080912502281B3109C901C0
:1018C00008954091250280912602481718F02FEFC5
:1018D0003FEF0AC0E42FF0E0EB5FFD4F8081282F3F
:1018E00030E04F5F40932502C9010895E091250241
:1018F00080912602E81718F0EFEFFFEF06C0F0E046
:10190000EB5FFD4F8081E82FF0E0CF01089508954F
:1019100010924E0210924D0288EE93E0A0E0B0E0EB
:1019200080934F0290935002A0935102B0935202C1
:101930008EE191E090934C0280934B020895CF92F8
:10194000DF92EF92FF920F931F93CF93DF937C016F
:101950006B018A0180914A028823A1F0C0E0D0E0A7
:101960000DC0D701ED91FC91D601AC0FBD1F0190C8
:10197000F081E02DC7016C9109952196C017D10720
:1019800080F304C0CB01642F0E94D10DC801DF9108
:10199000CF911F910F91FF90EF90DF90CF9008951E
:1019A000DF93CF930F92CDB7DEB7FC0169838091AF
:1019B0004A028823C9F080914902803238F081E0E0
:1019C00090E09383828320E030E015C0809148024C
:1019D000E82FF0E0E85DFD4F998190838F5F809361
:1019E00048028093490205C0CE01019661E00E9441
:1019F000D10D21E030E0C9010F90CF91DF91089522
:101A00000F93062F8091270268E272E0409149020D
:101A100021E00E947C0D109248021092490210921F
:101A20004A020F91089561E00E94000D089541322D
:101A300008F040E2862F65E072E00E94330D1092BC
:101A4000250280932602089521E00E94170D089533
:101A5000109225021092260210924802109249021A
:101A60000E947D0F0895382F413210F040E042C0AF
:101A7000809157028823E1F791E0909357022093D9
:101A800059028FEF8093C40210927F02415040931D
:101A900080024F5F9093580280915802330F832B3E
:101AA0008093580280915A02813041F410925A0278
:101AB000809158028093BB0085EC01C085EE809335
:101AC000BC00809157028130E1F380917F0284173E
:101AD00010F440917F0220E030E00AC0FB01E20FE9
:101AE000F31FD901A15ABD4F8C9180832F5F3F4FC7
:101AF0002417A0F3842F08950F931F93582F122FAC
:101B0000413210F081E04AC0809157028823E1F70A
:101B100082E080935702009359028FEF8093C402B2
:101B200010927F0240938002AFE5B2E0FB0102C059
:101B300081918D938E2F861B8417D0F310925802BB
:101B400080915802550F852B8093580280915A023C
:101B5000813041F410925A02809158028093BB0068
:101B600085EC01C085EE8093BC00112321F08091AB
:101B700057028230E1F38091C4028F3F11F480E07C
:101B80000DC08091C402803211F482E007C08091C0
:101B9000C402803311F084E001C083E01F910F91F3
:101BA0000895482F613210F081E008958091570226
:101BB000843011F082E008956093A202A1E8B2E0BF
:101BC000842F9C01F90102C081918D938E2F841B7B
:101BD0008617D0F380E008951F920F920FB60F92F0
:101BE00011242F933F934F935F936F937F938F9322
:101BF0009F93AF93BF93EF93FF938091B90090E0D1
:101C0000887F90708036910509F4F2C08136910585
:101C1000CCF58832910509F47BC089329105B4F482
:101C20008031910509F46FC0813191053CF4009732
:101C300009F447C1089709F04FC165C08831910583
:101C400009F466C0809709F047C182C080349105CD
:101C500009F4A4C08134910544F48033910509F45A
:101C600082C0C89709F038C189C08035910509F450
:101C700089C08835910509F496C08834910509F02A
:101C80002BC1AEC08839910509F413C1893991057A
:101C9000ECF48837910509F4ABC0893791054CF411
:101CA0008836910509F4A4C08037910509F014C164
:101CB0009FC08838910509F4FCC08039910509F46A
:101CC0009DC08038910509F007C198C0803B9105FF
:101CD00009F4C6C0813B91054CF4803A910509F4A2
:101CE0009FC0883A910509F0F7C0BAC0803C9105C1
:101CF00009F4E3C0883C910509F4DFC0883B9105F5
:101D000009F0EAC0C2C0809158028093BB00CFC0E6
:101D100090917F0280918002981768F490917F02E1
:101D2000E92FF0E0E15AFD4F80818093BB009F5F77
:101D300090937F02BCC080915902882309F44BC064
:101D400085ED8093BC008091BC0084FDFCCFC2C0B7
:101D500080E28093C40285ED8093BC008091BC003A
:101D600084FDFCCFB7C080E38093C40285ED8093EF
:101D7000BC008091BC0084FDFCCFACC088E38093A4
:101D8000C4029BC080917F029091BB00E82FF0E0DD
:101D9000E15AFD4F90838F5F80937F0290917F0285
:101DA0008091800282C080917F029091BB00E82FD9
:101DB000F0E0E15AFD4F90838F5F80937F02809126
:101DC0005902882341F085ED8093BC008091BC00CE
:101DD00084FDFCCF7FC081E080935A0284EA6EC00C
:101DE00085ED8093BC008091BC0084FDFCCF72C067
:101DF00083E0809357021092C30259C08091C302BE
:101E0000803208F056C08091C3029091BB00E82F49
:101E1000F0E0ED55FD4F90838F5F8093C30247C084
:101E20008091C302803230F4E091C302F0E0ED55BE
:101E3000FD4F108285ED8093BC008091BC0084FD35
:101E4000FCCF109257026091C302E0915D02F091C5
:101E50005E0283EA92E070E009951092C3022DC001
:101E600084E0809357021092A1021092A202E091A6
:101E70005B02F0915C0209958091A202882329F40B
:101E800081E08093A202109281029091A102E92F39
:101E9000F0E0EF57FD4F80818093BB009F5F9093F0
:101EA000A1029091A1028091A202981710F485ECF2
:101EB00001C085E88093BC000FC085EC8093BC0016
:101EC00009C01092C40285ED8093BC008091BC00D3
:101ED00084FDFCCF10925702FF91EF91BF91AF911B
:101EE0009F918F917F916F915F914F913F912F9132
:101EF0000F900FBE0F901F9018951092570281E01F
:101F00008093590210925A0282E161E00E94910787
:101F100083E161E00E949107E9EBF0E080818E7F30
:101F2000808380818D7F808388E48093B80085E4FE
:101F30008093BC00089597FB092E07260AD077FDF1
:101F400004D02ED006D000201AF4709561957F4FF2
:101F50000895F6F7909581959F4F0895A1E21A2E66
:101F6000AA1BBB1BFD010DC0AA1FBB1FEE1FFF1F3D
:101F7000A217B307E407F50720F0A21BB30BE40B8D
:101F8000F50B661F771F881F991F1A9469F76095D4
:101F90007095809590959B01AC01BD01CF0108958E
:101FA000AA1BBB1B51E107C0AA1FBB1FA617B7077F
:101FB00010F0A61BB70B881F991F5A95A9F780959B
:101FC0009095BC01CD010895EE0FFF1F0590F4918F
:081FD000E02D0994F894FFCF05
:101FD80000002000C9020000010100000000CA0A38
:101FE800BD085D0A910A710ABA0A00000000D00C07
:0A1FF8009F0C580C610C760C870C4E
:00000001FF
