:100000000C9464000C9479060C94A6060C948C0055
:100010000C948C000C948C000C948C000C948C0030
:100020000C948C000C948C000C948C000C948C0020
:100030000C948C000C948C000C948C000C948C0010
:100040000C94E2060C948C000C9413030C94610342
:100050000C948C000C948C000C948C000C948C00F0
:100060000C94C70B0C948C000000000024002700A7
:100070002A0000000000250028002B0000000000DE
:1000800023002600290004040404040404040202DA
:100090000202020203030303030301020408102007
:1000A0004080010204081020010204081020000012
:1000B0000007000201000003040600000000000029
:1000C00000000301CD04BD0A11241FBECFEFD8E00C
:1000D000DEBFCDBF11E0A0E0B1E0E4E9FBE102C08A
:1000E00005900D92A23DB107D9F714E0A2EDB1E061
:1000F00001C01D92A032B107E1F710E0C8ECD0E0DA
:1001000004C02297FE010E94B90DC23CD107C9F775
:100110000E94D3060C94C80D0C940000FC018827A3
:100120009927E89421912032E9F3293010F02E30FC
:10013000C8F32B3241F02D3239F4689404C00E9488
:10014000FB00820F911D219120532A30C0F31EF431
:10015000909581959F4F0895FB01DC0141505040DF
:1001600030F08D910190801919F40020B9F7881BA7
:10017000990B0895FB01DC014150504048F001907B
:100180000D920020C9F701C01D9241505040E0F788
:100190000895009731F4DA018D919C91009709F44C
:1001A0000EC0DC01FB013D912191222319F0321791
:1001B000C9F3FACF332331F4DA011D921C92882758
:1001C000992708951197AF93BF93FB013D9121911A
:1001D000321771F4332321F488279927119702C02D
:1001E0001E921196FA01A193B0839F918F91089569
:1001F000222369F7EACF7AE0979F902D879F802D81
:10020000910D1124089582ED91E00E945E0A86EA24
:1002100092E00E947F0287EA92E00E940A0308951A
:100220000F931F9301E313E0C80160E071E00E94A7
:100230004306C80168E171E00E944306C80161E31A
:1002400071E00E944306C80160E471E00E94430629
:10025000C8016DE471E00E944306C80162E571E0E7
:100260000E944306C8016BE571E00E9443061F919E
:100270000F91089585E061E00E947F0886E061E0CB
:100280000E947F0887EA92E06AEA7AEA0E94D8022E
:1002900064EF71E080E090E00E942A0785E060E072
:1002A0000E947F0886E060E00E947F0887EA92E073
:1002B00065E575E50E94D80264EF71E080E090E0AA
:1002C0000E942A07D7CF86EA92E00E94AD020895E5
:1002D0000E946301089581E393E064E671E00E9467
:1002E000400682E00E94D308019729F481E393E05D
:1002F0006EE671E004C081E393E063E771E00E9481
:10030000400681E393E067E771E00E94400683E0E6
:100310000E94D308019729F481E393E06EE671E02F
:1003200004C081E393E063E771E00E94400681E34B
:1003300093E061E871E00E94400684E00E94D308E7
:10034000019729F481E393E06EE671E004C081E354
:1003500093E063E771E00E94400608950F931F93B6
:1003600001E313E0C8016BE871E00E94400681E000
:100370000E94BE07BC01C8014AE050E00E942D0661
:10038000C80165E971E00E94400680E00E94BE0756
:10039000BC01C8014AE050E00E942D061F910F9158
:1003A00008950E94AE010E946B0168EE73E080E048
:1003B00090E00E942A0781E393E00E944D05F1CF6F
:1003C0001F9382ED91E00E946209009799F00E94CC
:1003D0008E00182F82ED91E00E946209009751F083
:1003E0000E948E00712F60E0680F711D87EA92E015
:1003F0000E94D8021F9108951F9382ED91E00E9400
:1004000062090097A9F00E948E00182F82ED91E0FA
:100410000E946209009761F00E948E00823040F4D1
:1004200040E0811141E087EA92E0612F0E94DE0204
:100430001F91089582ED91E00E946D0908950F9338
:100440001F9381E393E040E052EC61E070E00E9492
:100450009C0382E060E00E94400883E060E00E942C
:10046000400884E060E00E94400885E061E00E946E
:10047000400886E061E00E94400802ED11E0C801FA
:100480006FE971E04CEF51E00E942C09C80169EA64
:1004900071E040EE51E00E942C09C80161E371E077
:1004A0004EEA51E00E942C09C80160E471E04BE67D
:1004B00051E00E942C09C8016DE471E043E651E06F
:1004C0000E942C09C80162E571E041ED51E00E94F3
:1004D0002C09C8016BE571E04AE351E00E942C0948
:1004E000C80160E171E00E94260980E068E671E0E1
:1004F00043E050E00E9456061F910F910895089521
:100500000F931F93CF93DF93C0E0D0E0062F10E04E
:1005100017C089E060E070E00E94E00762E370E0ED
:1005200080E090E00E942A0789E064E170E00E9488
:10053000E00762E370E080E090E00E942A072196E5
:10054000C017D10734F389E06FEF70E00E94E00735
:10055000DF91CF911F910F91089565E00E94800275
:100560000895EF92FF920F931F93162F072F86EA9D
:10057000E82E83E0F82EC70160E270E00E94830A53
:10058000C701612F0E94050BC7010E94480BC701DC
:1005900061E270E00E94830AC701602F0E94050B90
:1005A000C7010E94480B1F910F91FF90EF90089593
:1005B000FC01718360830E94B1020895FC016031E7
:1005C00040F520813181442371F081E090E0A0E08A
:1005D000B0E004C0880F991FAA1FBB1F6A95D2F70D
:1005E000282B392B0FC081E090E0A0E0B0E004C0E0
:1005F000880F991FAA1FBB1F6A95D2F78095909507
:10060000282339233183208360817181CF010E94A7
:10061000B1020895FC011182108286EA93E00E94E3
:100620004C0B089508951F920F920FB60F9211244C
:100630002F933F934F938F939F93EF93FF938091CB
:10064000C00082FD1DC04091C6002091E90230919A
:10065000EA022F5F3F4F2F7330708091EB02909131
:10066000EC022817390771F0E091E902F091EA02F3
:10067000E755FD4F40833093EA022093E90202C020
:100680008091C600FF91EF919F918F914F913F9183
:100690002F910F900FBE0F901F901895E0913D0382
:1006A000F0913E03E05CFF4F819191912081318177
:1006B000821B930B8F739070892B11F00E94120391
:1006C00008951F920F920FB60F9211242F933F930C
:1006D0008F939F93EF93FF9320912D0330912E03DF
:1006E00080912F03909130032817390731F48091BE
:1006F000C1008F7D8093C10014C0E0912F03F09161
:100700003003E351FD4F208180912F0390913003FE
:1007100001968F7390709093300380932F032093F2
:10072000C600FF91EF919F918F913F912F910F9074
:100730000FBE0F901F901895AF92BF92DF92EF926D
:10074000FF920F931F93CF93DF93EC017A018B01FC
:10075000DD24403081EE580780E0680780E07807AC
:1007600011F0DD24D39491E0A92EB12CEC89FD8900
:10077000DD2069F0C50108A002C0880F991F0A9406
:10078000E2F7808360E079E08DE390E005C01082BD
:1007900060E874E88EE190E0A80197010E94950D51
:1007A0002150304040405040569547953795279509
:1007B00080E12030380720F0DD2011F0DD24D6CF95
:1007C000E889F9893083EA89FB89208319A2EE89B7
:1007D000FF89408121E030E0C9010C8C02C0880F04
:1007E000991F0A94E2F7482B4083EE89FF894081E4
:1007F000C9010D8C02C0880F991F0A94E2F7482B9B
:100800004083EE89FF894081C9010E8C02C0880FA8
:10081000991F0A94E2F7482B4083EE89FF89808173
:100820000F8C02C0220F331F0A94E2F72095282371
:100830002083DF91CF911F910F91FF90EF90DF9078
:10084000BF90AF900895DC011C96ED91FC911D972F
:10085000E05CFF4F2191319180819181281B390B00
:100860002F733070C9010895DC011C96ED91FC9145
:100870001D97E05CFF4F20813181E054F040DF01A3
:10088000AE5BBF4F8D919C9111972817390719F4D2
:100890002FEF3FEF07C08D919C91E80FF91F8081EA
:1008A000282F30E0C9010895DC011C96ED91FC91E0
:1008B0001D97E05CFF4F20813181E054F040DF0163
:1008C000AE5BBF4F8D919C9111972817390719F492
:1008D0002FEF3FEF10C08D919C911197E80FF91FFA
:1008E00020818D919C91119701968F739070119634
:1008F0009C938E9330E0C9010895DC0191968C9110
:100900009197882339F05496ED91FC915597808109
:1009100086FFF9CF91961C920895CF93DF93EC0157
:10092000EE85FF85E05CFF4F20813181E054F0408F
:100930002F5F3F4F2F733070DF01AE5BBF4F8D9144
:100940009C91119728173907D1F3E05CFF4F808104
:100950009181E054F040E80FF91F6083EE85FF8538
:10096000E05CFF4F31832083EE89FF89208181E0A5
:1009700090E00F8C02C0880F991F0A94E2F7282B91
:10098000208381E089A3EC89FD8980818064808354
:1009900081E090E0DF91CF9108951092340310929E
:1009A000330388EE93E0A0E0B0E0809335039093AA
:1009B0003603A0933703B093380385EB91E090930F
:1009C00032038093310389EA92E090933E0380934F
:1009D0003D038DEE92E09093400380933F0385ECBE
:1009E00090E0909342038093410384EC90E09093D5
:1009F00044038093430380EC90E0909346038093FC
:100A0000450381EC90E0909348038093470382EC88
:100A100090E090934A038093490386EC90E0909392
:100A20004C0380934B0384E080934D0383E08093D9
:100A30004E0387E080934F0385E08093500381E06D
:100A4000809351030895CF92DF92EF92FF920F931C
:100A50001F93CF93DF937C016B018A01C0E0D0E04C
:100A60000FC0D6016D916D01D701ED91FC91019000
:100A7000F081E02DC7010995C80FD91F0150104022
:100A80000115110571F7CE01DF91CF911F910F91E3
:100A9000FF90EF90DF90CF900895EF92FF920F9329
:100AA0001F938C01DC01ED91FC910190F081E02D10
:100AB0006DE009957C01D801ED91FC910190F081E8
:100AC000E02DC8016AE009959C012E0D3F1DC9016A
:100AD0001F910F91FF90EF900895CF93DF93EC015A
:100AE0006115710519F420E030E00FC0DB010D90B5
:100AF0000020E9F71197A61BB70BE881F981028066
:100B0000F381E02DAD0109959C01C901DF91CF91E1
:100B100008954F925F927F928F929F92AF92BF9271
:100B2000CF92DF92EF92FF920F931F93DF93CF93B9
:100B3000CDB7DEB7A1970FB6F894DEBF0FBECDBF1D
:100B40002C01742ECB01223008F42AE019A231E2E4
:100B5000C32ED12CCC0EDD1E822E9924AA24BB24B8
:100B6000672D752FA50194010E94950D79018A01C9
:100B7000C801B701A50194010E94760D472D461BBF
:100B80000894C108D1084A3014F4405D01C0495CA2
:100B9000F6014083E114F1040105110521F07E2CDA
:100BA0005F2DC801DDCFC201B6010E946D05A1967F
:100BB0000FB6F894DEBF0FBECDBFCF91DF911F916E
:100BC0000F91FF90EF90DF90CF90BF90AF909F90EC
:100BD0008F907F905F904F900895CF92DF92EF9229
:100BE000FF920F931F93CF93DF93EC016A017B0178
:100BF0002115310541F4E881F9810190F081E02D62
:100C0000642F09951FC02A303105D1F477FF17C032
:100C1000E881F9810190F081E02D6DE209958C0168
:100C200044275527BA014C195D096E097F09CE0189
:100C30002AE00E9489059801280F391F04C02AE084
:100C40000E9489059C01C901DF91CF911F910F91ED
:100C5000FF90EF90DF90CF900895EF92FF920F9367
:100C60001F937B019A010027F7FC0095102FB80114
:100C7000A7010E94ED051F910F91FF90EF9008953D
:100C80000E946D050895EF92FF920F931F937C01D0
:100C90000E946D058C01C7010E944D05080F191FA8
:100CA000C8011F910F91FF90EF900895823000F5D9
:100CB000E82FF0E0EE0FFF1FED5AFC4F71836083C9
:100CC000882319F08130A1F408C0809169008C7FDD
:100CD000842B80936900E89A089580916900440FFD
:100CE000551F440F551F837F842B80936900E99A19
:100CF00008951F920F920FB60F9211242F933F93D6
:100D00004F935F936F937F938F939F93AF93BF9313
:100D1000EF93FF938091530390915403892B29F013
:100D2000E0915303F09154030995FF91EF91BF9126
:100D3000AF919F918F917F916F915F914F913F9173
:100D40002F910F900FBE0F901F9018951F920F922A
:100D50000FB60F9211242F933F934F935F936F938E
:100D60007F938F939F93AF93BF93EF93FF93809164
:100D7000550390915603892B29F0E0915503F0918A
:100D800056030995FF91EF91BF91AF919F918F917C
:100D90007F916F915F914F913F912F910F900FBE77
:100DA0000F901F901895CF93DF930E9483070E94A6
:100DB0001F02CEE4D3E00E941A022097E1F30E94C2
:100DC0004E03F9CF1F920F920FB60F9211242F935B
:100DD0003F938F939F93AF93BF9380915B039091C9
:100DE0005C03A0915D03B0915E0330915F030196B7
:100DF000A11DB11D232F2D5F2D3720F02D570196FA
:100E0000A11DB11D20935F0380935B0390935C034E
:100E1000A0935D03B0935E038091570390915803B4
:100E2000A0915903B0915A030196A11DB11D809361
:100E3000570390935803A0935903B0935A03BF915B
:100E4000AF919F918F913F912F910F900FBE0F9077
:100E50001F9018959B01AC017FB7F89480915703C0
:100E600090915803A0915903B0915A0366B5A89B7D
:100E700005C06F3F19F00196A11DB11D7FBFBA2FAC
:100E8000A92F982F8827860F911DA11DB11D62E003
:100E9000880F991FAA1FBB1F6A95D1F7BC012DC0EF
:100EA000FFB7F8948091570390915803A09159038C
:100EB000B0915A03E6B5A89B05C0EF3F19F0019623
:100EC000A11DB11DFFBFBA2FA92F982F88278E0F04
:100ED000911DA11DB11DE2E0880F991FAA1FBB1F24
:100EE000EA95D1F7861B970B885E9340C8F2215094
:100EF00030404040504068517C4F2115310541053C
:100F0000510571F60895789484B5826084BD84B5E6
:100F1000816084BD85B5826085BD85B5816085BDF4
:100F2000EEE6F0E0808181608083E1E8F0E010820D
:100F3000808182608083808181608083E0E8F0E04E
:100F4000808181608083E1EBF0E080818460808338
:100F5000E0EBF0E0808181608083EAE7F0E080816F
:100F600084608083808182608083808181608083CF
:100F70008081806880831092C1000895982F8E3000
:100F800008F09E5097708091B0018295880F880F6D
:100F9000807C892B80937C0080917A008064809390
:100FA0007A0080917A0086FDFCCF209178004091F4
:100FB0007900942F80E030E0282B392BC901089567
:100FC0001F93CF93DF93182FEB0161E00E9440083D
:100FD000209709F44AC0CF3FD10509F449C0E12F59
:100FE000F0E0E255FF4F84918330C1F0843028F463
:100FF000813051F08230B1F50CC0863019F1873064
:1010000049F1843079F514C084B5806884BDC7BDCA
:1010100033C084B5806284BDC8BD2EC0809180007D
:10102000806880938000D0938900C093880024C09A
:1010300080918000806280938000D0938B00C09369
:101040008A001AC08091B00080688093B000C0937D
:10105000B30012C08091B00080628093B000C09352
:10106000B4000AC0C038D1051CF4812F60E002C072
:10107000812F61E00E947F08DF91CF911F91089539
:10108000CF93DF93482F50E0CA0186569F4FFC0153
:1010900034914A575F4FFA018491882369F190E0B7
:1010A000880F991FFC01E859FF4FA591B491FC01ED
:1010B000EE58FF4FC591D491662351F42FB7F894A1
:1010C0008C91932F909589238C93888189230BC0D1
:1010D000623061F42FB7F8948C91932F9095892307
:1010E0008C938881832B88832FBF06C09FB7F89489
:1010F0008C91832B8C939FBFDF91CF910895482FC4
:1011000050E0CA0182559F4FFC012491CA018656C6
:101110009F4FFC0194914A575F4FFA01349133235A
:1011200009F440C0222351F1233071F0243028F417
:101130002130A1F0223011F514C02630B1F0273053
:10114000C1F02430D9F404C0809180008F7703C0AF
:10115000809180008F7D8093800010C084B58F7750
:1011600002C084B58F7D84BD09C08091B0008F77A7
:1011700003C08091B0008F7D8093B000E32FF0E03A
:10118000EE0FFF1FEE58FF4FA591B4912FB7F894C3
:10119000662321F48C919095892302C08C91892B30
:1011A0008C932FBF0895682F70E0CB0182559F4F1D
:1011B000FC012491CB0186569F4FFC0144916A5754
:1011C0007F4FFB019491992319F420E030E03CC05B
:1011D000222351F1233071F0243028F42130A1F082
:1011E000223011F514C02630B1F02730C1F0243080
:1011F000D9F404C0809180008F7703C08091800073
:101200008F7D8093800010C084B58F7702C084B535
:101210008F7D84BD09C08091B0008F7703C080911D
:10122000B0008F7D8093B000892F90E0880F991FC8
:1012300084589F4FFC01A591B4918C9120E030E03F
:10124000842311F021E030E0C9010895FC01E0534E
:10125000FF4F7183608308950F931F93CF93DF93A4
:10126000EC018A018A8D9B8D8A30910534F5880FB7
:10127000991F9C0143E0220F331F4A95E1F7820F2B
:10128000931F4C968C0F9D1F40E150E00E94BA00C6
:10129000EA8DFB8DEE0FFF1FCF0123E0880F991F12
:1012A0002A95E1F7E80FF91FEC0FFD1F15A704A71A
:1012B0008A8D9B8D01969B8F8A8FDF91CF911F9195
:1012C0000F910895BC01AC01485E5F4F80E090E053
:1012D0006D5E7F4F0E94C90008952F923F924F92FA
:1012E0005F926F927F928F929F92AF92BF92CF92B6
:1012F000DF92EF92FF920F931F93DF93CF9300D073
:1013000000D0CDB7DEB79C838B8301969A83898307
:10131000B3E12B2E312C8B819C81280E391EA8E144
:101320004A2E512C480E591EF2ED6F2E712C680E6C
:10133000791EE0ED8E2E912C880E991E98C0D30157
:101340008D919C91892B39F481E393E00E945404A0
:10135000EB81FC818083AB81BC819C9155968C9103
:101360005597981709F05FC052961C921E9251979C
:1013700089819A81B101A2010E94C9006C01EB81AF
:10138000FC81978B868B009709F481C0A28CB38C6B
:10139000EE24FF2435C0C701880F991F8C0163E03C
:1013A000000F111F6A95E1F7080F191FB801645E5D
:1013B0007F4F8B819C81680F791FC60140E150E00F
:1013C0000E94AC000097C9F4F801AB81BC81EA0F20
:1013D000FB1F04A4F5A5E02D099581E090E0EB81C9
:1013E000FC81E80FF91F1082019681319105B9F750
:1013F000EB81FC81128A118A16C00894E11CF11C51
:10140000EA14FB0444F23CC0EB81FC81E80FF91FB5
:101410001082019681319105B9F7AB81BC8152965A
:101420001C921E925197EB81FC811081812F99278C
:1014300087FD90950E94BF0D892BC9F0AB81BC81BF
:1014400051968D919C915297FD01E80FF91F1183E0
:10145000019652969C938E935197FD01E80FF91FC8
:101460001182409724F052961C921E92519781E36C
:1014700093E00E942304181619060CF460CF07C0ED
:10148000D401ED91FC91099581E090E0BDCF0F90E2
:101490000F900F900F90CF91DF911F910F91FF90C0
:1014A000EF90DF90CF90BF90AF909F908F907F9004
:1014B0006F905F904F903F902F900895DC01AE5257
:1014C000BF4F11961C921E92A25DB04080E290E048
:1014D00054969C938E9353978DE055968C93559785
:1014E0005B961C921E925A9781E090E0FD01E80FF6
:1014F000F91F1082019681319105C1F752961C9215
:101500001E925197089581E08093A5036093820312
:101510001092A3031092A40308952091810330E058
:1015200080918003281B3109C901089540918003EF
:1015300080918103481718F02FEF3FEF0AC0E42F86
:10154000F0E0E05AFC4F8081282F30E04F5F40935D
:101550008003C9010895E091800380918103E81719
:1015600018F0EFEFFFEF06C0F0E0E05AFC4F80818B
:10157000E82FF0E0CF01089508951092A90310928A
:10158000A80388EE93E0A0E0B0E08093AA039093D4
:10159000AB03A093AC03B093AD0385EC91E09093C3
:1015A000A7038093A6030895CF92DF92EF92FF9254
:1015B0000F931F93CF93DF937C016B018A0180917E
:1015C000A5038823A1F0C0E0D0E00DC0D701ED91C4
:1015D000FC91D601AC0FBD1F0190F081E02DC70139
:1015E0006C9109952196C017D10780F304C0CB01F7
:1015F000642F0E94AC0BC801DF91CF911F910F9116
:10160000FF90EF90DF90CF900895DF93CF930F92EC
:10161000CDB7DEB7FC0169838091A5038823C9F0AB
:101620008091A403803238F081E090E0938382833C
:1016300020E030E015C08091A303E82FF0E0ED57E3
:10164000FC4F998190838F5F8093A3038093A403C1
:1016500005C0CE01019661E00E94AC0B21E030E0B4
:10166000C9010F90CF91DF9108950F93062F8091BC
:10167000820363E873E04091A40321E00E94570BCA
:101680001092A3031092A4031092A5030F91089542
:1016900061E00E94350B089510928003109281033F
:1016A0001092A3031092A4030E94580D08950F9363
:1016B0001F93582F122F413210F081E04AC08091C1
:1016C000B2038823E1F782E08093B2030093B4036E
:1016D0008FEF80931F041092DA034093DB03AAEB91
:1016E000B3E0FB0102C081918D938E2F861B84177E
:1016F000D0F31092B3038091B303550F852B8093E1
:10170000B3038091B503813041F41092B503809109
:10171000B3038093BB0085EC01C085EE8093BC00D1
:10172000112321F08091B2038230E1F380911F04F4
:101730008F3F11F480E00DC080911F04803211F4BE
:1017400082E007C080911F04803311F084E001C063
:1017500083E01F910F910895482F613210F081E0CE
:1017600008958091B203843011F082E0089560936F
:10177000FD03ACEDB3E0842F9C01F90102C081911F
:101780008D938E2F841B8617D0F380E008951F92CF
:101790000F920FB60F9211242F933F934F935F93A5
:1017A0006F937F938F939F93AF93BF93EF93FF9329
:1017B0008091B90090E0887F90708036910509F49F
:1017C000F2C081369105CCF58832910509F47BC0D1
:1017D00089329105B4F48031910509F46FC08131EB
:1017E00091053CF4009709F447C1089709F04FC1EF
:1017F00065C08831910509F466C0809709F047C13A
:1018000082C08034910509F4A4C08134910544F468
:101810008033910509F482C0C89709F038C189C0A6
:101820008035910509F489C08835910509F496C081
:101830008834910509F02BC1AEC08839910509F4AF
:1018400013C189399105ECF48837910509F4ABC0CF
:10185000893791054CF48836910509F4A4C0803786
:10186000910509F014C19FC08838910509F4FCC0A6
:101870008039910509F49DC08038910509F007C1B0
:1018800098C0803B910509F4C6C0813B91054CF49A
:10189000803A910509F49FC0883A910509F0F7C094
:1018A000BAC0803C910509F4E3C0883C910509F475
:1018B000DFC0883B910509F0EAC0C2C08091B30344
:1018C0008093BB00CFC09091DA038091DB0398171F
:1018D00068F49091DA03E92FF0E0E654FC4F808140
:1018E0008093BB009F5F9093DA03BCC08091B403E8
:1018F000882309F44BC085ED8093BC008091BC0027
:1019000084FDFCCFC2C080E280931F0485ED8093EC
:10191000BC008091BC0084FDFCCFB7C080E3809305
:101920001F0485ED8093BC008091BC0084FDFCCF3A
:10193000ACC088E380931F049BC08091DA03909130
:10194000BB00E82FF0E0E654FC4F90838F5F80935C
:10195000DA039091DA038091DB0382C08091DA038D
:101960009091BB00E82FF0E0E654FC4F90838F5F2E
:101970008093DA038091B403882341F085ED80934E
:10198000BC008091BC0084FDFCCF7FC081E08093CF
:10199000B50384EA6EC085ED8093BC008091BC00E5
:1019A00084FDFCCF72C083E08093B20310921E04CA
:1019B00059C080911E04803208F056C080911E04E8
:1019C0009091BB00E82FF0E0E250FC4F90838F5FD6
:1019D00080931E0447C080911E04803230F4E09151
:1019E0001E04F0E0E250FC4F108285ED8093BC00B5
:1019F0008091BC0084FDFCCF1092B20360911E0464
:101A0000E091B803F091B9038EEF93E070E009958F
:101A100010921E042DC084E08093B2031092FC0348
:101A20001092FD03E091B603F091B7030995809100
:101A3000FD03882329F481E08093FD031092DC03E9
:101A40009091FC03E92FF0E0E452FC4F80818093F9
:101A5000BB009F5F9093FC039091FC038091FD037A
:101A6000981710F485EC01C085E88093BC000FC086
:101A700085EC8093BC0009C010921F0485ED809313
:101A8000BC008091BC0084FDFCCF1092B203FF919A
:101A9000EF91BF91AF919F918F917F916F915F91E6
:101AA0004F913F912F910F900FBE0F901F9018955F
:101AB0001092B20381E08093B4031092B50382E1E7
:101AC00061E00E947F0883E161E00E947F08E9EB0A
:101AD000F0E080818E7F808380818D7F808388E4A9
:101AE0008093B80085E48093BC000895629FD00184
:101AF000739FF001829FE00DF11D649FE00DF11DC9
:101B0000929FF00D839FF00D749FF00D659FF00D77
:101B10009927729FB00DE11DF91F639FB00DE11D64
:101B2000F91FBD01CF0111240895A1E21A2EAA1BAD
:101B3000BB1BFD010DC0AA1FBB1FEE1FFF1FA2177D
:101B4000B307E407F50720F0A21BB30BE40BF50B7A
:101B5000661F771F881F991F1A9469F76095709503
:101B6000809590959B01AC01BD01CF010895EE0FCA
:101B7000FF1F0590F491E02D0994803209F0911136
:101B800004C080528F55E0F708959927882708955B
:041B9000F894FFCFF7
:101B940073657453696E676C65205B302E2E313526
:101BA4005D205B312F305D00736574416C6C205B8C
:101BB400302E2E3235355D205B302E2E3235355D9C
:101BC4000072656164454F4C73656E736F72730088
:101BD40072656164456E636F646572730062656506
:101BE40070006175746F52656164006175746F543F
:101BF400657374002020454E435F413A20004849F4
:101C04004748004C4F57002020454E435F423A203E
:101C1400002020454E435F433A20002020454F4C8E
:101C24005F4C3A20002020454F4C5F523A2000730D
:101C3400657453696E676C6500736574416C6C0000
:101C440001000000008D0423052304540434047DA2
:101C54000400000000050BD40A8D0A960AAB0ABCE6
:021C64000A0074
:00000001FF
