:100000000C9463000C94EA070C9417080C948B0072
:100010000C948B000C948B000C948B000C948B0034
:100020000C948B000C948B000C948B000C948B0024
:100030000C948B000C948B000C948B000C948B0014
:100040000C9456080C948B000C943E050C948C0573
:100050000C948B000C948B000C948B000C948B00F4
:100060000C94360E0C948B00000000002400270036
:100070002A0000000000250028002B0000000000DE
:1000800023002600290004040404040404040202DA
:100090000202020203030303030301020408102007
:1000A0004080010204081020010204081020000012
:1000B0000007000201000003040600000000000029
:1000C0000000F806D20C11241FBECFEFD8E0DEBF2F
:1000D000CDBF11E0A0E0B1E0ECE6F0E202C0059097
:1000E0000D92AA32B107D9F712E0AAE2B1E001C03D
:1000F0001D92A73CB107E1F710E0C6ECD0E004C0C8
:100100002297FE010E943010C23CD107C9F70E941D
:1001100044080C9434100C9400000F931F9384ED4A
:1001200091E040E052EC61E070E00E94C70582E09F
:1001300060E00E94B40983E060E00E94B40984E0BA
:1001400060E00E94B40985E061E00E94B40986E0A5
:1001500061E00E94B40985E061E00E94F30986E055
:1001600061E00E94F30987E060E00E94B40980E04A
:1001700067E071E041E050E00E94C70781E290E053
:100180000E945308182F092F0E94C30410932A01BC
:1001900000932B011F910F9108950F931F93CF93FD
:1001A000DF9362E370E080E090E00E949E0884EDBF
:1001B00091E00E947F06082FCCE2D1E084ED91E02F
:1001C0000E947F068095899381E0C534D807B1F7F6
:1001D00084ED91E00E947F06182F84ED91E00E944B
:1001E0007F0680912A0190912B01602F0E94840349
:1001F000882341F010FF06C080912A0190912B01C5
:100200000E94AD02DF91CF911F910F9108958091CF
:100210002A0190912B010E9496040895FF920F935A
:100220001F9380912A0190912B010E94A002F82E29
:1002300004ED11E0C80164EC0E94B806C8016F2DFE
:100240000E94B806C80160E071E00E94B4071F91E7
:100250000F91FF9008950F931F9304ED11E0C801D3
:1002600063EC0E94B806C80164E00E94B806C801A9
:1002700060E00E94B806C80160E50E94B806C801A7
:1002800060E071E00E94B4071F910F9108951F93E1
:1002900062E370E080E090E00E949E0884ED91E0CF
:1002A0000E947F06182F84ED91E00E947F06482F60
:1002B000ECE2F1E08FEF819391E0E534F907D9F7B3
:1002C000799780912A0190912B01612F9F010E94C3
:1002D0007704182F84ED91E061EC0E94B80684ED5C
:1002E00091E0612F0E94B80684ED91E060E071E03A
:1002F0000E94B4071F91089580912A0190912B01CB
:100300000E94550484ED91E00E944E06892BD9F09D
:1003100084ED91E00E947F06833081F084301CF4EC
:10032000813089F405C0843061F0823461F403C007
:100330000E94470108950E94CD0008950E942B015C
:1003400008950E940E01089508950F931F93CF936F
:10035000DF93C0E0D0E0062F10E017C089E060E036
:1003600070E00E94540962E370E080E090E00E9437
:100370009E0889E064E170E00E94540962E370E045
:1003800080E090E00E949E082196C017D10734F3C8
:1003900089E06FEF70E00E945409DF91CF911F91C7
:1003A0000F91089565E00E94A501089563E00E9401
:1003B000A501089565E00E94A5010895FC01118240
:1003C000108213821282158214821782168210867E
:1003D0000895FC0180850895FC018481958108952C
:1003E000FC01808191810895FC01828193810895AF
:1003F000FC018681978108956130710531F062308A
:10040000710529F020E030E006C081E001C080E005
:100410000E9432099C01C9010895CF93DF93EC013A
:1004200088819981019719F58885882311F0815079
:10043000888780E00E943209885C9040885393400E
:10044000B0F082E090E09B838A8381E090E09F831C
:100450008E8384E00E94470A892B19F481E090E0A2
:1004600002C082E090E09D838C8383EE8887DF91D9
:10047000CF910895CF93DF93EC0183E00E94470A68
:10048000892B19F481E090E002C082E090E099832A
:100490008883029781F588858F3F11F08F5F888769
:1004A00081E00E9432099C01885C90408159914012
:1004B00010F181E090E09B838A83283C310510F4A1
:1004C00082E090E09F838E8384E00E94470A892B1C
:1004D00019F482E090E002C081E090E09D838C837B
:1004E000019719F486E061E002C086E060E00E94B6
:1004F000F3098CE18887DF91CF9108951F93CF9303
:10050000DF93EC011B821A8282E00E94470A10E00E
:10051000892B09F011E080914501882331F41123E2
:1005200049F0CE010E943A0205C0112319F4CE0110
:100530000E940D0210934501DF91CF911F91089504
:10054000FC0184859585029710F080E0089583E092
:1005500090E09587848781E0089521E0FC0126875B
:100560000895FC018789908D8130910501F10297F2
:10057000E1F586898832C8F1885280A3885D238D91
:10058000348D2130310511F48F7009C022303105CE
:1005900039F490E0089760E170E00E94E50F878FE2
:1005A000858D968D029719F580A1885F1BC086897D
:1005B000803FD8F4805180A3805F238D348D21301B
:1005C000310529F490E008968F70907004C02230B5
:1005D000310511F48F70878F858D968D029739F4D0
:1005E00080A1805180A381E0089580E0089581E09A
:1005F0000895AF92BF92DF92EF92FF920F931F93F5
:100600005C01F62E04ED11E0C80164E80E94B80612
:10061000C8016F2D0E94B80682E0E82EF12CEA0C8A
:10062000FB1CC70161E070E00E94FC01D82E692F1D
:10063000C8010E94B806C8016D2D0E94B806C70106
:1006400062E070E00E94FC01D82E692FC8010E9470
:10065000B806C8016D2D0E94B806C7010E94F801B6
:10066000682FC8010E94B806C801F50160A10E9468
:10067000B806C80161E071E00E94B4071F910F91B4
:10068000FF90EF90DF90BF90AF900895CF92DF92F0
:10069000FF920F931F936C01F62E04ED11E0C80139
:1006A00062E80E94B806C8016F2D0E94B806C80112
:1006B00061E071E00E94B40781E0F601828B1F9136
:1006C0000F91FF90DF90CF900895CF93DF93EC01CF
:1006D0009E8980914601891729F090934601CE01A9
:1006E0000E94B10264EF71E080E090E00E949E08F9
:1006F000CE0160E00E94F902DF91CF91089585E07C
:1007000060E00E94F3090895FC01962F82898823F6
:1007100071F06389961739F4128ACF010B960E9403
:10072000D60181E00895CF010E94460380E008953C
:100730000F931F93CF93DF93EC0185E061E00E945C
:10074000F30980910201882391F01092020160ED7B
:1007500077E080E090E00E949E08CE010B960E9418
:10076000D6016B896F5F6B8BCE010E9446039E8919
:1007700080914801891709F46EC090934801CE0119
:100780000E94B102882309F466C048A1242F30E0FA
:10079000888990E08097281739073CF1898990E093
:1007A0000C96821793070CF181E0809347014695E0
:1007B00046954695842F90E0EC89FD89E80FF91F56
:1007C000408150E063E0880F991F6A95E1F7281B8C
:1007D000390B02C0559547952A95E2F74170507044
:1007E000CE016F8D0E94F40436C01C2F0D2FCE0158
:1007F0006F8D41E00E94F40480914701882359F1F4
:10080000109247018A89882351F48E85882339F410
:100810006B896F5F6B8BCE010E9446031CC08E8577
:100820008823C9F08F8581508F879E01255F3F4FB8
:10083000882371F4C9010E94D20181E090E09D8774
:100840008C87812F902F6FEF7FEF0E94EE0403C003
:10085000C9010E94D601DF91CF911F910F91089598
:10086000CF93DF93EC018F89988D029739F4898DAE
:100870009A8D019719F481E0809349018091490193
:10088000882371F081E090E09D878C87CE016FEF27
:100890007FEF0E94EE04CE0161E00E94F90202C0E7
:1008A0001D861C86DF91CF910895FC018485958576
:1008B0008130910581F0823091051CF4892B39F04B
:1008C00008958230910559F0039781F40CC0CF014F
:1008D0000E9430040895CF010E947F030895CF0144
:1008E0000E9498030895CF010E9465030895FC01BA
:1008F000483CD0F46417C0F4848595850197A1F431
:1009000082E090E095878487608B418B358B248BC8
:100910008FEF838B128A168682E08787CF010B9632
:100920000E94DA0181E0089580E00895EF92FF923D
:100930000F931F937C018C010E5F1F4FC8010E9413
:100940007E02C8010E94E901F701868BC8010E945E
:10095000F001F701908F878BC8010E94F401F70125
:10096000928F818FC8010E94EC01F701948F838FD1
:10097000C8010E94F801F701968F858F1F910F9192
:10098000FF90EF9008950F931F938C010E94DD0458
:10099000C80102960E94DE01C8010B960E94A401C4
:1009A000F80115861486108A118A138A128AC801E2
:1009B0000E9420051F910F910895FC011182108261
:1009C00008951F93172F8AE491E00E94B90A8BE4DF
:1009D00091E0612F0E94B90A1F910895FC01718373
:1009E00060830E94E1040895FC01603140F520819C
:1009F0003181442371F081E090E0A0E0B0E004C0D8
:100A0000880F991FAA1FBB1F6A95D2F7282B392B75
:100A10000FC081E090E0A0E0B0E004C0880F991F13
:100A2000AA1FBB1F6A95D2F780959095282339237A
:100A30003183208360817181CF010E94E104089598
:100A40001F938AE491E060E00E94130B8BE491E035
:100A500061E00E94130B10E08AE491E0612F41E015
:100A60000E94E70A8BE491E0612F41E00E94E70ACF
:100A70001F5F183089F71F91089508951F920F92F4
:100A80000FB60F9211242F933F934F938F939F9301
:100A9000EF93FF938091C00082FD1DC04091C6007E
:100AA00020918C0130918D012F5F3F4F2F7330705B
:100AB00080918E0190918F012817390771F0E09194
:100AC0008C01F0918D01E45BFE4F408330938D01EA
:100AD00020938C0102C08091C600FF91EF919F91FD
:100AE0008F914F913F912F910F900FBE0F901F90BC
:100AF0001895E091E001F091E101E05CFF4F8191F8
:100B0000919120813181821B930B8F739070892B7F
:100B100011F00E943D0508951F920F920FB60F929B
:100B200011242F933F938F939F93EF93FF932091E3
:100B3000D0013091D1018091D2019091D301281739
:100B4000390731F48091C1008F7D8093C10014C0BA
:100B5000E091D201F091D301E057FE4F20818091C6
:100B6000D2019091D30101968F7390709093D3012D
:100B70008093D2012093C600FF91EF919F918F91B6
:100B80003F912F910F900FBE0F901F901895AF922D
:100B9000BF92DF92EF92FF920F931F93CF93DF9359
:100BA000EC017A018B01DD24403081EE580780E0B2
:100BB000680780E0780711F0DD24D39491E0A92E36
:100BC000B12CEC89FD89DD2069F0C50108A002C0C7
:100BD000880F991F0A94E2F7808360E079E08DE343
:100BE00090E005C0108260E874E88EE190E0A80112
:100BF00097010E94F80F21503040404050405695D8
:100C000047953795279580E12030380720F0DD2083
:100C100011F0DD24D6CFE889F9893083EA89FB8990
:100C2000208319A2EE89FF89408121E030E0C901CB
:100C30000C8C02C0880F991F0A94E2F7482B40835E
:100C4000EE89FF894081C9010D8C02C0880F991F70
:100C50000A94E2F7482B4083EE89FF894081C9015D
:100C60000E8C02C0880F991F0A94E2F7482B40832C
:100C7000EE89FF8980810F8C02C0220F331F0A94F6
:100C8000E2F7209528232083DF91CF911F910F91C8
:100C9000FF90EF90DF90BF90AF900895DC011C961D
:100CA000ED91FC911D97E05CFF4F21913191808186
:100CB0009181281B390B2F733070C9010895DC0115
:100CC0001C96ED91FC911D97E05CFF4F20813181D6
:100CD000E054F040DF01AE5BBF4F8D919C911197C6
:100CE0002817390719F42FEF3FEF07C08D919C911A
:100CF000E80FF91F8081282F30E0C9010895DC0139
:100D00001C96ED91FC911D97E05CFF4F2081318195
:100D1000E054F040DF01AE5BBF4F8D919C91119785
:100D20002817390719F42FEF3FEF10C08D919C91D0
:100D30001197E80FF91F20818D919C9111970196D1
:100D40008F73907011969C938E9330E0C901089533
:100D5000DC0191968C919197882339F05496ED910E
:100D6000FC915597808186FFF9CF91961C9208954A
:100D7000CF93DF93EC01EE85FF85E05CFF4F208190
:100D80003181E054F0402F5F3F4F2F733070DF010F
:100D9000AE5BBF4F8D919C91119728173907D1F306
:100DA000E05CFF4F80819181E054F040E80FF91F33
:100DB0006083EE85FF85E05CFF4F31832083EE8901
:100DC000FF89208181E090E00F8C02C0880F991F7D
:100DD0000A94E2F7282B208381E089A3EC89FD891E
:100DE00080818064808381E090E0DF91CF910895DD
:100DF0001092D7011092D60188EE93E0A0E0B0E007
:100E00008093D8019093D901A093DA01B093DB01CC
:100E10008EE091E09093D5018093D4018CE491E031
:100E20009093E1018093E00180E991E09093E301E8
:100E30008093E20185EC90E09093E5018093E401DA
:100E400084EC90E09093E7018093E60180EC90E0E1
:100E50009093E9018093E80181EC90E09093EB019D
:100E60008093EA0182EC90E09093ED018093EC0195
:100E700086EC90E09093EF018093EE0184E0809304
:100E8000F00183E08093F10187E08093F20185E037
:100E90008093F30181E08093F4010895CF92DF9273
:100EA000EF92FF920F931F93CF93DF937C016B011F
:100EB0008A01C0E0D0E00FC0D6016D916D01D7016D
:100EC000ED91FC910190F081E02DC7010995C80FCB
:100ED000D91F015010400115110571F7CE01DF91A6
:100EE000CF911F910F91FF90EF90DF90CF900895D9
:100EF000EF92FF920F931F938C01DC01ED91FC9117
:100F00000190F081E02D6DE009957C01D801ED9113
:100F1000FC910190F081E02DC8016AE009959C01E7
:100F20002E0D3F1DC9011F910F91FF90EF90089565
:100F3000CF93DF93EC016115710519F420E030E0E7
:100F40000FC0DB010D900020E9F71197A61BB70B2E
:100F5000E881F9810280F381E02DAD0109959C01C2
:100F6000C901DF91CF910895EF92FF920F931F93E4
:100F70007C010E9498078C01C7010E947807080F26
:100F8000191FC8011F910F91FF90EF9008958230B3
:100F900000F5E82FF0E0EE0FFF1FEA50FE4F7183DF
:100FA0006083882319F08130A1F408C08091690022
:100FB0008C7F842B80936900E89A08958091690062
:100FC000440F551F440F551F837F842B8093690066
:100FD000E99A08951F920F920FB60F9211242F9342
:100FE0003F934F935F936F937F938F939F93AF93B1
:100FF000BF93EF93FF938091F6019091F701892BB6
:1010000029F0E091F601F091F7010995FF91EF9138
:10101000BF91AF919F918F917F916F915F914F9110
:101020003F912F910F900FBE0F901F9018951F9218
:101030000F920FB60F9211242F933F934F935F930C
:101040006F937F938F939F93AF93BF93EF93FF9390
:101050008091F8019091F901892B29F0E091F80134
:10106000F091F9010995FF91EF91BF91AF919F9197
:101070008F917F916F915F914F913F912F910F9041
:101080000FBE0F901F901895CF93DF930E94F70823
:101090000E948D00C9E7D5E00E947C012097E1F312
:1010A0000E947905F9CF0E94630B08951F920F9259
:1010B0000FB60F9211242F933F938F939F93AF936B
:1010C000BF938091FE019091FF01A0910002B09129
:1010D0000102309102020196A11DB11D232F2D5F47
:1010E0002D3720F02D570196A11DB11D209302022E
:1010F0008093FE019093FF01A0930002B093010240
:101100008091FA019091FB01A091FC01B091FD0149
:101110000196A11DB11D8093FA019093FB01A0934C
:10112000FC01B093FD01BF91AF919F918F913F91D1
:101130002F910F900FBE0F901F9018959B01AC013F
:101140007FB7F8948091FA019091FB01A091FC0186
:10115000B091FD0166B5A89B05C06F3F19F00196DF
:10116000A11DB11D7FBFBA2FA92F982F8827860FE9
:10117000911DA11DB11D62E0880F991FAA1FBB1F01
:101180006A95D1F7BC012DC0FFB7F8948091FA01A0
:101190009091FB01A091FC01B091FD01E6B5A89BE7
:1011A00005C0EF3F19F00196A11DB11DFFBFBA2F79
:1011B000A92F982F88278E0F911DA11DB11DE2E048
:1011C000880F991FAA1FBB1FEA95D1F7861B970BA3
:1011D000885E9340C8F221503040404050406851F2
:1011E0007C4F211531054105510571F6089578941C
:1011F00084B5826084BD84B5816084BD85B582601C
:1012000085BD85B5816085BDEEE6F0E080818160B9
:101210008083E1E8F0E010828081826080838081B9
:1012200081608083E0E8F0E0808181608083E1EB91
:10123000F0E0808184608083E0EBF0E08081816079
:101240008083EAE7F0E0808184608083808182602F
:101250008083808181608083808180688083109218
:10126000C1000895982F8E3008F09E50977080919D
:1012700003018295880F880F807C892B80937C00E6
:1012800080917A00806480937A0080917A0086FD54
:10129000FCCF2091780040917900942F80E030E0DD
:1012A000282B392BC90108951F93CF93DF93182F53
:1012B000EB0161E00E94B409209709F44AC0CF3FD6
:1012C000D10509F449C0E12FF0E0E255FF4F8491C8
:1012D0008330C1F0843028F4813051F08230B1F590
:1012E0000CC0863019F1873049F1843079F514C08B
:1012F00084B5806884BDC7BD33C084B5806284BDB9
:10130000C8BD2EC080918000806880938000D093FB
:101310008900C093880024C08091800080628093FF
:101320008000D0938B00C0938A001AC08091B000D7
:1013300080688093B000C093B30012C08091B00069
:1013400080628093B000C093B4000AC0C038D10559
:101350001CF4812F60E002C0812F61E00E94F3093C
:10136000DF91CF911F910895CF93DF93482F50E0E5
:10137000CA0186569F4FFC0134914A575F4FFA01CC
:101380008491882369F190E0880F991FFC01E85946
:10139000FF4FA591B491FC01EE58FF4FC591D49138
:1013A000662351F42FB7F8948C91932F909589234D
:1013B0008C93888189230BC0623061F42FB7F89435
:1013C0008C91932F909589238C938881832B88838C
:1013D0002FBF06C09FB7F8948C91832B8C939FBF2F
:1013E000DF91CF910895482F50E0CA0182559F4F59
:1013F000FC012491CA0186569F4FFC0194914A57E3
:101400005F4FFA013491332309F440C0222351F194
:10141000233071F0243028F42130A1F0223011F56E
:1014200014C02630B1F02730C1F02430D9F404C004
:10143000809180008F7703C0809180008F7D8093A2
:10144000800010C084B58F7702C084B58F7D84BDC5
:1014500009C08091B0008F7703C08091B0008F7D6C
:101460008093B000E32FF0E0EE0FFF1FEE58FF4F28
:10147000A591B4912FB7F894662321F48C9190959F
:10148000892302C08C91892B8C932FBF0895682FDC
:1014900070E0CB0182559F4FFC012491CB01865611
:1014A0009F4FFC0144916A577F4FFB019491992310
:1014B00019F420E030E03CC0222351F1233071F0D8
:1014C000243028F42130A1F0223011F514C0263048
:1014D000B1F02730C1F02430D9F404C080918000ED
:1014E0008F7703C0809180008F7D8093800010C033
:1014F00084B58F7702C084B58F7D84BD09C080918B
:10150000B0008F7703C08091B0008F7D8093B000D2
:10151000892F90E0880F991F84589F4FFC01A59157
:10152000B4918C9120E030E0842311F021E030E090
:10153000C9010895EF92FF920F931F93FC01F62EBD
:10154000E42E09E412E060816062C80170E00E944C
:10155000980CC8016F2D0E941A0DC8016E2D0E94B3
:101560001A0DC8010E945D0D1F910F91FF90EF9021
:101570000895462F69E00E949A0A0895DF92EF923B
:10158000FF920F931F937C01D62E09E412E0FC0119
:1015900060816062C80170E00E94980CC8016D2DE6
:1015A0000E941A0DC8010E945D0DF7016081606202
:1015B000C80170E041E050E00E946E0DC8010E9439
:1015C000AB0C1F910F91FF90EF90DF9008950F9358
:1015D0001F93CF93DF93EC01162F042F6830F0F4A4
:1015E00060E00E94BE0A282F002351F481E090E0C1
:1015F00002C0880F991F1A95E2F7422F482B0AC0A4
:1016000081E090E002C0880F991F1A95E2F7482FF9
:1016100040954223CE0160E00E949A0ADF91CF916B
:101620001F910F910895CF93DF93EC01683008F07C
:1016300067E0688389E492E00E94720D68816062CD
:1016400089E492E070E00E94980C89E492E060E006
:101650000E941A0D89E492E06FEF0E941A0D89E44E
:1016600092E060E00E941A0D89E492E060E00E943E
:101670001A0D89E492E060E00E941A0D89E492E07C
:1016800060E00E941A0D89E492E060E00E941A0D69
:1016900089E492E060E00E941A0D89E492E060E043
:1016A0000E941A0D89E492E060E00E941A0D89E41C
:1016B00092E060E00E941A0D89E492E00E945D0DC4
:1016C000DF91CF9108950F931F93CF93DF93BC01C8
:1016D0008230910510F462E070E0E091C502F09173
:1016E000C602A0E0B0E040E050E024C080819181DB
:1016F00086179707D0F08617970771F48281938138
:10170000109729F013969C938E9312972CC0909368
:10171000C6028093C50227C04115510519F08417F0
:10172000950718F4EF018D01AC01DF0182819381EF
:101730009C01F9013097D1F641155105F9F0CA0124
:10174000861B970B8430910580F48A819B8101155B
:10175000110521F0F8019383828304C09093C6029F
:101760008093C502FE01329645C0FE01E80FF91FC5
:10177000619371930297998388833CC08091C302DF
:101780009091C402892B41F4809106019091070148
:101790009093C4028093C3024091080150910901C3
:1017A0004115510541F44DB75EB780910401909108
:1017B0000501481B590B2091C3023091C402241724
:1017C0003507B0F4CA01821B930B8617970780F088
:1017D000AB014E5F5F4F8417950750F0420F531FC8
:1017E0005093C4024093C302F9016193719302C004
:1017F000E0E0F0E0CF01DF91CF911F910F910895CC
:10180000CF93DF939C01009709F48FC0EC012297DE
:101810001B821A826091C5027091C6026115710522
:1018200081F488819981820F931F2091C3023091A6
:10183000C4022817390739F5D093C402C093C302F4
:1018400074C0DB0140E050E0AC17BD0708F1BB837A
:10185000AA83FE0121913191E20FF31FAE17BF075A
:1018600079F48D919C911197280F391F2E5F3F4F6E
:101870003983288312968D919C9113979B838A8339
:101880004115510571F4D093C602C093C5024DC0F5
:1018900012968D919C911397AD01009711F0DC0188
:1018A000D3CFDA011396DC93CE931297FA012191EC
:1018B0003191E20FF31FCE17DF0769F48881998118
:1018C000280F391F2E5F3F4FFA01318320838A8111
:1018D0009B8193838283E0E0F0E0DB0112968D919F
:1018E0009C911397009719F0BC01FD01F6CFAB0155
:1018F0004E5F5F4FDB018D919C91840F951F20916E
:10190000C3023091C4022817390779F4309729F4BB
:101910001092C6021092C50202C013821282425077
:1019200050405093C4024093C302DF91CF91089579
:1019300081E0809348026093250210924602109243
:10194000470208952091240230E080912302281B51
:101950003109C9010895409123028091240248175A
:1019600018F02FEF3FEF0AC0E42FF0E0ED5FFD4FDE
:101970008081282F30E04F5F40932302C9010895F2
:10198000E091230280912402E81718F0EFEFFFEFB7
:1019900006C0F0E0ED5FFD4F8081E82FF0E0CF0161
:1019A0000895089510924C0210924B0288EE93E035
:1019B000A0E0B0E080934D0290934E02A0934F02BE
:1019C000B09350028EE191E090934A0280934902D5
:1019D0000895CF92DF92EF92FF920F931F93CF93D0
:1019E000DF937C016B018A01809148028823A1F07A
:1019F000C0E0D0E00DC0D701ED91FC91D601AC0F55
:101A0000BD1F0190F081E02DC7016C9109952196D1
:101A1000C017D10780F304C0CB01642F0E941B0EB6
:101A2000C801DF91CF911F910F91FF90EF90DF9050
:101A3000CF900895DF93CF930F92CDB7DEB7FC011F
:101A40006983809148028823C9F0809147028032DF
:101A500038F081E090E09383828320E030E015C08D
:101A600080914602E82FF0E0EA5DFD4F9981908376
:101A70008F5F809346028093470205C0CE01019696
:101A800061E00E941B0E21E030E0C9010F90CF9170
:101A9000DF9108950F93062F8091250266E272E090
:101AA0004091470221E00E94C60D1092460210921A
:101AB0004702109248020F91089561E00E944A0D7A
:101AC0000895413208F040E2862F63E072E00E9400
:101AD0007D0D1092230280932402089521E00E943C
:101AE000610D089510922302109224021092460272
:101AF000109247020E94C70F0895382F413210F00C
:101B000040E042C0809155028823E1F791E0909334
:101B10005502209357028FEF8093C20210927D02EC
:101B2000415040937E024F5F90935602809156023F
:101B3000330F832B8093560280915802813041F4F9
:101B400010925802809156028093BB0085EC01C030
:101B500085EE8093BC00809155028130E1F3809145
:101B60007D02841710F440917D0220E030E00AC02D
:101B7000FB01E20FF31FD901A35ABD4F8C91808363
:101B80002F5F3F4F2417A0F3842F08950F931F93C7
:101B9000582F122F413210F081E04AC08091550237
:101BA0008823E1F782E080935502009357028FEF7C
:101BB0008093C20210927D0240937E02ADE5B2E0B6
:101BC000FB0102C081918D938E2F861B8417D0F369
:101BD0001092560280915602550F852B8093560223
:101BE00080915802813041F410925802809156023F
:101BF0008093BB0085EC01C085EE8093BC0011236F
:101C000021F0809155028230E1F38091C2028F3F32
:101C100011F480E00DC08091C202803211F482E0A4
:101C200007C08091C202803311F084E001C083E0DC
:101C30001F910F910895482F613210F081E00895AF
:101C400080915502843011F082E008956093A002E3
:101C5000AFE7B2E0842F9C01F90102C081918D931E
:101C60008E2F841B8617D0F380E008951F920F9269
:101C70000FB60F9211242F933F934F935F936F935F
:101C80007F938F939F93AF93BF93EF93FF93809135
:101C9000B90090E0887F90708036910509F4F2C019
:101CA00081369105CCF58832910509F47BC08932E3
:101CB0009105B4F48031910509F46FC0813191052B
:101CC0003CF4009709F447C1089709F04FC165C07B
:101CD0008831910509F466C0809709F047C182C038
:101CE0008034910509F4A4C08134910544F4803313
:101CF000910509F482C0C89709F038C189C08035C0
:101D0000910509F489C08835910509F496C0883495
:101D1000910509F02BC1AEC08839910509F413C1B2
:101D200089399105ECF48837910509F4ABC08937FE
:101D300091054CF48836910509F4A4C080379105CB
:101D400009F014C19FC08838910509F4FCC080399E
:101D5000910509F49DC08038910509F007C198C02C
:101D6000803B910509F4C6C0813B91054CF4803A53
:101D7000910509F49FC0883A910509F0F7C0BAC0EF
:101D8000803C910509F4E3C0883C910509F4DFC06B
:101D9000883B910509F0EAC0C2C080915602809349
:101DA000BB00CFC090917D0280917E02981768F4AD
:101DB00090917D02E92FF0E0E35AFD4F80818093FE
:101DC000BB009F5F90937D02BCC080915702882327
:101DD00009F44BC085ED8093BC008091BC0084FD6C
:101DE000FCCFC2C080E28093C20285ED8093BC002C
:101DF0008091BC0084FDFCCFB7C080E38093C20219
:101E000085ED8093BC008091BC0084FDFCCFACC00C
:101E100088E38093C2029BC080917D029091BB00B9
:101E2000E82FF0E0E35AFD4F90838F5F80937D02AF
:101E300090917D0280917E0282C080917D0290917E
:101E4000BB00E82FF0E0E35AFD4F90838F5F809353
:101E50007D0280915702882341F085ED8093BC007C
:101E60008091BC0084FDFCCF7FC081E0809358024C
:101E700084EA6EC085ED8093BC008091BC0084FD37
:101E8000FCCF72C083E0809355021092C10259C00A
:101E90008091C102803208F056C08091C1029091B9
:101EA000BB00E82FF0E0EF55FD4F90838F5F8093EC
:101EB000C10247C08091C102803230F4E091C1027A
:101EC000F0E0EF55FD4F108285ED8093BC008091CE
:101ED000BC0084FDFCCF109255026091C102E091DC
:101EE0005B02F0915C0281EA92E070E00995109249
:101EF000C1022DC084E08093550210929F0210927F
:101F0000A002E0915902F0915A0209958091A00235
:101F1000882329F481E08093A00210927F0290919F
:101F20009F02E92FF0E0E158FD4F80818093BB00D4
:101F30009F5F90939F0290919F028091A0029817BB
:101F400010F485EC01C085E88093BC000FC085ECDF
:101F50008093BC0009C01092C20285ED8093BC0042
:101F60008091BC0084FDFCCF10925502FF91EF914F
:101F7000BF91AF919F918F917F916F915F914F91A1
:101F80003F912F910F900FBE0F901F9018951092B8
:101F9000550281E0809357021092580282E161E07D
:101FA0000E94F30983E161E00E94F309E9EBF0E0AC
:101FB00080818E7F808380818D7F808388E4809381
:101FC000B80085E48093BC00089597FB092E07268E
:101FD0000AD077FD04D02ED006D000201AF47095D8
:101FE00061957F4F0895F6F7909581959F4F0895DD
:101FF000A1E21A2EAA1BBB1BFD010DC0AA1FBB1F0D
:10200000EE1FFF1FA217B307E407F50720F0A21B7E
:10201000B30BE40BF50B661F771F881F991F1A94EB
:1020200069F760957095809590959B01AC01BD0115
:10203000CF010895AA1BBB1B51E107C0AA1FBB1FFC
:10204000A617B70710F0A61BB70B881F991F5A9544
:10205000A9F780959095BC01CD010895EE0FFF1F63
:0C2060000590F491E02D0994F894FFCF56
:10206C00000001018000C702000000000000B8065B
:10207C004E074E067F065F06A806000000001A0DEC
:0A208C00E90CA20CAB0CC00CD10C47
:00000001FF
