:100000000C9406010C94210A0C94520A0C94830A55
:100010000C94B40A0C94E50A0C94160B0C94470B40
:100020000C94780B0C9431010C9431010C94310137
:100030000C9431010C9431010C9431010C94310178
:100040000C9431010C9431010C9431010C94310168
:100050000C9431010C9431010C9431010C94A208E0
:100060000C9431010C94E90D0C94410F0C94310166
:100070000C9431010C9431010C9431010C94310138
:100080000C9431010C9431010C9431010C94310128
:100090000C94290E0C94800F0C9431010C943101B6
:1000A0000C9431010C9431010C9431010C94310108
:1000B0000C9431010C9431010C9431010C943101F8
:1000C0000C9431010C9431010C9431010C94690EA3
:1000D0000C94BF0F0C9431010C94A90E0C94FE0FDC
:1000E0000C94310100002100240027002A002D007B
:1000F0003000330001010000040107010A01000083
:100100002200250028002B002E00310034000201BF
:100110000000050108010B0100002000230026005B
:1001200029002C002F00320000010000030106010D
:10013000090105050505070508080808020202026D
:100140000A0A080804040404010101010101010173
:100150000303030303030303040707070C0C0C0C3E
:100160000C0C0C0C02020202060606060606060627
:100170000B0B0B0B0B0B0B0B0102102020080810B4
:100180002040102040800201020108040201010207
:1001900004081020408080402010080402018004E0
:1001A000020180402010080402010804020101023B
:1001B0000408102040800102040810204080000044
:1001C000090A02080B0C0D070603040100000000D9
:1001D000000000000000000000000000000000001F
:1001E0000000000000000000000011100F000000DF
:1001F00000000000000000000000000000000000FF
:10020000000000003502F3047311460211241FBEE2
:10021000CFEFD1E2DEBFCDBF12E0A0E0B2E0ECE272
:10022000FBE200E00BBF02C007900D92A831B107BE
:10023000D9F71BBE16E0A8E1B2E001C01D92A231C1
:10024000B107E1F712E0CAE0D2E004C02297FE0154
:100250000E948515C430D107C9F70E94D70D0C94B0
:1002600089150C940000CF93DF93BC018230910577
:1002700010F462E070E0A0911006B0911106ED015B
:1002800040E050E0E0E0F0E021C0888199818617ED
:10029000970769F48A819B81309719F09383828351
:1002A00004C09093110680931006FE0134C06817B5
:1002B000790738F44115510519F08417950708F4AA
:1002C000AC01FE018A819B819C01E9012097E9F63E
:1002D00041155105A9F1CA01861B970B049708F433
:1002E000BA01E0E0F0E02AC08D919C91119784174B
:1002F0009507F9F46417750781F412968D919C9116
:100300001397309719F09383828304C0909311065A
:1003100080931006FD0132964CC0CA01861B970BD4
:10032000FD01E80FF91F6193719302978D939C93E0
:1003300040C0FD01828193819C01D9011097A1F6F3
:1003400080910E0690910F06892B41F48091020254
:100350009091030290930F0680930E064091040241
:10036000509105024115510541F44DB75EB780919A
:10037000000290910102481B590B20910E0630910A
:100380000F06CA01821B930B8617970780F0AB01FB
:100390004E5F5F4F8417950750F0420F531F5093E5
:1003A0000F0640930E06F9016193719302C0E0E0DD
:1003B000F0E0CF01DF91CF910895CF93DF930097C5
:1003C00009F450C0EC0122971B821A82A0911006FA
:1003D000B0911106109709F140E050E0AC17BD074D
:1003E00008F1BB83AA83FE0121913191E20FF31F33
:1003F000AE17BF0779F48D919C911197280F391F83
:100400002E5F3F4F3983288312968D919C911397CD
:100410009B838A834115510571F4D0931106C093D3
:10042000100620C012968D919C911397AD010097F4
:1004300011F0DC01D3CFFA01D383C2832191319132
:10044000E20FF31FCE17DF0769F488819981280F27
:10045000391F2E5F3F4FFA01318320838A819B81B0
:1004600093838283DF91CF91089510923403109289
:100470003303109236031092350310923803109212
:10048000370310923A0310923903089508953F926A
:100490004F925F926F927F928F929F92AF92BF9294
:1004A000CF92DF92EF92FF920F931F93DF93CF9340
:1004B000CDB7DEB78C016DB67EB6FC01EE5FFE4FA8
:1004C00080819181892B09F088C0ABC0D401ED9166
:1004D000FC91A081B18116962D913C911797CF0187
:1004E000F9010995803C09F067C0F501808191818F
:1004F000892B31F4D6018D919C91892B09F458C038
:100500005DB64EB6F701A081B1818DB79EB78A1B4B
:100510009B0B0FB6F8949EBF0FBE8DBF6DB77EB715
:100520006F5F7F4F109719F440E050E029C040E022
:1005300050E080E090E021C0F801E80FF91F308121
:10054000303CD1F03B3D91F421812C3D29F4FB015D
:10055000E40FF51F308206C02D3D79F4FB01E40F56
:10056000F51F30834F5F5F4F029607C0FB01E40F1A
:10057000F51F30834F5F5F4F01968A179B07E0F2AC
:10058000D501ED91FC91309721F0CB01BA0109958D
:1005900007C0D601ED91FC91309711F0C801099583
:1005A000852D942D9C010FB6F8943EBF0FBE2DBF34
:1005B000F7011182108225C0D701ED91FC911197AE
:1005C0009F012F5F3F4F2F3F310509F0D0F4E00F1F
:1005D000F11F80832D933C9314C04F01E12C31E037
:1005E000F32EE00EF11E24E0A22E21E0B22EA00E8A
:1005F000B11E96E0C92E91E0D92EC00ED11E80EC1E
:10060000382ED401ED91FC91A081B18114962D91E9
:100610003C911597CF01F9010995181619060CF4AC
:1006200055CF0FB6F8947EBE0FBE6DBECF91DF9151
:100630001F910F91FF90EF90DF90CF90BF90AF9000
:100640009F908F907F906F905F904F903F90089514
:1006500080911802909119020E94B30783E392E0FF
:100660000E94470208957F928F929F92AF92BF920D
:10067000CF92DF92EF92FF920F931F93DF93CF936E
:10068000CDB7DEB7DC019B017A01CDB6DEB6BDB6D3
:10069000AEB6AE5FBE4F8D919C911197A250B14006
:1006A000892B09F475C06115710509F471C04115F4
:1006B000510509F46DC0CA010196880F991F4DB705
:1006C0005EB7481B590B0FB6F8945EBF0FBE4DBF07
:1006D0006DB77EB76F5F7F4F80ECEDB7FEB781835C
:1006E000890141E050E021E030E08DED782EFBED16
:1006F0008F2EECED9E2E24C0F8018081803C61F4A9
:10070000FB01E40FF51F8082CA010196FB01E80F8F
:10071000F91F9082AC010CC0FB01E40FF51F4F5F85
:100720005F4F8B3D41F48083FB01E40FF51F708226
:100730004F5F5F4F01C080832F5F3F4F0F5F1F4FA1
:10074000C90101978E159F05B8F28D010E5F1E4FEE
:10075000D801ED91FC91A081B18112962D913C912F
:100760001397CF01F9010995D801ED91FC91A08172
:10077000B1812D913C91CF0160ECF90109952B2DB0
:100780003A2DC9010FB6F8949EBF0FBE8DBF08C0A9
:100790008B2D9A2D9C010FB6F8943EBF0FBE2DBF36
:1007A0000FB6F894DEBE0FBECDBECF91DF911F9184
:1007B0000F91FF90EF90DF90CF90BF90AF909F9000
:1007C0008F907F900895DF93CF9300D000D0CDB766
:1007D000DEB783EC898385E08A831B828FE58C8377
:1007E00083E392E0BE016F5F7F4F44E050E00E94E0
:1007F00033030F900F900F900F90CF91DF910895DA
:100800000F931F9386E895E040E052EC61E070E0C2
:100810000E943D1006E815E0C8010E94711188236E
:10082000C9F310933603009335038BEC94E0909357
:1008300038038093370310923A031092390382E011
:1008400060E00E94A90B83E060E00E94A90B84E0B5
:1008500060E00E94A90B85E061E00E94A90B86E0A0
:1008600061E00E94A90B85E061E00E945C0C86E0DB
:1008700061E00E945C0C87E060E00E94A90B80E0D0
:1008800067EE74E041E050E00E94A5098BE190E042
:100890000E94D30D182F092F63E372E00E942808ED
:1008A00010931802009319021F910F910895DF937E
:1008B000CF9300D0CDB7DEB7809118029091190286
:1008C0000E94F50594EC99838A8383E392E0BE014C
:1008D0006F5F7F4F42E050E00E9433030F900F9014
:1008E000CF91DF9108951F93CF93DF93EC0169813E
:1008F000DC01EAE1F2E012968C91129780958193E7
:10090000119682E0E333F807B1F71B8D809118024E
:10091000909119020E94DB06882341F010FF06C067
:1009200080911802909119020E94FF05DF91CF91EA
:100930001F9108950F931F93DF93CF9300D0CDB7EE
:10094000DEB7FC01618142813381EAE1F2E08FEFA1
:10095000819392E0E333F907D9F7809118029091DF
:10096000190220E0311121E00AE112E00E94CE07D5
:1009700091EC99838A8383E392E0BE016F5F7F4F9E
:1009800042E050E00E9433030F900F90CF91DF912F
:100990001F910F910895FC018081833091F0843084
:1009A00018F4813099F405C0843071F0823471F408
:1009B00004C0CF010E949A040895CF010E947304DD
:1009C00008950E94E30308950E94570408958091BA
:1009D0001802909119020E94EE070895FC011182FD
:1009E0001082089508958BE393E06AE34BE321E0DE
:1009F0000E942C140895EF92FF920F931F93162FCD
:100A0000072F8BE3E82E83E0F82EC70160E270E049
:100A10000E940D15C701612F0E94FA14C7010E94A0
:100A2000DE14C70161E270E00E940D15C701602F5E
:100A30000E94FA14C7010E94DE141F910F91FF90CB
:100A4000EF900895FC01718360830E94FB04089578
:100A5000FC01603140F520813181442371F081E057
:100A600090E0A0E0B0E004C0880F991FAA1FBB1F50
:100A70006A95D2F7282B392B0FC081E090E0A0E0D7
:100A8000B0E004C0880F991FAA1FBB1F6A95D2F758
:100A9000809590952823392331832083608171814B
:100AA000CF010E94FB040895FC0110821182128282
:100AB000138214820895FC0184810895FC018281CF
:100AC0000895FC0180810895FC0181810895FC0155
:100AD00083810895613029F0623029F020E030E010
:100AE00006C081E001C080E00E94BF0C9C01C901EA
:100AF0000895CF93DF93EC018881813029F48C81B4
:100B0000882311F081508C8380E00E94BF0C8955AE
:100B1000924068F082E0898384E00E948F0C892BE8
:100B200011F481E001C082E08A8383EE8C83DF913F
:100B3000CF910895CF93DF93EC0183E00E948F0C57
:100B4000892B11F481E001C082E08883823029F48E
:100B50008C818F3F11F08F5F8C8381E00E94BF0CEE
:100B60009C01885C904081599140D8F081E0898354
:100B7000283C310538F48B81813011F483E005C0C5
:100B800082E003C02955324008F08B8384E00E9444
:100B90008F0C892B11F482E001C081E08A838CE103
:100BA0008C83DF91CF9108951F93CF93DF93EC0156
:100BB000198282E00E948F0C10E0892B09F011E06D
:100BC00080914803882331F4112349F0CE010E941B
:100BD0009A0505C0112319F4CE010E9479051093DE
:100BE0004803DF91CF911F910895FC0182858230E7
:100BF00010F080E0089583E0828781E0089521E08D
:100C0000FC0123870895FC018589813051F18230F0
:100C100009F054C09489208D233011F088E201C07E
:100C200088E0981708F44AC0233011F088E201C028
:100C300088E0981B928F8789813019F484898F709E
:100C400009C0823041F4848990E0089760E170E047
:100C50000E943A15818F808D823091F5828D885F58
:100C60002AC04489608D633011F050E101C050E228
:100C7000242F30E08FEF90E0851B910982179307B6
:100C8000ECF0633011F080E101C080E2481B428F3C
:100C90008789813031F4848990E008968F70907054
:100CA00004C0823019F484898F70818F808D8230E6
:100CB00039F4828D8051828F81E0089580E008951B
:100CC00081E00895EF92FF920F931F93DF93CF93EC
:100CD000CDB7DEB729970FB6F894DEBF0FBECDBFF4
:100CE0007C0184E889836A8387010C5F1F4FC801F8
:100CF00061E00E946A059B838C83C80162E00E94C8
:100D00006A059D838E83F701808D8F838489888710
:100D1000C8010E9461058987F70180819181BE0128
:100D20006F5F7F4F49E050E00E94330329960FB672
:100D3000F894DEBF0FBECDBFCF91DF911F910F9111
:100D4000FF90EF900895CF93DF93EC019C89809101
:100D50004903891749F090934903CE010E94030685
:100D6000CE0160E00E946206DF91CF9108950F935B
:100D70001F93DF93CF9300D0CDB7DEB78C0182E80D
:100D800089836A83F80180819181BE016F5F7F4F03
:100D900042E050E00E94330381E0F801808B0F9025
:100DA0000F90CF91DF911F910F91089585E060E042
:100DB0000E945C0C0895FC01962F8089882371F0B5
:100DC0006189961739F4108ACF0109960E949A0812
:100DD00081E00895CF010E94B70680E00895EF9268
:100DE000FF920F931F93CF93DF93EC0185E061E0B7
:100DF0000E945C0C80910602882391F010920602FA
:100E000060ED77E080E090E00E94EA08CE0109966C
:100E10000E949A0869896F5F698BCE010E94B706AC
:100E20009C8980914B03891709F476C090934B03FA
:100E30008F85882321F0CE0161E00E946206CE01F9
:100E40000E940306882309F467C04A8D242F30E0EE
:100E50006D85862F90E00C97281739076CF15E8519
:100E6000852F90E00C968217930734F1461728F0EF
:100E7000541718F081E080934A03469546954695AD
:100E8000842F90E0EA89FB89E80FF91F408150E048
:100E9000B3E0880F991FBA95E1F7281B390B02C000
:100EA000559547952A95E2F741705070CE0102960C
:100EB000698D0E94280530C0A2E0EA2EF12CEC0ECC
:100EC000FD1EC701698D41E00E94280580914A03FB
:100ED000882311F110924A038889882351F48B8565
:100EE000882339F469896F5F698BCE010E94B70648
:100EF00013C08B85882381F08E01075F1F4FC801C7
:100F00000E94960881E08A87C7016FEF7FEF0E94F9
:100F10002205C8010E949A08DF91CF911F910F917D
:100F2000FF90EF900895CF93DF93EC018D8982308D
:100F300029F48E89813011F480934C0380914C0305
:100F4000882369F081E08A87CE0102966FEF7FEFF8
:100F50000E942205CE0161E00E94620601C01A864D
:100F6000DF91CF910895FC018285813059F0813065
:100F700028F0823059F0833081F40CC0CF010E94F8
:100F800093070895CF010E94D6060895CF010E94CD
:100F9000EF060895CF010E94A30608950F931F93B3
:100FA000FC01483CB8F46417A8F48285813091F4C0
:100FB00092E09287658746872787138B028B8FEF96
:100FC000818B108A13869487CF0109960E949E0810
:100FD00081E001C080E01F910F910895EF92FF9290
:100FE0000F931F937C018C010C5F1F4FC8010E945F
:100FF000D405C8010E945B05F701848BC8010E94DB
:101000006105F701858BC8010E946405F701868B95
:10101000C8010E945E05F701878BC8010E94670521
:10102000F701808F1F910F91FF90EF9008950F931C
:101030001F938C0102960E94EE04C80104960E9440
:101040005405C80109960E9468081F910F910895E0
:10105000CF92DF92EF92FF920F931F93DF93CF9384
:10106000CDB7DEB76B970FB6F894DEBF0FBECDBF1E
:101070008C017B0182E0C82ED12CC00ED11EC6018E
:101080000E94EE04C80104960E945405C801099606
:101090000E946808CE0101960E941708F801F182AB
:1010A000E082128615861686118A108AC6010E9471
:1010B000F2046B960FB6F894DEBF0FBECDBFCF9192
:1010C000DF911F910F91FF90EF90DF90CF900895E7
:1010D00008950F931F93CF93DF93C0E0D0E0062FC6
:1010E00010E017C089E060E070E00E94F30C62E35A
:1010F00070E080E090E00E94EA0889E064E170E03E
:101100000E94F30C62E370E080E090E00E94EA0845
:101110002196C017D10734F389E06FEF70E00E9489
:10112000F30CDF91CF911F910F9108956AE00E9417
:101130006908089563E00E946908089565E00E94C7
:10114000690808951F920F920FB60F9211242F93E2
:101150003F938F939F93AF93BF938091510390914F
:101160005203A0915303B09154033091550301965B
:10117000A11DB11D232F2D5F2D3720F02D57019676
:10118000A11DB11D209355038093510390935203E9
:10119000A0935303B093540380914D0390914E0359
:1011A000A0914F03B09150030196A11DB11D8093F2
:1011B0004D0390934E03A0934F03B0935003BF9100
:1011C000AF919F918F913F912F910F900FBE0F90F4
:1011D0001F9018959B01AC017FB7F89480914D0347
:1011E00090914E03A0914F03B091500366B5A89B18
:1011F00005C06F3F19F00196A11DB11D7FBFBA2F29
:10120000A92F982F8827860F911DA11DB11D62E07F
:10121000880F991FAA1FBB1F6A95D1F7BC012DC06B
:10122000FFB7F89480914D0390914E03A0914F0326
:10123000B0915003E6B5A89B05C0EF3F19F00196A9
:10124000A11DB11DFFBFBA2FA92F982F88278E0F80
:10125000911DA11DB11DE2E0880F991FAA1FBB1FA0
:10126000EA95D1F7861B970B885E9340C8F2215010
:1012700030404040504068517C4F211531054105B8
:10128000510571F60895789484B5826084BD84B563
:10129000816084BD85B5826085BD85B5816085BD71
:1012A000EEE6F0E0808181608083E1E8F0E010828A
:1012B000808182608083808181608083E0E8F0E0CB
:1012C000808181608083E1EBF0E0808184608083B5
:1012D000E0EBF0E0808181608083E1E9F0E08081F3
:1012E00082608083808181608083E0E9F0E080819A
:1012F00081608083E1EAF0E0808182608083808188
:1013000081608083E0EAF0E0808181608083E1E2B7
:10131000F1E0808182608083808181608083E0E26F
:10132000F1E0808181608083EAE7F0E08081846081
:1013300080838081826080838081816080838081DE
:10134000806880831092C1000895883008F078C0CA
:10135000E82FF0E0EE0FFF1FEA5AFC4F7183608325
:101360008330D9F0843030F4813009F444C08230C5
:1013700060F439C0853051F18530D8F0863009F4F9
:1013800046C0873009F05CC04FC0809169008C7FF7
:10139000842B80936900E89A089580916900440F36
:1013A000551F440F551F837F842B80936900E99A52
:1013B00008958091690074E0440F551F7A95E1F714
:1013C0008F7C842B80936900EA9A0895809169004C
:1013D00066E0440F551F6A95E1F78F73842B809365
:1013E0006900EB9A089580916A008C7F842B80932A
:1013F0006A00EC9A089580916A00440F551F440FCB
:10140000551F837F842B80936A00ED9A0895809105
:101410006A0024E0440F551F2A95E1F78F7C842B46
:1014200080936A00EE9A089580916A0096E0440FD6
:10143000551F9A95E1F78F73842B80936A00EF9A7A
:1014400008951F920F920FB60F920BB60F921124B0
:101450002F933F934F935F936F937F938F939F93BC
:10146000AF93BF93EF93FF9380915A0390915B03E7
:10147000892B29F0E0915A03F0915B030995FF91C4
:10148000EF91BF91AF919F918F917F916F915F91FC
:101490004F913F912F910F900BBE0F900FBE0F9069
:1014A0001F9018951F920F920FB60F920BB60F92C6
:1014B00011242F933F934F935F936F937F938F9359
:1014C0009F93AF93BF93EF93FF9380915C039091B1
:1014D0005D03892B29F0E0915C03F0915D03099590
:1014E000FF91EF91BF91AF919F918F917F916F91FC
:1014F0005F914F913F912F910F900BBE0F900FBEB8
:101500000F901F9018951F920F920FB60F920BB667
:101510000F9211242F933F934F935F936F937F9379
:101520008F939F93AF93BF93EF93FF9380915E034D
:1015300090915F03892B29F0E0915E03F0915F03A6
:101540000995FF91EF91BF91AF919F918F917F91FD
:101550006F915F914F913F912F910F900BBE0F9024
:101560000FBE0F901F9018951F920F920FB60F92FB
:101570000BB60F9211242F933F934F935F936F936A
:101580007F938F939F93AF93BF93EF93FF9380913C
:10159000600390916103892B29F0E0916003F09141
:1015A00061030995FF91EF91BF91AF919F918F9149
:1015B0007F916F915F914F913F912F910F900BBE53
:1015C0000F900FBE0F901F9018951F920F920FB69D
:1015D0000F920BB60F9211242F933F934F935F936B
:1015E0006F937F938F939F93AF93BF93EF93FF93EB
:1015F0008091560390915703892B29F0E09156036F
:10160000F09157030995FF91EF91BF91AF919F9191
:101610008F917F916F915F914F913F912F910F909B
:101620000BBE0F900FBE0F901F9018951F920F9238
:101630000FB60F920BB60F9211242F933F934F9337
:101640005F936F937F938F939F93AF93BF93EF932A
:10165000FF938091580390915903892B29F0E091D1
:101660005803F09159030995FF91EF91BF91AF9104
:101670009F918F917F916F915F914F913F912F91AA
:101680000F900BBE0F900FBE0F901F9018951F92DA
:101690000F920FB60F920BB60F9211242F933F9318
:1016A0004F935F936F937F938F939F93AF93BF936A
:1016B000EF93FF938091620390916303892B29F04C
:1016C000E0916203F09163030995FF91EF91BF915F
:1016D000AF919F918F917F916F915F914F913F91CA
:1016E0002F910F900BBE0F900FBE0F901F9018956B
:1016F0001F920F920FB60F920BB60F9211242F93D9
:101700003F934F935F936F937F938F939F93AF9389
:10171000BF93EF93FF938091640390916503892BAE
:1017200029F0E0916403F09165030995FF91EF9131
:10173000BF91AF919F918F917F916F915F914F91E9
:101740003F912F910F900BBE0F900FBE0F901F90E7
:101750001895CF93DF93482F50E0CA0188589E4FC9
:10176000FC0134914E5C5E4FFA018491882369F14B
:1017700090E0880F991FFC01EC51FF4FA591B491A7
:10178000FC01E250FF4FC591D491662351F42FB76D
:10179000F8948C91932F909589238C938881892339
:1017A0000BC0623061F42FB7F8948C91932F909511
:1017B00089238C938881832B88832FBF06C09FB792
:1017C000F8948C91832B8C939FBFDF91CF910895D8
:1017D000893009F449C08A30A0F4843051F1853051
:1017E00040F4823079F1833000F5813009F063C034
:1017F00026C0873079F1883098F5863009F05BC0D3
:1018000025C08D3009F442C08E3028F48B30B1F100
:101810008C30C0F52DC0803109F442C0813109F40B
:1018200045C08F3009F047C037C0809180008F7766
:1018300003C0809180008F7D80938000089584B5DF
:101840008F7702C084B58F7D84BD08958091B000EC
:101850008F7703C08091B0008F7D8093B000089592
:10186000809190008F7707C0809190008F7D03C09A
:1018700080919000877F8093900008958091A000D0
:101880008F7707C08091A0008F7D03C08091A0005A
:10189000877F8093A0000895809120018F7703C0F7
:1018A000809120018F7D80932001089580912001F7
:1018B000877F809320010895FF920F931F93F62E48
:1018C000482F50E0CA0182549E4FFC012491CA0166
:1018D00088589E4FFC0114914E5C5E4FFA010491B2
:1018E0000023C9F0222319F0822F0E94E80BE02F79
:1018F000F0E0EE0FFF1FE250FF4FA591B4919FB7AC
:10190000F894FF2021F48C911095812302C08C91D2
:10191000812B8C939FBF1F910F91FF9008950F9380
:101920001F93482F50E0CA0182549E4FFC0124911E
:10193000CA0188589E4FFC0104914E5C5E4FFA012B
:101940001491112319F420E030E015C0222319F07E
:10195000822F0E94E80B812F90E0880F991F885EEC
:101960009E4FFC01A591B4918C9120E030E0802342
:1019700011F021E030E0C9011F910F910895382F37
:10198000863308F0365320917B00832F8695869509
:10199000869590E08170907043E0880F991F4A957A
:1019A000E1F7277F282B20937B0037708091070277
:1019B0008295880F880F807C832B80937C00809198
:1019C0007A00806480937A0080917A0086FDFCCF53
:1019D0002091780040917900942F80E030E0282B0E
:1019E000392BC90108951F93CF93DF93182FEB0173
:1019F00061E00E94A90B209709F4CAC0CF3FD1052E
:101A000009F4C9C0E12FF0E0E254FE4F849189301F
:101A100009F466C08A30B0F48430F1F1853040F4C6
:101A2000823059F1833070F5813009F0AEC020C0AA
:101A3000873009F443C0883008F048C0863009F088
:101A4000A4C034C08D3009F478C08E3038F48B30A7
:101A500009F45AC08C3008F066C04CC0803109F4DB
:101A600080C0813109F487C08F3009F08EC06FC00B
:101A700084B5806884BDC7BD92C084B5806284BDD2
:101A8000C8BD8DC080918000806880938000D09315
:101A90008900C093880083C0809180008062809319
:101AA0008000D0938B00C0938A0079C08091B000F1
:101AB00080688093B000C093B30071C08091B00083
:101AC00080628093B000C093B40069C080919000A0
:101AD000806880939000D0939900C09398005FC075
:101AE00080919000806280939000D0939B00C0937F
:101AF0009A0055C080919000886080939000D093A8
:101B00009D00C0939C004BC08091A0008068809392
:101B1000A0008091A0008F7B8093A000D093A900AB
:101B2000C093A8003CC08091A00080628093A00078
:101B3000D093AB00C093AA0032C08091A00088600F
:101B40008093A000D093AD00C093AC0028C08091DA
:101B50002001806880932001D0932901C09328013F
:101B60001EC080912001806280932001D0932B01C0
:101B7000C0932A0114C080912001886080932001C5
:101B8000D0932D01C0932C010AC0C038D1051CF49C
:101B9000812F60E002C0812F61E00E945C0CDF9128
:101BA000CF911F9108950E94330108950895CF9316
:101BB000DF930E9443090E94D60D0E940004C8EEE4
:101BC000DEE00E9428032097E1F30E94E80EF9CF9F
:101BD00008951F920F920FB60F920BB60F92112419
:101BE0002F933F934F938F939F93EF93FF93809106
:101BF000C00082FD1DC04091C6002091A603309117
:101C0000A7032F5F3F4F2F7330708091A8039091EF
:101C1000A9032817390771F0E091A603F091A703F3
:101C2000EA59FC4F40833093A7032093A60302C0D8
:101C30008091C600FF91EF919F918F914F913F91BD
:101C40002F910F900BBE0F900FBE0F901F90189505
:101C500008951F920F920FB60F920BB60F92112498
:101C60002F933F934F938F939F93EF93FF93809185
:101C7000C80082FD1DC04091CE0020912E043091FD
:101C80002F042F5F3F4F2F7330708091300490915D
:101C900031042817390771F0E0912E04F0912F04D8
:101CA000E251FC4F408330932F0420932E0402C056
:101CB0008091CE00FF91EF919F918F914F913F9135
:101CC0002F910F900BBE0F900FBE0F901F90189585
:101CD00008951F920F920FB60F920BB60F92112418
:101CE0002F933F934F938F939F93EF93FF93809105
:101CF000D00082FD1DC04091D6002091B6043091E5
:101D0000B7042F5F3F4F2F7330708091B8049091CC
:101D1000B9042817390771F0E091B604F091B704BF
:101D2000EA58FB4F40833093B7042093B60402C0B7
:101D30008091D600FF91EF919F918F914F913F91AC
:101D40002F910F900BBE0F900FBE0F901F90189504
:101D500008951F920F920FB60F920BB60F92112497
:101D60002F933F934F938F939F93EF93FF93809184
:101D7000300182FD1DC04091360120913E05309119
:101D80003F052F5F3F4F2F7330708091400590913A
:101D900041052817390771F0E0913E05F0913F05A4
:101DA000E250FB4F408330933F0520933E0502C035
:101DB00080913601FF91EF919F918F914F913F91CB
:101DC0002F910F900BBE0F900FBE0F901F90189584
:101DD000E0919205F0919305E05CFF4F8191919124
:101DE00020813181805C9F4F821B930B60E470E007
:101DF0000E943A15892B11F00E94E80DE091B4057C
:101E0000F091B505E05CFF4F819191912081318186
:101E1000805C9F4F821B930B60E470E00E943A1538
:101E2000892B11F00E94280EE091D605F091D7057C
:101E3000E05CFF4F8191919120813181805C9F4FC7
:101E4000821B930B60E470E00E943A15892B11F01D
:101E50000E94680EE091F805F091F905E05CFF4FF3
:101E60008191919120813181805C9F4F821B930BE6
:101E700060E470E00E943A15892B11F00E94A80ED0
:101E800008951F920F920FB60F920BB60F92112466
:101E90002F933F938F939F93EF93FF932091EA03A8
:101EA0003091EB038091EC039091ED0328173907F3
:101EB00031F48091C1008F7D8093C10014C0E09106
:101EC000EC03F091ED03E655FC4F20818091EC038B
:101ED0009091ED0301968F7390709093ED03809332
:101EE000EC032093C600FF91EF919F918F913F915A
:101EF0002F910F900BBE0F900FBE0F901F90189553
:101F00001F920F920FB60F920BB60F9211242F93C0
:101F10003F938F939F93EF93FF932091720430919F
:101F2000730480917404909175042817390731F473
:101F30008091C9008F7D8093C90014C0E091740422
:101F4000F0917504EE5CFB4F2081809174049091B8
:101F5000750401968F739070909375048093740448
:101F60002093CE00FF91EF919F918F913F912F9100
:101F70000F900BBE0F900FBE0F901F9018951F92E1
:101F80000F920FB60F920BB60F9211242F933F931F
:101F90008F939F93EF93FF932091FA043091FB046A
:101FA0008091FC049091FD042817390731F4809149
:101FB000D1008F7D8093D10014C0E091FC04F0919A
:101FC000FD04E654FB4F20818091FC049091FD04B8
:101FD00001968F7390709093FD048093FC0420937E
:101FE000D600FF91EF919F918F913F912F910F908C
:101FF0000BBE0F900FBE0F901F9018951F920F925F
:102000000FB60F920BB60F9211242F933F938F931D
:102010009F93EF93FF9320918205309183058091E8
:102020008405909185052817390731F48091310195
:102030008F7D8093310114C0E0918405F091850576
:10204000EE5BFA4F20818091840590918505019681
:102050008F7390709093850580938405209336014B
:10206000FF91EF919F918F913F912F910F900BBE18
:102070000F900FBE0F901F901895AF92BF92DF92F6
:10208000EF92FF920F931F93CF93DF93EC017A01AE
:102090008B01DD24403081EE580780E0680780E046
:1020A000780711F0DD24D39491E0A92EB12CEC89AE
:1020B000FD89DD2069F0C50108A002C0880F991FC5
:1020C0000A94E2F7808360E079E08DE390E005C058
:1020D000108260E874E88EE190E0A80197010E9408
:1020E0004D1521503040404050405695479537950A
:1020F000279580E12030380720F0DD2011F0DD2425
:10210000D6CFE889F9893083EA89FB89208319A22F
:10211000EE89FF89408121E030E0C9010C8C02C0CA
:10212000880F991F0A94E2F7482B4083EE89FF89B4
:102130004081C9010D8C02C0880F991F0A94E2F7F3
:10214000482B4083EE89FF894081C9010E8C02C073
:10215000880F991F0A94E2F7482B4083EE89FF8984
:1021600080810F8C02C0220F331F0A94E2F7209562
:1021700028232083DF91CF911F910F91FF90EF9043
:10218000DF90BF90AF900895DC011C96ED91FC911B
:102190001D97E05CFF4F8191919120813181805C9E
:1021A0009F4F821B930B60E470E00E943A150895E4
:1021B000DC011C96ED91FC911D97E05CFF4F2081A6
:1021C0003181E054F040DF01AE5BBF4F8D919C91B7
:1021D00011972817390719F42FEF3FEF07C08D919A
:1021E0009C91E80FF91F8081282F30E0C9010895E4
:1021F000DC011C96ED91FC911D97E05CFF4F208166
:102200003181E054F040DF01AE5BBF4F8D919C9176
:1022100011972817390719F42FEF3FEF10C08D9150
:102220009C911197E80FF91F20818D919C91119736
:1022300001968F73907011969C938E9330E0C90134
:102240000895DC0191968C919197882339F05496EA
:10225000ED91FC915597808186FFF9CF91961C9264
:102260000895CF93DF93EC01EE85FF85E05CFF4F8F
:1022700020813181E054F0402F5F3F4F2F73307049
:10228000DF01AE5BBF4F8D919C91119728173907E5
:10229000D1F3E05CFF4F80819181E054F040E80F82
:1022A000F91F6083EE85FF85E05CFF4F318320835B
:1022B000EE89FF89208181E090E00F8C02C0880FB9
:1022C000991F0A94E2F7282B208381E089A3EC89E7
:1022D000FD8980818064808381E090E0DF91CF91EF
:1022E000089581E008951F93109289051092880542
:1022F00028EE33E040E050E020938A0530938B05D0
:1023000040938C0550938D056CE072E070938705C7
:102310006093860586E693E09093930580939205FB
:102320008AEA93E0909395058093940585EC90E07C
:10233000909397058093960584EC90E0909399058F
:102340008093980580EC90E090939B0580939A058C
:1023500081EC90E090939D0580939C0582EC90E049
:1023600090939F0580939E0586EC90E09093A10545
:102370008093A00514E01093A205B3E0B093A305E9
:10238000A7E0A093A405F5E0F093A505E1E0E093B4
:10239000A6051092AB051092AA052093AC053093C8
:1023A000AD054093AE055093AF057093A9056093BA
:1023B000A8058EEE93E09093B5058093B40582E373
:1023C00094E09093B7058093B6058DEC90E09093E0
:1023D000B9058093B8058CEC90E09093BB05809391
:1023E000BA0588EC90E09093BD058093BC0589EC1C
:1023F00090E09093BF058093BE058AEC90E09093A7
:10240000C1058093C0058EEC90E09093C305809346
:10241000C2051093C405B093C505A093C605F093FB
:10242000C705E093C8051092CD051092CC05209306
:10243000CE053093CF054093D0055093D1057093CE
:10244000CB056093CA0586E794E09093D705809307
:10245000D6058AEB94E09093D9058093D80585ED55
:1024600090E09093DB058093DA0584ED90E0909303
:10247000DD058093DC0580ED90E09093DF0580938F
:10248000DE0581ED90E09093E1058093E00582ED1B
:1024900090E09093E3058093E20586ED90E09093C1
:1024A000E5058093E4051093E605B093E705A09356
:1024B000E805F093E905E093EA051092EF05109224
:1024C000EE052093F0053093F1054093F20550930B
:1024D000F3057093ED056093EC058EEF94E0909317
:1024E000F9058093F80582E495E09093FB058093CD
:1024F000FA0585E391E09093FD058093FC0584E364
:1025000091E09093FF058093FE0580E391E0909326
:1025100001068093000681E391E090930306809387
:10252000020682E391E0909305068093040686E319
:1025300091E0909307068093060610930806B093E7
:102540000906A0930A06F0930B06E0930C061F9170
:1025500008950F931F93CF93DF93DC011C962C9368
:102560001C976C9311964C931197262F30E088E7B7
:1025700091E0FC01E20FF31FE4911296EC931297A5
:1025800050E0840F951FFC01849113968C93139750
:10259000C2E3D1E02C0F3D1FF901249130E0220F5E
:1025A000331F0EEF10E0B801620F731FFB0185911E
:1025B000949115969C938E93149764EE70E0260F79
:1025C000371FF9018591949119969C938E931897D2
:1025D000C40FD51FFE01849190E0880F991FF80168
:1025E000E80FF91F2591349117963C932E93169777
:1025F000FB01E80FF91F859194911B969C938E9394
:102600001A97DF91CF911F910F910895DC011296D7
:102610009C911297662391F01896ED91FC91199771
:1026200080819095982390831C968C911C97882389
:10263000B9F01496ED91FC9115970CC01496ED919C
:10264000FC91159780819095982390831896ED9131
:10265000FC911997808112969C911297892B808307
:102660001A96ED91FC911B97908113968C9113977C
:102670008095892380831C968C911C97882351F028
:102680001696ED91FC911797808113969C91139764
:10269000892B808328EC30E0C9010197F1F7169669
:1026A000ED91FC911797908113968C9113978095DB
:1026B000892380831A96ED91FC911B978081139654
:1026C0009C911397892B8083C9010197F1F76623A9
:1026D000A1F01496ED91FC911597908112968C9132
:1026E00012978095892380831896ED91FC91199714
:1026F000808112969C91892B808388EC90E00197D1
:10270000F1F70895CF93DF93DC011896ED91FC91DA
:102710001997908112968C911297809589238083C6
:102720001C968C911C97882351F01496ED91FC9186
:102730001597808112969C911297892B80831A9607
:10274000ED91FC911B97908113968C911397809536
:10275000892380831C968C911C97882351F01696B0
:10276000ED91FC911797808113969C911397892B7B
:10277000808348EC50E0CA010197F1F7EC91F0E05A
:10278000EE5CFE4FE4918E2F90E0880F991F885EDB
:102790009E4FFC01C591D49128811696ED91FC9134
:1027A0001797908113968C91139780958923808336
:1027B0001A96ED91FC911B97808113969C9113972B
:1027C000892B8083CA010197F1F740E030E012962F
:1027D0008C9190E028233923232B09F041E0842FAA
:1027E000DF91CF910895DC011896ED91FC91199736
:1027F000908112968C9112978095892380831C96E4
:102800008C911C97882351F01496ED91FC911597AB
:10281000808112969C911297892B80831A96ED9154
:10282000FC911B97908113968C9113978095892327
:1028300080831C968C911C97882349F01696ED9105
:10284000FC911797808113969C91892B808388EC4B
:1028500090E00197F1F708950F931F938C010E9468
:10286000A912C8010E94F3131F910F910895DC0172
:102870001896ED91FC911997908112968C91129770
:102880008095892380831C968C911C97882351F016
:102890001496ED91FC911597808112969C91129758
:1028A000892B80831A96ED91FC911B97908113964A
:1028B0008C9113978095892380831C968C911C970B
:1028C000882351F01696ED91FC911797808113960D
:1028D0009C911397892B808328EC30E0C9010197E4
:1028E000F1F71496ED91FC911597908112968C91C9
:1028F00012978095892380831896ED91FC91199702
:10290000808112969C911297892B8083C90101972F
:10291000F1F71696ED91FC911797908113968C9193
:1029200013978095892380831A96ED91FC911B97CC
:10293000808113969C91892B8083C9010197F1F7BF
:102940000895DC011A96ED91FC911B9790811396E6
:102950008C9113978095892380831C968C911C976A
:10296000882351F01696ED91FC911797808113966C
:102970009C911397892B808388EC90E00197F1F765
:102980001896ED91FC911997908112968C9112975F
:102990008095892380831C968C911C97882349F00D
:1029A0001496ED91FC911597808112969C91892B3C
:1029B000808388EC90E00197F1F708950E94A114BC
:1029C00080E008950F931F93CF93DF93EC01062FC0
:1029D00010E0602F6078CE010E940613000F1F5F89
:1029E0001830B9F7CE010E948213DF91CF911F9169
:1029F0000F9108950E94E2140895EF92FF921F93A1
:102A00007C01162F0E943714110FC701612F0E94FD
:102A1000E2141F91FF90EF9008950E94FD14089515
:102A2000CF92DF92EF92FF920F931F93CF93DF939A
:102A30007C016B018A01C0E0D0E00FC0D6016D912E
:102A40006D01D701ED91FC910190F081E02DC7015E
:102A50000995C80FD91F015010400115110571F7D4
:102A6000CE01DF91CF911F910F91FF90EF90DF90FA
:102A7000CF90089597FB092E07260AD077FD04D042
:102A80002ED006D000201AF4709561957F4F0895DE
:102A9000F6F7909581959F4F0895A1E21A2EAA1BF3
:102AA000BB1BFD010DC0AA1FBB1FEE1FFF1FA217FE
:102AB000B307E407F50720F0A21BB30BE40BF50BFB
:102AC000661F771F881F991F1A9469F76095709584
:102AD000809590959B01AC01BD01CF010895AA1B83
:102AE000BB1B51E107C0AA1FBB1FA617B70710F0F9
:102AF000A61BB70B881F991F5A95A9F7809590952B
:102B0000BC01CD010895EE0FFF1F0590F491E02D5B
:102B1000099412E0CAE0D2E004C0FE010E948515CB
:0C2B20002296CC30D107C9F7F894FFCF03
:102B2C0020001206000001010000000031111015F8
:082B3C00C410F810D81021119B
:00000001FF
