:100000000C9463000C94F8060C9425070C948B0058
:100010000C948B000C948B000C948B000C948B0034
:100020000C948B000C948B000C948B000C948B0024
:100030000C948B000C948B000C948B000C948B0014
:100040000C94F9050C948B000C9449090C949B09B1
:100050000C948B000C948B000C948B000C948B00F4
:100060000C94C70D0C948B000000000024002700A6
:100070002A0000000000250028002B0000000000DE
:1000800023002600290004040404040404040202DA
:100090000202020203030303030301020408102007
:1000A0004080010204081020010204081020000012
:1000B0000007000201000003040600000000000029
:1000C00000000A0B630C11241FBECFEFD8E0DEBF87
:1000D000CDBF11E0A0E0B1E0EEE8FFE102C0059085
:1000E0000D92AA32B107D9F712E0AAE2B1E001C03D
:1000F0001D92A73CB107E1F710E0C6ECD0E004C0C8
:100100002297FE010E94C10FC23CD107C9F70E948D
:1001100037090C94C50F0C940000CF93DF93BC01FA
:100120008230910510F462E070E0A091C502B091B8
:10013000C602ED0140E050E0E0E0F0E021C088813F
:1001400099818617970769F48A819B81309719F006
:100150009383828304C09093C6028093C502FE01FC
:1001600034C06817790738F44115510519F0841720
:10017000950708F4AC01FE018A819B819C01E9018D
:100180002097E9F641155105A9F1CA01861B970B85
:10019000049708F4BA01E0E0F0E02AC08D919C9148
:1001A000119784179507F9F46417750781F412966F
:1001B0008D919C911397309719F09383828304C09B
:1001C0009093C6028093C502FD0132964CC0CA01CD
:1001D000861B970BFD01E80FF91F6193719302973E
:1001E0008D939C9340C0FD01828193819C01D90134
:1001F0001097A1F68091C3029091C402892B41F41B
:1002000080910401909105019093C4028093C302F0
:1002100040910601509107014115510541F44DB738
:100220005EB78091020190910301481B590B209108
:10023000C3023091C402CA01821B930B8617970731
:1002400080F0AB014E5F5F4F8417950750F0420F6F
:10025000531F5093C4024093C302F90161937193F9
:1002600002C0E0E0F0E0CF01DF91CF910895CF939D
:10027000DF93009709F450C0EC0122971B821A8289
:10028000A091C502B091C602109709F140E050E07C
:10029000AC17BD0708F1BB83AA83FE012191319100
:1002A000E20FF31FAE17BF0779F48D919C91119760
:1002B000280F391F2E5F3F4F3983288312968D9167
:1002C0009C9113979B838A834115510571F4D093B8
:1002D000C602C093C50220C012968D919C911397BF
:1002E000AD01009711F0DC01D3CFFA01D383C283B3
:1002F00021913191E20FF31FCE17DF0769F4888156
:100300009981280F391F2E5F3F4FFA0131832083D7
:100310008A819B8193838283DF91CF9108950F938C
:100320001F9381EE91E040E052EC61E070E00E94AA
:10033000D60982E060E00E94520783E060E00E94FC
:10034000520784E060E00E94520785E061E00E946D
:10035000520786E061E00E94520785E061E00E945A
:10036000910786E061E00E94910787E060E00E94CB
:10037000520780E069E072E041E050E00E94D5065B
:1003800088E190E00E94BA08182F092F0E94A60564
:1003900010932A0100932B011F910F9108950F9341
:1003A0001F93CF93DF9362E370E080E090E00E94C0
:1003B000410681EE91E00E94910A082FCCE2D1E043
:1003C00081EE91E00E94910A8095899381E0C53485
:1003D000D807B1F781EE91E00E94910A182F81EEC3
:1003E00091E00E94910A80912A0190912B01602F47
:1003F0000E948004882341F010FF06C080912A01EA
:1004000090912B010E94B503DF91CF911F910F9125
:10041000089580912A0190912B010E947D050895F5
:10042000FF920F931F9380912A0190912B010E94BC
:10043000AB03F82E01EE11E0C80164EC0E94CA0A79
:10044000C8016F2D0E94CA0AC80160E071E00E94D5
:1004500023091F910F91FF9008950F931F9301EEB1
:1004600011E0C80163EC0E94CA0AC80164E00E945E
:10047000CA0AC80160E00E94CA0AC8016AE50E946F
:10048000CA0AC80160E071E00E9423091F910F9120
:1004900008951F9362E370E080E090E00E944106BF
:1004A00081EE91E00E94910A182F81EE91E00E9466
:1004B000910A482FECE2F1E08FEF819391E0E5346F
:1004C000F907D9F7799780912A0190912B01612F33
:1004D0009F010E946205182F81EE91E061EC0E945D
:1004E000CA0A81EE91E0612F0E94CA0A81EE91E072
:1004F00060E071E00E9423091F91089580912A0114
:1005000090912B010E94470581EE91E00E945D0AC7
:10051000892BD9F081EE91E00E94910A833081F01D
:10052000843018F4813089F405C0843061F082345D
:1005300061F403C00E94490208950E94CF0108950A
:100540000E942D0208950E9410020895FC0111825C
:10055000108208951F93172F85E491E00E947F0B6E
:1005600086E491E0612F0E947F0B1F910895FC01AA
:10057000718360830E94AA020895FC01603140F5F6
:1005800020813181442371F081E090E0A0E0B0E06F
:1005900004C0880F991FAA1FBB1F6A95D2F7282B8A
:1005A000392B0FC081E090E0A0E0B0E004C0880FDC
:1005B000991FAA1FBB1F6A95D2F780959095282393
:1005C00039233183208360817181CF010E94AA0287
:1005D00008951F9385E491E060E00E94D90B86E4C2
:1005E00091E061E00E94D90B10E085E491E0612F79
:1005F00041E00E94AD0B86E491E0612F41E00E9452
:10060000AD0B1F5F183089F71F910895FC01108210
:1006100011821282138214820895FC01848108954C
:10062000FC0182810895FC0180810895FC01818193
:100630000895FC0183810895613029F0623029F02A
:1006400020E030E006C081E001C080E00E94380870
:100650009C01C9010895CF93DF93EC01888181301B
:10066000E1F48C81882311F081508C8380E00E941A
:100670003808885C90408853934078F082E0898302
:1006800081E08B8384E00E94E507892B11F481E0EF
:1006900001C082E08A8383EE8C83DF91CF9108953D
:1006A000CF93DF93EC0183E00E94E507892B11F4DF
:1006B00081E001C082E08883823049F58C818F3FE0
:1006C00011F08F5F8C8381E00E9438089C01885C68
:1006D000904081599140D8F081E08983283C3105D0
:1006E00008F482E08B8384E00E94E507892B11F4F3
:1006F00082E001C081E08A83813019F486E061E004
:1007000002C086E060E00E9491078CE18C83DF915B
:10071000CF9108951F93CF93DF93EC01198282E06C
:100720000E94E50710E0892B09F011E08091470154
:10073000882331F4112349F0CE010E94500305C0F3
:10074000112319F4CE010E942B0310934701DF916E
:10075000CF911F910895FC018085823010F080E0D8
:10076000089583E0808781E0089521E0FC012187DE
:100770000895FC0182898130E1F08230A1F5818900
:10078000883288F18852878B885D9489913011F482
:100790008F7008C0923039F490E0089760E170E003
:1007A0000E94760F868B85898230F9F48789885F6D
:1007B00017C08189803FB8F48051878B805F94890E
:1007C000913029F490E008968F70907003C09230B9
:1007D00011F48F70868B8589823039F48789805136
:1007E000878B81E0089580E0089581E00895AF92BD
:1007F000BF92DF92EF92FF920F931F935C01F62E50
:1008000001EE11E0C80164E80E94CA0AC8016F2D18
:100810000E94CA0A82E0E82EF12CEA0CFB1CC701F8
:1008200061E00E941C03D82E692FC8010E94CA0AE9
:10083000C8016D2D0E94CA0AC70162E00E941C0314
:10084000D82E692FC8010E94CA0AC8016D2D0E94C6
:10085000CA0AC7010E941903682FC8010E94CA0A68
:10086000C801F50167890E94CA0AC80161E071E008
:100870000E9423091F910F91FF90EF90DF90BF908E
:10088000AF900895CF92DF92FF920F931F936C0168
:10089000F62E01EE11E0C80162E80E94CA0AC80102
:1008A0006F2D0E94CA0AC80161E071E00E9423090D
:1008B00081E0F60185871F910F91FF90DF90CF9027
:1008C0000895CF93DF93EC019989809148018917AE
:1008D00029F090934801CE010E94B90364EF71E0C2
:1008E00080E090E00E944106CE0160E00E94F703A4
:1008F000DF91CF91089585E060E00E94910708950F
:10090000FC01962F8585882371F06685961739F44A
:100910001586CF0107960E94F10581E00895CF0169
:100920000E94420480E00895EF92FF920F931F937C
:10093000CF93DF93EC0185E061E00E949107809105
:100940000801882391F01092080160ED77E080E0C3
:1009500090E00E944106CE0107960E94F1056E8547
:100960006F5F6E87CE010E944204998980914A018F
:10097000891709F466C090934A01CE010E94B90319
:10098000882309F45EC04F89242F30E08B8590E0E6
:100990008097281739073CF18C8590E00C968217D8
:1009A00093070CF181E08093490146954695469561
:1009B000842F90E0EF85F889E80FF91F408150E01F
:1009C00063E0880F991F6A95E1F7281B390B02C075
:1009D000559547952A95E2F741705070CE016E8982
:1009E0000E94BD022EC0FC2EED2ECE016E8941E08C
:1009F0000E94BD0280914901882319F1109249019A
:100A00008D85882351F48985882339F46E856F5F3D
:100A10006E87CE010E94420414C08985882389F024
:100A20008E01095F1F4FC8010E94ED0581E0888794
:100A30008F2D9E2D6FEF7FEF0E94B702C8010E949D
:100A4000F105DF91CF911F910F91FF90EF900895E5
:100A5000CF93DF93EC018A89823029F48B8981302E
:100A600011F480934B0180914B01882361F081E068
:100A70008887CE016FEF7FEF0E94B702CE0161E061
:100A80000E94F70301C01886DF91CF910895FC0101
:100A90008085813059F0813028F0823059F08330E0
:100AA00081F40CC0CF010E9428050895CF010E9457
:100AB0007B040895CF010E9494040895CF010E9401
:100AC00061040895FC01483CB0F46417A0F48085EB
:100AD000813089F492E0908763874487308B278741
:100AE0008FEF8687158611869287CF0107960E9421
:100AF000F50581E0089580E00895EF92FF920F934D
:100B00001F937C018C010E5F1F4FC8010E948A0356
:100B1000C8010E940D03F701818BC8010E941303D5
:100B2000F701828BC8010E941603F701838BC8016D
:100B30000E941003F701848BC8010E941903F7017A
:100B4000858B1F910F91FF90EF9008950F931F9346
:100B50008C010E94A602C80102960E940603C801E9
:100B600007960E94BF05F801108613861486168624
:100B70001586C8010E94E9021F910F9108950895FA
:100B80000F931F93CF93DF93C0E0D0E0062F10E0C8
:100B900017C089E060E070E00E945A0862E370E0EC
:100BA00080E090E00E94410689E064E170E00E94EC
:100BB0005A0862E370E080E090E00E9441062196CE
:100BC000C017D10734F389E06FEF70E00E945A0834
:100BD000DF91CF911F910F9108956AE00E94C005A7
:100BE000089563E00E94C005089565E00E94C00575
:100BF00008951F920F920FB60F9211242F933F93D7
:100C00008F939F93AF93BF93809150019091510127
:100C1000A0915201B0915301309154010196A11D50
:100C2000B11D232F2D5F2D3720F02D570196A11DCB
:100C3000B11D209354018093500190935101A093D2
:100C40005201B093530180914C0190914D01A091BC
:100C50004E01B0914F010196A11DB11D80934C0131
:100C600090934D01A0934E01B0934F01BF91AF916E
:100C70009F918F913F912F910F900FBE0F901F90DA
:100C800018959B01AC017FB7F89480914C0190912D
:100C90004D01A0914E01B0914F0166B5A89B05C0D2
:100CA0006F3F19F00196A11DB11D7FBFBA2FA92F6B
:100CB000982F8827860F911DA11DB11D62E0880F16
:100CC000991FAA1FBB1F6A95D1F7BC012DC0FFB7A2
:100CD000F89480914C0190914D01A0914E01B091FA
:100CE0004F01E6B5A89B05C0EF3F19F00196A11D85
:100CF000B11DFFBFBA2FA92F982F88278E0F911DE6
:100D0000A11DB11DE2E0880F991FAA1FBB1FEA9524
:100D1000D1F7861B970B885E9340C8F22150304074
:100D20004040504068517C4F211531054105510527
:100D300071F60895789484B5826084BD84B581602D
:100D400084BD85B5826085BD85B5816085BDEEE6D3
:100D5000F0E0808181608083E1E8F0E010828081B2
:100D600082608083808181608083E0E8F0E0808120
:100D700081608083E1EBF0E0808184608083E0EB40
:100D8000F0E0808181608083EAE7F0E08081846028
:100D90008083808182608083808181608083808184
:100DA000806880831092C1000895823000F5E82F9A
:100DB000F0E0EE0FFF1FEB5AFE4F71836083882334
:100DC00019F08130A1F408C0809169008C7F842BD8
:100DD00080936900E89A089580916900440F551F37
:100DE000440F551F837F842B80936900E99A0895EF
:100DF0001F920F920FB60F9211242F933F934F9390
:100E00005F936F937F938F939F93AF93BF93EF9372
:100E1000FF938091550190915601892B29F0E09123
:100E20005501F09156010995FF91EF91BF91AF9156
:100E30009F918F917F916F915F914F913F912F91F2
:100E40000F900FBE0F901F9018951F920F920FB624
:100E50000F9211242F933F934F935F936F937F9340
:100E60008F939F93AF93BF93EF93FF93809157011D
:100E700090915801892B29F0E0915701F091580188
:100E80000995FF91EF91BF91AF919F918F917F91C4
:100E90006F915F914F913F912F910F900FBE0F90E7
:100EA0001F901895CF93DF93482F50E0CA018656C4
:100EB0009F4FFC0134914A575F4FFA018491882378
:100EC00069F190E0880F991FFC01E859FF4FA59147
:100ED000B491FC01EE58FF4FC591D491662351F4B3
:100EE0002FB7F8948C91932F909589238C938881B8
:100EF00089230BC0623061F42FB7F8948C91932F43
:100F0000909589238C938881832B88832FBF06C07B
:100F10009FB7F8948C91832B8C939FBFDF91CF91D7
:100F20000895482F50E0CA0182559F4FFC0124913B
:100F3000CA0186569F4FFC0194914A575F4FFA01B0
:100F40003491332309F440C0222351F1233071F04E
:100F5000243028F42130A1F0223011F514C02630BD
:100F6000B1F02730C1F02430D9F404C08091800062
:100F70008F7703C0809180008F7D8093800010C0A8
:100F800084B58F7702C084B58F7D84BD09C0809100
:100F9000B0008F7703C08091B0008F7D8093B00048
:100FA000E32FF0E0EE0FFF1FEE58FF4FA591B49135
:100FB0002FB7F894662321F48C919095892302C071
:100FC0008C91892B8C932FBF0895682F70E0CB01F3
:100FD00082559F4FFC012491CB0186569F4FFC0107
:100FE00044916A577F4FFB019491992319F420E0B3
:100FF00030E03CC0222351F1233071F0243028F43A
:101000002130A1F0223011F514C02630B1F0273084
:10101000C1F02430D9F404C0809180008F7703C0E0
:10102000809180008F7D8093800010C084B58F7781
:1010300002C084B58F7D84BD09C08091B0008F77D8
:1010400003C08091B0008F7D8093B000892F90E025
:10105000880F991F84589F4FFC01A591B4918C91E2
:1010600020E030E0842311F021E030E0C901089550
:10107000982F8E3008F09E509770809109018295CC
:10108000880F880F807C892B80937C0080917A0068
:10109000806480937A0080917A0086FDFCCF209155
:1010A000780040917900942F80E030E0282B392B94
:1010B000C90108951F93CF93DF93182FEB0161E0CF
:1010C0000E945207209709F44AC0CF3FD10509F486
:1010D00049C0E12FF0E0E255FF4F84918330C1F029
:1010E000843028F4813051F08230B1F50CC0863064
:1010F00019F1873049F1843079F514C084B58068DE
:1011000084BDC7BD33C084B5806284BDC8BD2EC058
:1011100080918000806880938000D0938900C09384
:10112000880024C080918000806280938000D093EA
:101130008B00C0938A001AC08091B00080688093B1
:10114000B000C093B30012C08091B0008062809361
:10115000B000C093B4000AC0C038D1051CF4812F80
:1011600060E002C0812F61E00E949107DF91CF9182
:101170001F9108950E948D000895CF92DF92EF9203
:10118000FF920F931F93CF93DF937C016B018A0132
:10119000C0E0D0E00FC0D6016D916D01D701ED9197
:1011A000FC910190F081E02DC7010995C80FD91F6E
:1011B000015010400115110571F7CE01DF91CF915B
:1011C0001F910F91FF90EF90DF90CF900895EF92D5
:1011D000FF920F931F938C01DC01ED91FC91019024
:1011E000F081E02D6DE009957C01D801ED91FC9135
:1011F0000190F081E02DC8016AE009959C012E0D57
:101200003F1DC9011F910F91FF90EF900895CF935B
:10121000DF93EC016115710519F420E030E00FC097
:10122000DB010D900020E9F71197A61BB70BE881B1
:10123000F9810280F381E02DAD0109959C01C9017E
:10124000DF91CF910895EF92FF920F931F937C014E
:101250000E9407098C01C7010E94E708080F191FA7
:10126000C8011F910F91FF90EF9008950895CF93BB
:10127000DF930E949A060E9436090E948F01C4E8FB
:10128000D9E00E947E022097E1F30E948409F9CF01
:1012900008951F920F920FB60F9211242F933F9330
:1012A0004F938F939F93EF93FF938091C00082FDA4
:1012B0001DC04091C6002091990130919A012F5F85
:1012C0003F4F2F73307080919B0190919C012817A4
:1012D000390771F0E0919901F0919A01E75AFE4FB8
:1012E000408330939A012093990102C08091C600F7
:1012F000FF91EF919F918F914F913F912F910F907F
:101300000FBE0F901F901895E091ED01F091EE0146
:10131000E05CFF4F8191919120813181805C9F4FF2
:10132000821B930B60E470E00E94760F892B11F012
:101330000E94480908951F920F920FB60F92112430
:101340002F933F938F939F93EF93FF932091DD0112
:101350003091DE018091DF019091E001281739077B
:1013600031F48091C1008F7D8093C10014C0E09161
:10137000DF01F091E001E356FE4F20818091DF0113
:101380009091E00101968F7390709093E0018093AB
:10139000DF012093C600FF91EF919F918F913F91C4
:1013A0002F910F900FBE0F901F901895AF92BF9284
:1013B000DF92EF92FF920F931F93CF93DF93EC0195
:1013C0007A018B01DD24403081EE580780E0680708
:1013D00080E0780711F0DD24D39491E0A92EB12CA0
:1013E000EC89FD89DD2069F0C50108A002C0880FE5
:1013F000991F0A94E2F7808360E079E08DE390E042
:1014000005C0108260E874E88EE190E0A8019701C1
:101410000E94890F215030404040504056954795DA
:101420003795279580E12030380720F0DD2011F036
:10143000DD24D6CFE889F9893083EA89FB892083C6
:1014400019A2EE89FF89408121E030E0C9010C8CAE
:1014500002C0880F991F0A94E2F7482B4083EE8957
:10146000FF894081C9010D8C02C0880F991F0A9421
:10147000E2F7482B4083EE89FF894081C9010E8C39
:1014800002C0880F991F0A94E2F7482B4083EE8927
:10149000FF8980810F8C02C0220F331F0A94E2F76C
:1014A000209528232083DF91CF911F910F91FF90EA
:1014B000EF90DF90BF90AF900895DC011C96ED9106
:1014C000FC911D97E05CFF4F8191919120813181CA
:1014D000805C9F4F821B930B60E470E00E94760F4C
:1014E0000895DC011C96ED91FC911D97E05CFF4F87
:1014F00020813181E054F040DF01AE5BBF4F8D9120
:101500009C9111972817390719F42FEF3FEF07C067
:101510008D919C91E80FF91F8081282F30E0C9013F
:101520000895DC011C96ED91FC911D97E05CFF4F46
:1015300020813181E054F040DF01AE5BBF4F8D91DF
:101540009C9111972817390719F42FEF3FEF10C01E
:101550008D919C911197E80FF91F20818D919C919D
:10156000119701968F73907011969C938E9330E033
:10157000C9010895DC0191968C919197882339F0E7
:101580005496ED91FC915597808186FFF9CF919605
:101590001C920895CF93DF93EC01EE85FF85E05C0C
:1015A000FF4F20813181E054F0402F5F3F4F2F7378
:1015B0003070DF01AE5BBF4F8D919C911197281762
:1015C0003907D1F3E05CFF4F80819181E054F04016
:1015D000E80FF91F6083EE85FF85E05CFF4F3183E4
:1015E0002083EE89FF89208181E090E00F8C02C08A
:1015F000880F991F0A94E2F7282B208381E089A3A2
:10160000EC89FD8980818064808381E090E0DF91B6
:10161000CF9108951092E4011092E30188EE93E0D7
:10162000A0E0B0E08093E5019093E601A093E7018C
:10163000B093E8018EE091E09093E2018093E101A4
:1016400089E591E09093EE018093ED018DE991E0C1
:101650009093F0018093EF0185EC90E09093F2017C
:101660008093F10184EC90E09093F4018093F30176
:1016700080EC90E09093F6018093F50181EC90E08E
:101680009093F8018093F70182EC90E09093FA0137
:101690008093F90186EC90E09093FC018093FB012C
:1016A00084E08093FD0183E08093FE0187E08093D6
:1016B000FF0185E08093000281E08093010208959C
:1016C000EF92FF920F931F93FC01F62EE42E09E494
:1016D00012E060816062C80170E00E94290CC801BC
:1016E0006F2D0E94AB0CC8016E2D0E94AB0CC8017F
:1016F0000E94EE0C1F910F91FF90EF900895462FDE
:1017000069E00E94600B0895DF92EF92FF920F93C1
:101710001F937C01D62E09E412E0FC016081606217
:10172000C80170E00E94290CC8016D2D0E94AB0C0D
:10173000C8010E94EE0CF70160816062C80170E090
:1017400041E050E00E94FF0CC8010E943C0C1F9138
:101750000F91FF90EF90DF9008950F931F93CF9319
:10176000DF93EC01162F042F6830F0F460E00E9444
:10177000840B282F002351F481E090E002C0880FF1
:10178000991F1A95E2F7422F482B0AC081E090E09A
:1017900002C0880F991F1A95E2F7482F40954223FF
:1017A000CE0160E00E94600BDF91CF911F910F91FD
:1017B0000895CF93DF93EC01683008F067E0688309
:1017C00089E492E00E94030D6881606289E492E0FE
:1017D00070E00E94290C89E492E060E00E94AB0C6A
:1017E00089E492E06FEF0E94AB0C89E492E060E044
:1017F0000E94AB0C89E492E060E00E94AB0C89E4AB
:1018000092E060E00E94AB0C89E492E060E00E940C
:10181000AB0C89E492E060E00E94AB0C89E492E0BA
:1018200060E00E94AB0C89E492E060E00E94AB0CA7
:1018300089E492E060E00E94AB0C89E492E060E011
:101840000E94AB0C89E492E00E94EE0CDF91CF91F4
:10185000089581E080934802609325021092460229
:101860001092470208952091240230E080912302D3
:10187000281B3109C9010895409123028091240257
:10188000481718F02FEF3FEF0AC0E42FF0E0ED5FAC
:10189000FD4F8081282F30E04F5F40932302C90124
:1018A0000895E091230280912402E81718F0EFEFE9
:1018B000FFEF06C0F0E0ED5FFD4F8081E82FF0E024
:1018C000CF010895089510924C0210924B0288EEB9
:1018D00093E0A0E0B0E080934D0290934E02A0937D
:1018E0004F02B09350028EE191E090934A028093B0
:1018F00049020895CF92DF92EF92FF920F931F93C8
:10190000CF93DF937C016B018A0180914802882389
:10191000A1F0C0E0D0E00DC0D701ED91FC91D6015F
:10192000AC0FBD1F0190F081E02DC7016C910995AE
:101930002196C017D10780F304C0CB01642F0E9409
:10194000AC0DC801DF91CF911F910F91FF90EF90E7
:10195000DF90CF900895DF93CF930F92CDB7DEB78E
:10196000FC016983809148028823C9F08091470275
:10197000803238F081E090E09383828320E030E091
:1019800015C080914602E82FF0E0EA5DFD4F998195
:1019900090838F5F809346028093470205C0CE01FB
:1019A000019661E00E94AC0D21E030E0C9010F908A
:1019B000CF91DF9108950F93062F8091250266E263
:1019C00072E04091470221E00E94570D10924602BA
:1019D00010924702109248020F91089561E00E9410
:1019E000DB0C0895413208F040E2862F63E072E09C
:1019F0000E940E0D1092230280932402089521E08C
:101A00000E94F20C08951092230210922402109268
:101A10004602109247020E94580F0895382F413213
:101A200010F040E042C0809155028823E1F791E038
:101A300090935502209357028FEF8093C202109229
:101A40007D02415040937E024F5F909356028091F9
:101A50005602330F832B80935602809158028130B7
:101A600041F410925802809156028093BB0085EC9D
:101A700001C085EE8093BC00809155028130E1F376
:101A800080917D02841710F440917D0220E030E0C7
:101A90000AC0FB01E20FF31FD901A35ABD4F8C917D
:101AA00080832F5F3F4F2417A0F3842F08950F9357
:101AB0001F93582F122F413210F081E04AC08091BD
:101AC00055028823E1F782E0809355020093570284
:101AD0008FEF8093C20210927D0240937E02ADE5AB
:101AE000B2E0FB0102C081918D938E2F861B84177B
:101AF000D0F31092560280915602550F852B809399
:101B0000560280915802813041F41092580280911F
:101B100056028093BB0085EC01C085EE8093BC002B
:101B2000112321F0809155028230E1F38091C202AD
:101B30008F3F11F480E00DC08091C202803211F419
:101B400082E007C08091C202803311F084E001C0BE
:101B500083E01F910F910895482F613210F081E0CA
:101B6000089580915502843011F082E008956093C9
:101B7000A002AFE7B2E0842F9C01F90102C081917D
:101B80008D938E2F841B8617D0F380E008951F92CB
:101B90000F920FB60F9211242F933F934F935F93A1
:101BA0006F937F938F939F93AF93BF93EF93FF9325
:101BB0008091B90090E0887F90708036910509F49B
:101BC000F2C081369105CCF58832910509F47BC0CD
:101BD00089329105B4F48031910509F46FC08131E7
:101BE00091053CF4009709F447C1089709F04FC1EB
:101BF00065C08831910509F466C0809709F047C136
:101C000082C08034910509F4A4C08134910544F464
:101C10008033910509F482C0C89709F038C189C0A2
:101C20008035910509F489C08835910509F496C07D
:101C30008834910509F02BC1AEC08839910509F4AB
:101C400013C189399105ECF48837910509F4ABC0CB
:101C5000893791054CF48836910509F4A4C0803782
:101C6000910509F014C19FC08838910509F4FCC0A2
:101C70008039910509F49DC08038910509F007C1AC
:101C800098C0803B910509F4C6C0813B91054CF496
:101C9000803A910509F49FC0883A910509F0F7C090
:101CA000BAC0803C910509F4E3C0883C910509F471
:101CB000DFC0883B910509F0EAC0C2C0809156029E
:101CC0008093BB00CFC090917D0280917E029817D7
:101CD00068F490917D02E92FF0E0E35AFD4F808196
:101CE0008093BB009F5F90937D02BCC080915702A0
:101CF000882309F44BC085ED8093BC008091BC0023
:101D000084FDFCCFC2C080E28093C20285ED809347
:101D1000BC008091BC0084FDFCCFB7C080E3809301
:101D2000C20285ED8093BC008091BC0084FDFCCF95
:101D3000ACC088E38093C2029BC080917D029091E9
:101D4000BB00E82FF0E0E35AFD4F90838F5F809354
:101D50007D0290917D0280917E0282C080917D0201
:101D60009091BB00E82FF0E0E35AFD4F90838F5F26
:101D700080937D0280915702882341F085ED809306
:101D8000BC008091BC0084FDFCCF7FC081E08093CB
:101D9000580284EA6EC085ED8093BC008091BC003F
:101DA00084FDFCCF72C083E0809355021092C10283
:101DB00059C08091C102803208F056C08091C102A2
:101DC0009091BB00E82FF0E0EF55FD4F90838F5FBF
:101DD0008093C10247C08091C102803230F4E0910B
:101DE000C102F0E0EF55FD4F108285ED8093BC00FD
:101DF0008091BC0084FDFCCF109255026091C1021D
:101E0000E0915B02F0915C0281EA92E070E009955A
:101E10001092C1022DC084E08093550210929F025F
:101E20001092A002E0915902F0915A020995809116
:101E3000A002882329F481E08093A00210927F02FF
:101E400090919F02E92FF0E0E158FD4F808180934F
:101E5000BB009F5F90939F0290919F028091A00290
:101E6000981710F485EC01C085E88093BC000FC082
:101E700085EC8093BC0009C01092C20285ED80936E
:101E8000BC008091BC0084FDFCCF10925502FF91F4
:101E9000EF91BF91AF919F918F917F916F915F91E2
:101EA0004F913F912F910F900FBE0F901F9018955B
:101EB0001092550281E0809357021092580282E1FD
:101EC00061E00E94910783E161E00E949107E9EBE4
:101ED000F0E080818E7F808380818D7F808388E4A5
:101EE0008093B80085E48093BC00089597FB092E89
:101EF00007260AD077FD04D02ED006D000201AF491
:101F0000709561957F4F0895F6F7909581959F4F55
:101F10000895A1E21A2EAA1BBB1BFD010DC0AA1F2A
:101F2000BB1FEE1FFF1FA217B307E407F50720F042
:101F3000A21BB30BE40BF50B661F771F881F991FBD
:101F40001A9469F760957095809590959B01AC0106
:101F5000BD01CF010895AA1BBB1B51E107C0AA1FF9
:101F6000BB1FA617B70710F0A61BB70B881F991F3A
:101F70005A95A9F780959095BC01CD010895EE0F73
:0E1F8000FF1F0590F491E02D0994F894FFCF17
:101F8E0000002000C7020000010100000000CA0A84
:101F9E00BD085D0A910A710ABA0A00000000AB0C76
:0A1FAE007A0C330C3C0C510C620C51
:00000001FF
