:100000000C9465000C94E7080C9414090C948D0072
:100010000C948D000C948D000C948D000C948D002C
:100020000C948D000C948D000C948D000C948D001C
:100030000C948D000C948D000C948D000C948D000C
:100040000C94E8070C948D000C94BF0A0C94110BCF
:100050000C948D000C948D000C948D000C948D00EC
:100060000C948E0F0C948D000000000024002700DB
:100070002A0000000000250028002B0000000000DE
:1000800023002600290004040404040404040202DA
:100090000202020203030303030301020408102007
:1000A0004080010204081020010204081020000012
:1000B0000007000201000003040600000000000029
:1000C00000009101820C2A0EA20111241FBECFEF65
:1000D000D8E0DEBFCDBF11E0A0E0B1E0E2E3F3E2A3
:1000E00002C005900D92A832B107D9F713E0A8E23B
:1000F000B1E001C01D92AF3CB107E1F710E0C8ECE0
:10010000D0E004C02297FE010E948811C23CD107B2
:10011000C9F70E94AD0A0C948C110C940000CF9387
:10012000DF93BC018230910510F462E070E0A09191
:10013000CD03B091CE03ED0140E050E0E0E0F0E00F
:1001400021C0888199818617970769F48A819B81EC
:10015000309719F09383828304C09093CE038093E9
:10016000CD03FE0134C06817790738F441155105F5
:1001700019F08417950708F4AC01FE018A819B8170
:100180009C01E9012097E9F641155105A9F1CA0141
:10019000861B970B049708F4BA01E0E0F0E02AC050
:1001A0008D919C91119784179507F9F46417750741
:1001B00081F412968D919C911397309719F0938347
:1001C000828304C09093CE038093CD03FD013296C9
:1001D0004CC0CA01861B970BFD01E80FF91F619304
:1001E000719302978D939C9340C0FD01828193810E
:1001F0009C01D9011097A1F68091CB039091CC037B
:10020000892B41F480910201909103019093CC03DA
:100210008093CB0340910401509105014115510594
:1002200041F44DB75EB78091000190910101481BE8
:10023000590B2091CB033091CC03CA01821B930B45
:100240008617970780F0AB014E5F5F4F84179507C5
:1002500050F0420F531F5093CC034093CB03F9014E
:100260006193719302C0E0E0F0E0CF01DF91CF91A4
:100270000895CF93DF93009709F450C0EC012297C3
:100280001B821A82A091CD03B091CE03109709F181
:1002900040E050E0AC17BD0708F1BB83AA83FE0124
:1002A00021913191E20FF31FAE17BF0779F48D91C1
:1002B0009C911197280F391F2E5F3F4F3983288358
:1002C00012968D919C9113979B838A8341155105BA
:1002D00071F4D093CE03C093CD0320C012968D91BC
:1002E0009C911397AD01009711F0DC01D3CFFA0177
:1002F000D383C28321913191E20FF31FCE17DF0721
:1003000069F488819981280F391F2E5F3F4FFA01C8
:10031000318320838A819B8193838283DF91CF9174
:1003200008951092440210924302109246021092D5
:100330004502109248021092470210924A0210920F
:100340004902089508953F924F925F926F927F9273
:100350008F929F92AF92BF92CF92DF92EF92FF92D5
:100360000F931F93DF93CF93CDB7DEB78C016DB69C
:100370007EB6FC01EE5FFE4F80819181892B09F0F2
:1003800088C0ABC0D401ED91FC91A081B1811696DB
:100390002D913C911797CF01F9010995803C09F007
:1003A00067C0F50180819181892B31F4D6018D914F
:1003B0009C91892B09F458C05DB64EB6F701A08117
:1003C000B1818DB79EB78A1B9B0B0FB6F8949EBF69
:1003D0000FBE8DBF6DB77EB76F5F7F4F109719F45B
:1003E00040E050E029C040E050E080E090E021C0D3
:1003F000F801E80FF91F3081303CD1F03B3D91F41A
:1004000021812C3D29F4FB01E40FF51F308206C049
:100410002D3D79F4FB01E40FF51F30834F5F5F4FF3
:10042000029607C0FB01E40FF51F30834F5F5F4F5B
:1004300001968A179B07E0F2D501ED91FC91309768
:1004400021F0CB01BA01099507C0D601ED91FC91CD
:10045000309711F0C8010995852D942D9C010FB698
:10046000F8943EBF0FBE2DBFF7011182108225C048
:10047000D701ED91FC9111979F012F5F3F4F2F3FC7
:10048000310509F0D0F4E00FF11F80832D933C93E8
:1004900014C04F01E12C31E0F32EE00EF11E24E0F8
:1004A000A22E21E0B22EA00EB11E96E0C92E91E040
:1004B000D92EC00ED11E80EC382ED401ED91FC91C6
:1004C000A081B18114962D913C911597CF01F9012E
:1004D0000995181619060CF455CF0FB6F8947EBE80
:1004E0000FBE6DBECF91DF911F910F91FF90EF90E6
:1004F000DF90CF90BF90AF909F908F907F906F9044
:100500005F904F903F90089580912801909129012C
:100510000E94FE0683E491E00E94A30108957F9269
:100520008F929F92AF92BF92CF92DF92EF92FF9203
:100530000F931F93DF93CF93CDB7DEB7DC019B0101
:100540007A01CDB6DEB6BDB6AEB6AE5FBE4F8D910A
:100550009C911197A250B140892B09F475C0611587
:10056000710509F471C04115510509F46DC0CA0146
:100570000196880F991F4DB75EB7481B590B0FB6F0
:10058000F8945EBF0FBE4DBF6DB77EB76F5F7F4FF4
:1005900080ECEDB7FEB78183890141E050E021E0B6
:1005A00030E08DED782EFBED8F2EECED9E2E24C0ED
:1005B000F8018081803C61F4FB01E40FF51F80822B
:1005C000CA010196FB01E80FF91F9082AC010CC033
:1005D000FB01E40FF51F4F5F5F4F8B3D41F48083BC
:1005E000FB01E40FF51F70824F5F5F4F01C08083F6
:1005F0002F5F3F4F0F5F1F4FC90101978E159F055A
:10060000B8F28D010E5F1E4FD801ED91FC91A081D3
:10061000B18112962D913C911397CF01F901099563
:10062000D801ED91FC91A081B1812D913C91CF0138
:1006300060ECF90109952B2D3A2DC9010FB6F894FC
:100640009EBF0FBE8DBF08C08B2D9A2D9C010FB68B
:10065000F8943EBF0FBE2DBF0FB6F894DEBE0FBE9E
:10066000CDBECF91DF911F910F91FF90EF90DF9062
:10067000CF90BF90AF909F908F907F900895DF9321
:10068000CF9300D000D0CDB7DEB783EC898385E06F
:100690008A831B828FE58C8383E491E0BE016F5FC8
:1006A0007F4F44E050E00E948F020F900F900F9018
:1006B0000F90CF91DF9108950F931F9389EE92E0F1
:1006C00040E052EC61E070E00E944C0B09EE12E059
:1006D000C8010E94800C8823C9F31093460200933E
:1006E00045028FE194E09093480280934702109274
:1006F0004A021092490282E060E00E94410983E0D0
:1007000060E00E94410984E060E00E94410985E0C8
:1007100061E00E94410986E061E00E94410985E0B4
:1007200061E00E94800986E061E00E94800987E024
:1007300060E00E94410980E06BE374E041E050E03A
:100740000E94C4088AE190E00E94A90A182F092F8C
:1007500063E471E00E946E07109328010093290161
:100760001F910F910895DF93CF9300D0CDB7DEB7DF
:1007700080912801909129010E94430594EC99836E
:100780008A8383E491E0BE016F5F7F4F42E050E0D7
:100790000E948F020F900F90CF91DF9108951F93C9
:1007A000CF93DF93EC016981DC01EAE2F1E012967C
:1007B0008C91129780958193119681E0E334F8072C
:1007C000B1F71B8D80912801909129010E94290683
:1007D000882341F010FF06C08091280190912901E3
:1007E0000E944D05DF91CF911F910895DF93CF9324
:1007F00000D0CDB7DEB7FC0161814281EAE2F1E0D1
:100800008FEF819391E0E334F907D9F779978091DD
:100810002801909129019F010E94190791EC998369
:100820008A8383E491E0BE016F5F7F4F42E050E036
:100830000E948F020F900F90CF91DF910895FC01DD
:100840008081833091F0843018F4813099F405C0B0
:10085000843071F0823471F404C0CF010E94F60339
:100860000895CF010E94CF0308950E943F03089589
:100870000E94B303089580912801909129010E945C
:1008800034070895FC011182108208951F93172FD9
:100890008BE492E00E94030D8DE492E0612F0E94B0
:1008A000030D1F910895FC01718360830E9446042B
:1008B0000895FC01603140F520813181442371F0BD
:1008C00081E090E0A0E0B0E004C0880F991FAA1F6B
:1008D000BB1F6A95D2F7282B392B0FC081E090E01F
:1008E000A0E0B0E004C0880F991FAA1FBB1F6A9543
:1008F000D2F7809590952823392331832083608116
:100900007181CF010E94460408951F938BE492E009
:1009100060E00E94610D8DE492E061E00E94610D53
:1009200010E08BE492E0612F41E00E94350D8DE4F0
:1009300092E0612F41E00E94350D1F5F183089F76A
:100940001F910895FC011082118212821382148279
:100950000895FC0184810895FC0182810895FC01C1
:1009600080810895FC0181810895FC0183810895AF
:10097000613029F0623029F020E030E006C081E0EB
:1009800001C080E00E94270A9C01C9010895CF930D
:10099000DF93EC018881813029F48C81882311F068
:1009A00081508C8380E00E94270A8955924068F02C
:1009B00082E0898384E00E94D409892B11F481E0CC
:1009C00001C082E08A8383EE8C83DF91CF9108950A
:1009D000CF93DF93EC0183E00E94D409892B11F4BB
:1009E00081E001C082E08883823029F48C818F3FCE
:1009F00011F08F5F8C8381E00E94270A9C01885C44
:100A0000904081599140D8F081E08983283C31059C
:100A100038F48B81813011F483E005C082E003C09B
:100A20002955324008F08B8384E00E94D409892B39
:100A300011F482E001C081E08A838CE18C83DF9134
:100A4000CF9108951F93CF93DF93EC01198282E039
:100A50000E94D40910E0892B09F011E080914F0227
:100A6000882331F4112349F0CE010E94E80405C027
:100A7000112319F4CE010E94C70410934F02DF9195
:100A8000CF911F910895FC018285823010F080E0A3
:100A9000089583E0828781E0089521E0FC012387A7
:100AA0000895FC018489813051F1823009F054C0ED
:100AB00093892789233011F088E201C088E09817D4
:100AC00008F44AC0233011F088E201C088E0981B86
:100AD000918F8689813019F483898F7009C08230A3
:100AE00041F4838990E0089760E170E00E943D1135
:100AF000808F8789823091F5818D885F2AC04389F4
:100B00006789633011F050E101C050E2242F30E0DA
:100B10008FEF90E0851B910982179307ECF063300B
:100B200011F080E101C080E2481B418F868981304D
:100B300031F4838990E008968F70907004C0823001
:100B400019F483898F70808F8789823039F4818D81
:100B50008051818F81E0089580E0089581E00895BB
:100B6000EF92FF920F931F93DF93CF93CDB7DEB732
:100B700029970FB6F894DEBF0FBECDBF7C0184E885
:100B800089836A8387010C5F1F4FC80161E00E945F
:100B9000B8049B838C83C80162E00E94B8049D83E3
:100BA0008E83F70187898F8383898887C8010E9494
:100BB000AF048987F70180819181BE016F5F7F4F0C
:100BC00049E050E00E948F0229960FB6F894DEBFEC
:100BD0000FBECDBFCF91DF911F910F91FF90EF908E
:100BE0000895CF93DF93EC019B8980915002891780
:100BF00049F090935002CE010E945105CE0160E071
:100C00000E94B005DF91CF9108950F931F93DF935A
:100C1000CF9300D0CDB7DEB78C0182E889836A8399
:100C2000F80180819181BE016F5F7F4F42E050E00B
:100C30000E948F0281E0F80187870F900F90CF917B
:100C4000DF911F910F91089585E060E00E94800977
:100C50000895FC01962F8785882371F06089961787
:100C600039F41786CF0109960E94E00781E00895C4
:100C7000CF010E94050680E00895EF92FF920F9346
:100C80001F93CF93DF93EC0185E061E00E94800920
:100C900080910601882391F01092060160ED77E0C3
:100CA00080E090E00E943008CE0109960E94E007A3
:100CB00068896F5F688BCE010E9405069B898091D1
:100CC0005202891709F473C090935202CE0161E079
:100CD0000E94B005CE010E945105882309F467C027
:100CE000498D242F30E06D85862F90E00C972817D2
:100CF00039076CF15E85852F90E00C96821793077B
:100D000034F1461728F0541718F081E0809351020F
:100D1000469546954695842F90E0E989FA89E80F33
:100D2000F91F408150E0B3E0880F991FBA95E1F7B1
:100D3000281B390B02C0559547952A95E2F741705B
:100D40005070CE010296688D0E94590430C0A2E016
:100D5000EA2EF12CEC0EFD1EC701688D41E00E94C9
:100D6000590480915102882311F1109251028F850C
:100D7000882351F48B85882339F468896F5F688BE9
:100D8000CE010E94050613C08B85882381F08E0159
:100D9000075F1F4FC8010E94DC0781E08A87C701F7
:100DA0006FEF7FEF0E945304C8010E94E007DF91BC
:100DB000CF911F910F91FF90EF900895CF93DF9304
:100DC000EC018C89823029F48D89813011F4809373
:100DD000530280915302882369F081E08A87CE0113
:100DE00002966FEF7FEF0E945304CE0161E00E94F4
:100DF000B00501C01A86DF91CF910895FC0182856C
:100E0000813059F0813028F0823059F0833081F4FC
:100E10000CC0CF010E94DE060895CF010E94240677
:100E20000895CF010E943D060895CF010E94F1056B
:100E30000895FC01483CB0F46417A0F48285813029
:100E400089F492E0928765874687328B218B8FEFFA
:100E5000808B178613869487CF0109960E94E4073A
:100E600081E0089580E00895EF92FF920F931F9321
:100E70007C018C010C5F1F4FC8010E942205C80134
:100E80000E94A904F701838BC8010E94AF04F701F7
:100E9000848BC8010E94B204F701858BC8010E94AF
:100EA000AC04F701868BC8010E94B504F701878B5B
:100EB0001F910F91FF90EF9008950F931F938C0156
:100EC00002960E944204C80104960E94A204C8012E
:100ED00009960E94AE071F910F910895CF92DF925D
:100EE000EF92FF920F931F93DF93CF93CDB7DEB7AF
:100EF0006A970FB6F894DEBF0FBECDBF8C017B01A1
:100F000082E0C82ED12CC00ED11EC6010E94420420
:100F1000C80104960E94A204C80109960E94AE0767
:100F2000CE0101960E945D07F801F182E0821286EF
:100F300015861686108A1786C6010E9485046A9651
:100F40000FB6F894DEBF0FBECDBFCF91DF911F91DA
:100F50000F91FF90EF90DF90CF90089508950F9339
:100F60001F93CF93DF93C0E0D0E0062F10E017C0AF
:100F700089E060E070E00E94490A62E370E080E08E
:100F800090E00E94300889E064E170E00E94490A24
:100F900062E370E080E090E00E9430082196C01784
:100FA000D10734F389E06FEF70E00E94490ADF91C6
:100FB000CF911F910F9108956AE00E94AF070895A5
:100FC00063E00E94AF07089565E00E94AF070895AF
:100FD0001F920F920FB60F9211242F933F938F936E
:100FE0009F93AF93BF938091580290915902A09123
:100FF0005A02B0915B0230915C020196A11DB11DB5
:10100000232F2D5F2D3720F02D570196A11DB11DE7
:1010100020935C028093580290935902A0935A0245
:10102000B0935B028091540290915502A0915602B8
:10103000B09157020196A11DB11D80935402909367
:101040005502A0935602B0935702BF91AF919F9162
:101050008F913F912F910F900FBE0F901F90189579
:101060009B01AC017FB7F894809154029091550296
:10107000A0915602B091570266B5A89B05C06F3F7C
:1010800019F00196A11DB11D7FBFBA2FA92F982F6E
:101090008827860F911DA11DB11D62E0880F991F41
:1010A000AA1FBB1F6A95D1F7BC012DC0FFB7F894EA
:1010B0008091540290915502A0915602B09157022E
:1010C000E6B5A89B05C0EF3F19F00196A11DB11D23
:1010D000FFBFBA2FA92F982F88278E0F911DA11D12
:1010E000B11DE2E0880F991FAA1FBB1FEA95D1F737
:1010F000861B970B885E9340C8F2215030404040D9
:10110000504068517C4F211531054105510571F65C
:101110000895789484B5826084BD84B5816084BD6F
:1011200085B5826085BD85B5816085BDEEE6F0E060
:10113000808181608083E1E8F0E0108280818260BC
:101140008083808181608083E0E8F0E0808181603D
:101150008083E1EBF0E0808184608083E0EBF0E06D
:10116000808181608083EAE7F0E080818460808311
:1011700080818260808380818160808380818068BB
:1011800080831092C1000895823000F5E82FF0E0CE
:10119000EE0FFF1FE35AFD4F71836083882319F020
:1011A0008130A1F408C0809169008C7F842B8093EA
:1011B0006900E89A089580916900440F551F440F13
:1011C000551F837F842B80936900E99A08951F92AD
:1011D0000F920FB60F9211242F933F934F935F936B
:1011E0006F937F938F939F93AF93BF93EF93FF93EF
:1011F00080915D0290915E02892B29F0E0915D0261
:10120000F0915E020995FF91EF91BF91AF919F918F
:101210008F917F916F915F914F913F912F910F909F
:101220000FBE0F901F9018951F920F920FB60F923E
:1012300011242F933F934F935F936F937F938F93DB
:101240009F93AF93BF93EF93FF9380915F02909131
:101250006002892B29F0E0915F02F091600209950C
:10126000FF91EF91BF91AF919F918F917F916F917E
:101270005F914F913F912F910F900FBE0F901F9054
:101280001895CF93DF93482F50E0CA0186569F4FA1
:10129000FC0134914A575F4FFA018491882369F128
:1012A00090E0880F991FFC01E859FF4FA591B49178
:1012B000FC01EE58FF4FC591D491662351F42FB72E
:1012C000F8948C91932F909589238C93888189230E
:1012D0000BC0623061F42FB7F8948C91932F9095E6
:1012E00089238C938881832B88832FBF06C09FB767
:1012F000F8948C91832B8C939FBFDF91CF910895AD
:10130000482F50E0CA0182559F4FFC012491CA0129
:1013100086569F4FFC0194914A575F4FFA013491D2
:10132000332309F440C0222351F1233071F02430DB
:1013300028F42130A1F0223011F514C02630B1F08C
:101340002730C1F02430D9F404C0809180008F7719
:1013500003C0809180008F7D8093800010C084B591
:101360008F7702C084B58F7D84BD09C08091B000A5
:101370008F7703C08091B0008F7D8093B000E32F02
:10138000F0E0EE0FFF1FEE58FF4FA591B4912FB77D
:10139000F894662321F48C919095892302C08C9156
:1013A000892B8C932FBF0895682F70E0CB01825555
:1013B0009F4FFC012491CB0186569F4FFC01449125
:1013C0006A577F4FFB019491992319F420E030E094
:1013D0003CC0222351F1233071F0243028F4213015
:1013E000A1F0223011F514C02630B1F02730C1F041
:1013F0002430D9F404C0809180008F7703C080919D
:1014000080008F7D8093800010C084B58F7702C0EC
:1014100084B58F7D84BD09C08091B0008F7703C0F3
:101420008091B0008F7D8093B000892F90E0880F6D
:10143000991F84589F4FFC01A591B4918C9120E095
:1014400030E0842311F021E030E0C9010895982FA5
:101450008E3008F09E509770809107018295880F1A
:10146000880F807C892B80937C0080917A00806437
:1014700080937A0080917A0086FDFCCF20917800DD
:1014800040917900942F80E030E0282B392BC9015E
:1014900008951F93CF93DF93182FEB0161E00E9413
:1014A0004109209709F44AC0CF3FD10509F449C04A
:1014B000E12FF0E0E255FF4F84918330C1F084309A
:1014C00028F4813051F08230B1F50CC0863019F12A
:1014D000873049F1843079F514C084B5806884BDC3
:1014E000C7BD33C084B5806284BDC8BD2EC08091A5
:1014F0008000806880938000D0938900C09388002A
:1015000024C080918000806280938000D0938B0003
:10151000C0938A001AC08091B00080688093B000A8
:10152000C093B30012C08091B00080628093B0007D
:10153000C093B4000AC0C038D1051CF4812F60E00C
:1015400002C0812F61E00E948009DF91CF911F913D
:1015500008950E948F0008950895CF93DF930E940D
:1015600089080E94AC0A0E945C03CAEFDAE00E947C
:1015700084022097E1F30E94FA0AF9CF08951F929E
:101580000F920FB60F9211242F933F934F938F9387
:101590009F93EF93FF938091C00082FD1DC0409107
:1015A000C6002091A1023091A2022F5F3F4F2F73FE
:1015B00030708091A3029091A4022817390771F02E
:1015C000E091A102F091A202EF59FD4F40833093C8
:1015D000A2022093A10202C08091C600FF91EF9168
:1015E0009F918F914F913F912F910F900FBE0F9030
:1015F0001F901895E091F502F091F602E05CFF4F24
:101600008191919120813181805C9F4F821B930B4E
:1016100060E470E00E943D11892B11F00E94BE0A27
:1016200008951F920F920FB60F9211242F933F939C
:101630008F939F93EF93FF932091E5023091E60201
:101640008091E7029091E8022817390731F48091E0
:10165000C1008F7D8093C10014C0E091E702F0913A
:10166000E802EB55FD4F20818091E7029091E8025E
:1016700001968F7390709093E8028093E702209315
:10168000C600FF91EF919F918F913F912F910F9005
:101690000FBE0F901F901895AF92BF92DF92EF92FE
:1016A000FF920F931F93CF93DF93EC017A018B018D
:1016B000DD24403081EE580780E0680780E078073D
:1016C00011F0DD24D39491E0A92EB12CEC89FD8991
:1016D000DD2069F0C50108A002C0880F991F0A9497
:1016E000E2F7808360E079E08DE390E005C010824E
:1016F00060E874E88EE190E0A80197010E94501123
:101700002150304040405040569547953795279599
:1017100080E12030380720F0DD2011F0DD24D6CF25
:10172000E889F9893083EA89FB89208319A2EE8947
:10173000FF89408121E030E0C9010C8C02C0880F94
:10174000991F0A94E2F7482B4083EE89FF89408174
:10175000C9010D8C02C0880F991F0A94E2F7482B2B
:101760004083EE89FF894081C9010E8C02C0880F39
:10177000991F0A94E2F7482B4083EE89FF89808104
:101780000F8C02C0220F331F0A94E2F72095282302
:101790002083DF91CF911F910F91FF90EF90DF9009
:1017A000BF90AF900895DC011C96ED91FC911D97C0
:1017B000E05CFF4F8191919120813181805C9F4F4E
:1017C000821B930B60E470E00E943D110895DC01E0
:1017D0001C96ED91FC911D97E05CFF4F20813181BB
:1017E000E054F040DF01AE5BBF4F8D919C911197AB
:1017F0002817390719F42FEF3FEF07C08D919C91FF
:10180000E80FF91F8081282F30E0C9010895DC011D
:101810001C96ED91FC911D97E05CFF4F208131817A
:10182000E054F040DF01AE5BBF4F8D919C9111976A
:101830002817390719F42FEF3FEF10C08D919C91B5
:101840001197E80FF91F20818D919C9111970196B6
:101850008F73907011969C938E9330E0C901089518
:10186000DC0191968C919197882339F05496ED91F3
:10187000FC915597808186FFF9CF91961C9208952F
:10188000CF93DF93EC01EE85FF85E05CFF4F208175
:101890003181E054F0402F5F3F4F2F733070DF01F4
:1018A000AE5BBF4F8D919C91119728173907D1F3EB
:1018B000E05CFF4F80819181E054F040E80FF91F18
:1018C0006083EE85FF85E05CFF4F31832083EE89E6
:1018D000FF89208181E090E00F8C02C0880F991F62
:1018E0000A94E2F7282B208381E089A3EC89FD8903
:1018F00080818064808381E090E0DF91CF910895C2
:1019000081E008951092EC021092EB0288EE93E0D1
:10191000A0E0B0E08093ED029093EE02A093EF027E
:10192000B093F0028CE091E09093EA028093E90298
:1019300081E692E09093F6028093F50285EA92E0C8
:101940009093F8028093F70285EC90E09093FA026E
:101950008093F90284EC90E09093FC028093FB0268
:1019600080EC90E09093FE028093FD0281EC90E089
:10197000909300038093FF0282EC90E09093020327
:101980008093010386EC90E090930403809303031B
:1019900084E08093050383E08093060387E08093CF
:1019A000070385E08093080381E08093090308958D
:1019B000EF92FF920F931F938C01F62EE42EFC0101
:1019C0006081606281E593E070E00E94F00DF801B3
:1019D0008181882329F481E593E06F2D0E94720EA6
:1019E00081E593E06E2D0E94720E81E593E00E94E6
:1019F000B50E1F910F91FF90EF900895462F65E06F
:101A00000E94D80C0895462F69E00E94D80C0895D2
:101A10001F93CF93DF93EC01162F6881606281E5FD
:101A200093E070E00E94F00D8981882329F481E51C
:101A300093E0612F0E94720E81E593E00E94B50E43
:101A40006881606281E593E070E041E050E00E94CF
:101A5000C60E81E593E00E94030EDF91CF911F91A6
:101A6000089565E00E94080D08950F931F93CF938A
:101A7000DF93EC01162F042F6830F0F460E00E9431
:101A8000080D282F002351F481E090E002C0880F58
:101A9000991F1A95E2F7422F482B0AC081E090E087
:101AA00002C0880F991F1A95E2F7482F40954223EC
:101AB000CE0160E00E94D80CDF91CF911F910F9171
:101AC0000895CF93DF93EC01683008F067E06883F6
:101AD00081E593E00E94CA0E1982CE010E94310D69
:101AE000CE0163E00E94FE0CCE010E94310D8230D7
:101AF00031F41982CE0160E00E94FE0C02C081E048
:101B000089836881606281E593E070E00E94F00D56
:101B100081E593E060E00E94720E81E593E06FEF53
:101B20000E94720E81E593E060E00E94720E81E5F2
:101B300093E060E00E94720E81E593E060E00E9415
:101B4000720E81E593E060E00E94720E81E593E001
:101B500060E00E94720E81E593E060E00E94720EE8
:101B600081E593E060E00E94720E81E593E060E021
:101B70000E94720E81E593E060E00E94720E81E5A2
:101B800093E00E94B50EDF91CF910895CF92DF923E
:101B9000EF92FF920F931F93CF93DF937C016B0122
:101BA0008A01C0E0D0E00FC0D6016D916D01D70170
:101BB000ED91FC910190F081E02DC7010995C80FCE
:101BC000D91F015010400115110571F7CE01DF91A9
:101BD000CF911F910F91FF90EF90DF90CF900895DC
:101BE00081E08093500360932D0310924E03109276
:101BF0004F03089520912C0330E080912B03281B84
:101C00003109C901089540912B0380912C03481795
:101C100018F02FEF3FEF0AC0E42FF0E0E55FFC4F34
:101C20008081282F30E04F5F40932B03C901089536
:101C3000E0912B0380912C03E81718F0EFEFFFEFF2
:101C400006C0F0E0E55FFC4F8081E82FF0E0CF01B7
:101C500008950895109254031092530388EE93E070
:101C6000A0E0B0E08093550390935603A0935703F0
:101C7000B09358038CE191E0909352038093510309
:101C80000895CF92DF92EF92FF920F931F93CF931D
:101C9000DF937C016B018A01809150038823A1F0BE
:101CA000C0E0D0E00DC0D701ED91FC91D601AC0FA2
:101CB000BD1F0190F081E02DC7016C91099521961F
:101CC000C017D10780F304C0CB01642F0E94730FAB
:101CD000C801DF91CF911F910F91FF90EF90DF909E
:101CE000CF900895DF93CF930F92CDB7DEB7FC016D
:101CF0006983809150038823C9F080914F0380321B
:101D000038F081E090E09383828320E030E015C0DA
:101D100080914E03E82FF0E0E25DFC4F99819083C3
:101D20008F5F80934E0380934F0305C0CE010196D1
:101D300061E00E94730F21E030E0C9010F90CF9164
:101D4000DF9108950F93062F80912D036EE273E0CB
:101D500040914F0321E00E941E0F10924E031092FB
:101D60004F03109250030F91089561E00E94A20E5C
:101D70000895413208F040E2862F6BE073E00E9444
:101D8000D50E10922B0380932C03089521E00E941E
:101D9000B90E089510922B0310922C0310924E034B
:101DA00010924F030E941F110895382F413210F0F6
:101DB00040E042C080915D038823E1F791E0909379
:101DC0005D0320935F038FEF8093CA031092850316
:101DD0004150409386034F5F90935E0380915E0372
:101DE000330F832B80935E0380916003813041F435
:101DF0001092600380915E038093BB0085EC01C06C
:101E000085EE8093BC0080915D038130E1F3809189
:101E10008503841710F44091850320E030E00AC068
:101E2000FB01E20FF31FD901AB59BC4F8C918083AA
:101E30002F5F3F4F2417A0F3842F08950F931F9314
:101E4000582F122F413210F081E04AC080915D037B
:101E50008823E1F782E080935D0300935F038FEFB7
:101E60008093CA031092850340938603A5E6B3E0EE
:101E7000FB0102C081918D938E2F861B8417D0F3B6
:101E800010925E0380915E03550F852B80935E0355
:101E900080916003813041F41092600380915E0371
:101EA0008093BB0085EC01C085EE8093BC001123BC
:101EB00021F080915D038230E1F38091CA038F3F6E
:101EC00011F480E00DC08091CA03803211F482E0E9
:101ED00007C08091CA03803311F084E001C083E021
:101EE0001F910F910895482F613210F081E00895FD
:101EF00080915D03843011F082E008956093A8031F
:101F0000A7E8B3E0842F9C01F90102C081918D9371
:101F10008E2F841B8617D0F380E008951F920F92B6
:101F20000FB60F9211242F933F934F935F936F93AC
:101F30007F938F939F93AF93BF93EF93FF93809182
:101F4000B90090E0887F90708036910509F4F2C066
:101F500081369105CCF58832910509F47BC0893230
:101F60009105B4F48031910509F46FC08131910578
:101F70003CF4009709F447C1089709F04FC165C0C8
:101F80008831910509F466C0809709F047C182C085
:101F90008034910509F4A4C08134910544F4803360
:101FA000910509F482C0C89709F038C189C080350D
:101FB000910509F489C08835910509F496C08834E3
:101FC000910509F02BC1AEC08839910509F413C100
:101FD00089399105ECF48837910509F4ABC089374C
:101FE00091054CF48836910509F4A4C08037910519
:101FF00009F014C19FC08838910509F4FCC08039EC
:10200000910509F49DC08038910509F007C198C079
:10201000803B910509F4C6C0813B91054CF4803AA0
:10202000910509F49FC0883A910509F0F7C0BAC03C
:10203000803C910509F4E3C0883C910509F4DFC0B8
:10204000883B910509F0EAC0C2C080915E0380938D
:10205000BB00CFC09091850380918603981768F4E8
:1020600090918503E92FF0E0EB59FC4F808180933C
:10207000BB009F5F90938503BCC080915F03882362
:1020800009F44BC085ED8093BC008091BC0084FDB9
:10209000FCCFC2C080E28093CA0385ED8093BC0070
:1020A0008091BC0084FDFCCFB7C080E38093CA035D
:1020B00085ED8093BC008091BC0084FDFCCFACC05A
:1020C00088E38093CA039BC0809185039091BB00F5
:1020D000E82FF0E0EB59FC4F90838F5F80938503EE
:1020E000909185038091860382C0809185039091B1
:1020F000BB00E82FF0E0EB59FC4F90838F5F80939B
:10210000850380915F03882341F085ED8093BC00B7
:102110008091BC0084FDFCCF7FC081E08093600390
:1021200084EA6EC085ED8093BC008091BC0084FD84
:10213000FCCF72C083E080935D031092C90359C045
:102140008091C903803208F056C08091C9039091F4
:10215000BB00E82FF0E0E755FC4F90838F5F809342
:10216000C90347C08091C903803230F4E091C903AC
:10217000F0E0E755FC4F108285ED8093BC00809124
:10218000BC0084FDFCCF10925D036091C903E09117
:102190006303F091640389EA93E070E0099510927B
:1021A000C9032DC084E080935D031092A7031092B1
:1021B000A803E0916103F091620309958091A8035F
:1021C000882329F481E08093A803109287039091DB
:1021D000A703E92FF0E0E957FC4F80818093BB0013
:1021E0009F5F9093A7039091A7038091A8039817EE
:1021F00010F485EC01C085E88093BC000FC085EC2D
:102200008093BC0009C01092CA0385ED8093BC0086
:102210008091BC0084FDFCCF10925D03FF91EF9193
:10222000BF91AF919F918F917F916F915F914F91EE
:102230003F912F910F900FBE0F901F901895109205
:102240005D0381E080935F031092600382E161E0AF
:102250000E94800983E161E00E948009E9EBF0E0DF
:1022600080818E7F808380818D7F808388E48093CE
:10227000B80085E48093BC00089597FB092E0726DB
:102280000AD077FD04D02ED006D000201AF4709525
:1022900061957F4F0895F6F7909581959F4F08952A
:1022A000A1E21A2EAA1BBB1BFD010DC0AA1FBB1F5A
:1022B000EE1FFF1FA217B307E407F50720F0A21BCC
:1022C000B30BE40BF50B661F771F881F991F1A9439
:1022D00069F760957095809590959B01AC01BD0163
:1022E000CF010895AA1BBB1B51E107C0AA1FBB1F4A
:1022F000A617B70710F0A61BB70B881F991F5A9592
:10230000A9F780959095BC01CD010895EE0FFF1FB0
:102310000590F491E02D099410E0C8ECD0E004C0E1
:10232000FE010E9488112296CA3CD107C9F7F89491
:02233000FFCFDD
:102332002000CF030000010100000000400CC60D88
:10234200D30B070CE70B300C00000000720E410E9D
:08235200FA0D030E180E290E0E
:00000001FF
